:100000000C9463000C948B000C948B000C948B006C
:100010000C948B000C948B000C948B000C948B0034
:100020000C948B000C948B000C948B000C948B0024
:100030000C948B000C948B000C948B000C948B0014
:100040000C94D9060C948B000C940C080C94480862
:100050000C948B000C948B000C948B000C948B00F4
:100060000C948B000C948B00830287028B0293020A
:1000700097029C02A302AA02AE02B202B602BA0220
:10008000C202C602CB029506950695069506950610
:100090009506950695069506950695069506950688
:1000A0009506950695069506950695069506950678
:1000B0009506950695069506D102D802DF02E6025E
:1000C000ED02F402030911241FBECFEFD8E0DEBF1A
:1000D000CDBF12E0A0E0B1E0E8E9F5E102C0059093
:1000E0000D92A63AB107D9F713E0A6EAB2E001C033
:1000F0001D92A436B107E1F710E0C6ECD0E004C0D1
:100100002297FE010E94B20AC43CD107C9F70E949F
:1001100053090C94CA0A0C9400009C01260F311D4F
:100120002F3F310509F068F4FC01EA5FFE4F6623BA
:1001300029F08181308120E0282B05C0208130E02A
:1001400002C020E030E0C90108950F931F93CF93C0
:10015000DF93E90181110BC00E94230723E630E001
:1001600040E050E00E948E0AEB0121966FC0813082
:1001700099F566E072E08DEB92E00E9498098DEBB4
:1001800092E00E949F078C01C0970A97C0F7602FEA
:100190008DEB92E00E94D5078AE0809FE001819F6D
:1001A000D00D1124C05ED1408DEB92E00E949F07DC
:1001B0008C01005311090A301105B0F7682F8DEB3F
:1001C00092E00E94D507C00FD11F6DE272E08DEB67
:1001D00092E00E94B7093AC08230A1F46623A9F1E7
:1001E000FA0180819181181619061CF46EE272E002
:1001F00002C062E472E08DEB92E00E94B709C0E0B9
:10020000D0E024C0833019F467E572E0F4CF843085
:10021000E1F46DE272E08DEB92E00E94B70968E6CE
:1002200072E08DEB92E00E949809AE0161E080E0FF
:1002300090E00E948D004AE050E0BC018DEB92E01E
:100240000E94720A6CE772E0D6CF01C0CE01DF9146
:10025000CF911F910F9108959C01240F311D2F3FC5
:10026000310509F048F4FC01EA5FFE4F442319F020
:100270007083618308956083089540E855E260E0EB
:1002800070E08DEB92E00E94830865E872E08DEBF0
:1002900092E00E94B70982E090E09093A7028093D9
:1002A000A60280E091E09093AB028093AA02909323
:1002B000A9028093A8028DE890E09093AF0280930A
:1002C000AE028CE291E09093B1028093B00285EA95
:1002D00090E09093B3028093B202089586EA92E090
:1002E0000C94C501CF93DF93EC014E815F81E885CB
:1002F000F98561E08A819B8109952A813B812E5F86
:100300003F4F3B832A83DF91CF910895FC01828187
:100310009381029793838283268137810284F385B8
:10032000E02D41E00994FC012481358182E06802DE
:1003300020193109112467FF03C082E090E002C058
:100340008EEF9FEF468157810084F185E02D61E0BB
:10035000820F931F0994FC01862FBA01A481B581F5
:1003600092E08902A019B109112487FF03C082E03D
:1003700090E002C08EEF9FEF268137810284F385E3
:10038000E02D41E08A0F9B1F09942F923F924F92DC
:100390005F926F927F928F929F92AF92BF92CF9215
:1003A000DF92EF92FF920F931F93CF93DF9300D0D2
:1003B00000D0CDB7DEB78C018DB69EB6DC011696A7
:1003C0004D915C9117971896ED91FC91199760E00B
:1003D0008D919C9109956C017C01FF24BDE9EB1680
:1003E000F10409F483C19CF5FFE8EF16F104B4F4BD
:1003F0002CE8E216F1040CF076C030E8E316F104C4
:100400000CF06CC0BC016F73772780E2C822DD243A
:1004100090E4E916F1040CF051C048C0A9E9EA16CD
:10042000F10409F408C15CF4E0E9EE16F1040CF4FF
:10043000A4C4F8E9EF16F1040CF4DFC0EAC02BE91C
:10044000E216F10409F42AC10CF02DC10FC18FEAA4
:10045000E816F10409F416C2CCF4A8EAEA16F1048D
:1004600084F4B0EAEB16F1040CF084C1EEE9EE1668
:10047000F10409F43FC1FFE9EF16F10409F07DC46E
:1004800074C12EEAE216F1044CF1F8C130EFE31624
:10049000F10434F480ECE816F1040CF03FC2F9C129
:1004A00098EFE916F1040CF434C447C4CD2811F0D8
:1004B000606C7F6FC8010E9493013CC07B01CD2816
:1004C00021F0B0ECEB2AFF24FA94C8010E947201DB
:1004D000AC016E2DC8010E94AB0149C4C8010E9445
:1004E00072016C0102C0C12CD12CC8010E947201A2
:1004F000F701E058F109EE32F10508F016C4EC5CA2
:10050000FF4F0C94B00ABC016C0D7D1DBEC1BC0137
:100510006C197D09BAC18C9DB0018D9D700D9C9D9B
:10052000700D1124B2C1B6010E947A0AAEC1B601A3
:100530000E947A0ABC01A9C1BC0102C0660F771FE4
:10054000CA94E2F7A2C1BC0102C075956795CA942E
:10055000E2F79BC1BC016C217D2197C1BC016C29D4
:100560007D2993C1BC016C257D258FC1892B39F074
:1005700061E003C061E0892B19F4CD2809F460E043
:1005800070E083C1BC01609570957FC166277727B5
:10059000681B790B7AC161E070E0892B09F475C1A1
:1005A00029C061E070E08C159D050CF46EC122C07D
:1005B00061E070E0C816D9060CF067C11BC061E0AD
:1005C00070E08C159D0509F460C114C061E070E015
:1005D0008C159D0509F059C10DC061E070E08C15C6
:1005E0009D050CF052C106C061E070E0C816D90646
:1005F0000CF44BC160E070E048C1BC016770772724
:1006000082FF02C0686F7F6F62FFAEC3686F7F6F4B
:10061000ABC3D80116964D915C9117978D919C9123
:1006200011971896ED91FC91199760E00196099544
:100630009927BC0113C0D80116964D915C9117976C
:100640008D919C9111971896ED91FC91199760E00E
:1006500001960995BC01772787FD7F6FC8010E942D
:100660008601F80180819181029685C3D801169692
:100670004D915C9117978D919C9111971896ED91E2
:10068000FC91199761E001960995BC01C8010E948F
:100690008601F8018081918103966DC3C8010E9493
:1006A00072017C0102C0E12CF12CD80114968D91CD
:1006B0009C91159713969C938E931297C8010E9454
:1006C0007201F80191838083C8010E947201D801F0
:1006D00015969C938E93149780FF06C08E7F159677
:1006E0009C938E93149749C3B701A6C2C8010E9478
:1006F00072013DC3C8010E9472017C01D8011696A7
:100700004D915C9117978D919C9111971896ED9151
:10071000FC91199760E001960995F8016481758153
:100720008D39910551F46160C8010E948601D8019C
:100730006D917C916E5F7F4F08C0C8010E94860159
:10074000F801608171816F5F7F4FC8010E9486014F
:10075000D80112968D919C91139715969C938E9328
:100760001497EC921196FC9208C3C8010E94720182
:10077000F80101C3D80116964D915C911797AD9081
:10078000BC9011971896ED91FC911997C0FC13C07D
:1007900060E0C501019609956C01DD2487FF02C068
:1007A000DD24DA94CA0CDB1CF80180819181029669
:1007B000918380830EC061E0C501019609956C01AB
:1007C000CA0CDB1CD8018D919C91119703968D93D7
:1007D0009C93B6EAEB16F10454F4E4EAEE16F10445
:1007E000CCF5F2EAEF16F1040CF444C005C028EA97
:1007F000E216F104CCF13EC0F80146815781008435
:10080000F185E02D60E0D8018D919C910995F8016A
:10081000648175818D39910551F46160C8010E9430
:100820008601D8016D917C916F5F7F4F06C0C80132
:100830000E948601F80160817181C8010E948601D1
:10084000D80112968D919C91139715969C938E9337
:10085000149711C0C8010E947201892B09F48DC23E
:10086000F801D182C08289C2C8010E947201892B1D
:1008700009F083C2D801CD92DC927FC2F801628177
:10088000738103C0F80164817581C8010E948601EB
:100890004CC24DB65EB6C8010E947201682F3C0181
:1008A0007724C301880F991FEDB7FEB7E81BF90B3A
:1008B0000FB6F894FEBF0FBEEDBF2DB73EB72F5F4A
:1008C0003F4FA9017901A12CB12C10C0C8014B8365
:1008D0005C836A830E947201D7018D939D937D0191
:1008E000BFEFAB1ABB0A6A815C814B81A614B704C7
:1008F0006CF3F801268137810484F585E02D8C2D79
:10090000805B0995BC01C8010E948601842D952D4C
:100910000FB6F8949EBF0FBE8DBF07C2B7E0CB22C3
:10092000DD2463E0F594E7946A95E1F7E5E0CE16FF
:10093000D10409F056C03DB62EB6F7E0EF22FF24F1
:10094000C7010196880F991F2DB73EB7281B390B99
:100950000FB6F8943EBF0FBE2DBFCDB6DEB68FEFFB
:10096000C81AD80A5601612C712C0AC0C8010E940D
:100970007201D5018D939D935D01BFEF6B1A7B0AC8
:10098000E614F7049CF7F601A080B180B501C80118
:100990000E9486016E2C660C77086C0C7D1C412C25
:1009A000512CC12CD12C0EC0F301E40DF51D60813A
:1009B0007181C8010E948601FFEFCF1ADF0A22E091
:1009C000421A5108EC10F0CFB501C8010E9486010F
:1009D000D8018D919C91119701968D939C939101D3
:1009E00066C0B6E0CB16D10409F069C02DB6EEB7EB
:1009F000E983F7E0EF22FF243E2C2FEFE21AF20A00
:100A0000C7010196880F991FADB7BEB7A81BB90BD8
:100A10000FB6F894BEBF0FBEADBFADB6BEB6EFEF1A
:100A2000AE1ABE0A6501612C712C0AC0C8010E9471
:100A30007201D6018D939D936D01BFEF6B1A7B0AF6
:100A4000E614F7049CF7832D8F5F6501C80ED11C57
:100A5000C80ED11C412C512C612C712C21E0F601C7
:100A6000E40DF51D329760817181C8012A830E94CF
:100A70008601EFEF6E1A7E0AF2E04F1A51082A81C2
:100A8000822F8619830D59F7F701EE0FFF1FEA0D2C
:100A9000FB1D60817181C8010E948601D8018D9182
:100AA0009C91119701968D939C93322D2981832FD0
:100AB000922F0FB6F8949EBF0FBE8DBF5EC1B7E0F8
:100AC000EB22FF24C7010497BB24B394029708F0DC
:100AD000B12CE2E0CE16D10409F440C044F4C114B4
:100AE000D10479F0CA94CD2809F07CC020C033E04D
:100AF000C316D104E9F184E0C816D10409F072C02C
:100B000053C0D80116964D915C9117978D919C9189
:100B100011971896ED91FC91199760E0019609954F
:100B20006C01DD24F80180819181029614C0D80106
:100B300016964D915C9117978D919C9111971896EF
:100B4000ED91FC91199761E0019609956C01F8010E
:100B50008081918103969183808346C0C8010E9461
:100B600072016C01D8018D919C911197019637C04B
:100B7000C8010E9472016C0102C0CC0CDD1CBA9449
:100B8000E2F7F80146815781808191810084F185E7
:100B9000E02D60E001960995C80ED11CD8018D9119
:100BA0009C91119702961BC0C8010E9472016C01B2
:100BB00002C0CC0CDD1CBA94E2F7F80146815781E3
:100BC000808191810084F185E02D61E00196099595
:100BD000C80ED91ED8018D919C91119703968D93C3
:100BE0009C9302C0C12CD12CB2E0EB16F104E9F1C8
:100BF00044F4E114F10491F0EA94EF2809F0BDC047
:100C000046C024E0E216F10409F44CC00CF43FC0E5
:100C100085E0E816F10409F0B0C051C0D80116967D
:100C20004D915C9117971896ED91FC91199760E0A2
:100C3000C60109959927BC01C8010F900F900F902C
:100C40000F90DF91CF911F910F91FF90EF90DF9068
:100C5000CF90BF90AF909F908F907F906F905F905C
:100C60004F903F902F900C948601D80116964D918D
:100C70005C9117971896ED91FC91199760E0C60169
:100C80000995BC01772787FFD7CF7F6FD5CFF801B4
:100C9000E284F384A680B780C8010E9472019501A6
:100CA00040E017C0D80116964D915C9117971896A1
:100CB000ED91FC91199761E0C6010995BCCFF8014F
:100CC000E284F384A680B780C8010E947201950176
:100CD00041E0BC01C601F7010F900F900F900F90FB
:100CE000DF91CF911F910F91FF90EF90DF90CF9008
:100CF000BF90AF909F908F907F906F905F904F903C
:100D00003F902F90099460E070E0C8010E94860136
:100D100005C0E12CF12CF7E0CF22DD24C7012FEF35
:100D2000E21AF20AC816D90674F7D8018D919C917F
:100D3000119701968D939C9320C0C8010E94720167
:100D4000B7E0CB22DD24EFEFCE1ADE0ACC0CDD1C9F
:100D5000D80112962D913C9113972C0D3D1D1396A1
:100D60003C932E931297BC01C8010E948601F801A2
:100D7000808191810196918380830FB6F8949EBE05
:100D80000FBE8DBE0F900F900F900F90DF91CF91FF
:100D90001F910F91FF90EF90DF90CF90BF90AF9099
:100DA0009F908F907F906F905F904F903F902F908B
:100DB00008951F920F920FB60F9211242F933F9315
:100DC0008F939F93AF93BF938091B4029091B5029C
:100DD000A091B602B091B7023091BC02232F2D5FD3
:100DE0002D3720F40196A11DB11D05C0232F2A57D0
:100DF0000296A11DB11D2093BC028093B402909372
:100E0000B502A093B602B093B7028091B802909158
:100E1000B902A091BA02B091BB020196A11DB11D09
:100E20008093B8029093B902A093BA02B093BB0228
:100E3000BF91AF919F918F913F912F910F900FBED6
:100E40000F901F9018950F931F938FB7F8940091F0
:100E5000B4021091B5022091B6023091B7028FBF53
:100E6000B801C9011F910F910895789484B58260EB
:100E700084BD84B5816084BD85B5826085BD85B53E
:100E8000816085BDEEE6F0E0808181608083E1E8ED
:100E9000F0E0108280818260808380818160808325
:100EA000E0E8F0E0808181608083E1EBF0E0808128
:100EB00084608083E0EBF0E0808181608083EAE7FA
:100EC000F0E0808184608083808182608083808183
:100ED000816080838081806880831092C100089542
:100EE000FC0184859585FC01E05CFF4F2081318108
:100EF000FC01EE5BFF4F80819181281B390B2F7322
:100F00003327C9010895FC0184859585FC01E05CC7
:100F1000FF4F40815181FC01EE5BFF4F2081318109
:100F20004217530741F00190F081E02DE80FF91FBF
:100F3000208130E002C02FEF3FEFC9010895FC018E
:100F400084859585FC01E05CFF4F40815181FC0167
:100F5000EE5BFF4F208131814217530781F0A08162
:100F6000B181A80FB91F8C91208131812F5F3F4F34
:100F70002F73332731832083282F30E002C02FEFD7
:100F80003FEFC9010895FC0186859785FC01E05C6F
:100F9000FF4FDC01AE5BBF4F408151812D913C91F1
:100FA000119742175307C1F70895CF93DF93FC01C0
:100FB00086859785DC01A05CBF4F2D913C911197F0
:100FC0002F5F3F4F2F733327EC01CE5BDF4F4881FC
:100FD000598124173507D9F30D90BC91A02DA80F86
:100FE000B91F6C93A685B785A05CBF4F11963C9343
:100FF0002E93A689B7892C9181E090E0058C02C0E0
:10100000880F991F0A94E2F7282B2C9381E090E037
:10101000DF91CF91089508951F920F920FB60F920E
:1010200011242F933F934F938F939F93EF93FF93AD
:101030004091C600809160039091610301968F7387
:10104000992720916203309163038217930759F027
:10105000E0916003F0916103E05EFC4F4083909368
:10106000610380936003FF91EF919F918F914F9166
:101070003F912F910F900FBE0F901F9018958DEB01
:1010800092E00E947007892B11F00C940B080895D0
:101090001F920F920FB60F9211242F933F938F93AD
:1010A0009F93EF93FF9320911C0330911D03809138
:1010B0001E0390911F032817390731F48091C10056
:1010C0008F7D8093C10014C0E0911E03F0911F0337
:1010D000E452FD4F208180911E0390911F030196E1
:1010E0008F73992790931F0380931E032093C6004C
:1010F000FF91EF919F918F913F912F910F900FBE94
:101100000F901F901895CF92DF92EF92FF92CF939E
:10111000DF93EC016A017B01411581EE58076105FF
:101120007105F9F0EC89FD8981E090E00E8C02C038
:10113000880F991F0A94E2F7808360E079E08DE3DD
:1011400090E0A70196010E948E0A215031094109C1
:1011500051095695479537952795211580E1380710
:1011600098F0EC89FD89108260E874E88EE190E0E7
:10117000A70196010E948E0A2150310941095109A7
:101180005695479537952795E889F9893083EA89F7
:10119000FB892083EE89FF89408181E090E09C01FA
:1011A0000A8C02C0220F331F0A94E2F7422B4083BD
:1011B000EE89FF8940819C010B8C02C0220F331FF6
:1011C0000A94E2F7422B4083EE89FF8940819C011B
:1011D0000C8C02C0220F331F0A94E2F7422B40838B
:1011E000EE89FF8920810D8C02C0880F991F0A9417
:1011F000E2F7809582238083DF91CF91FF90EF907B
:10120000DF90CF9008951092C0021092BF0288EE36
:1012100093E0A0E0B0E08093C1029093C202A0935B
:10122000C302B093C40289E992E09093BE02809316
:10123000BD0280E293E09093CA028093C9028CEDD4
:1012400092E09093CC028093CB0285EC90E0909357
:10125000CE028093CD0284EC90E09093D0028093F4
:10126000CF0280EC90E09093D2028093D10281EC87
:1012700090E09093D4028093D30286EC90E0909318
:10128000D6028093D50284E08093D70283E08093D6
:10129000D80287E08093D90285E08093DA0281E06A
:1012A0008093DB0208950E9435070E943D01CFE341
:1012B000D8E00E946E012097E1F30E943F08F9CF29
:1012C000CF92DF92EF92FF920F931F93CF93DF9312
:1012D0006C01EB017A01E60EF71E00E010E00BC096
:1012E0006991D601ED91FC910190F081E02DC6014C
:1012F0000995080F191FCE15DF0591F7C801DF9179
:10130000CF911F910F91FF90EF90DF90CF900895B4
:10131000DB010D900020E9F7AD0141505109461B5A
:10132000570BDC01ED91FC910280F381E02D0994D3
:101330000C948809DC01ED91FC910190F081E02D85
:1013400009940F931F93CF93DF93EC016DE00E94FC
:101350009A098C016AE0CE010E949A099C01200F33
:10136000311FC901DF91CF911F910F9108950F9304
:101370001F93CF93DF93EC010E9488098C01CE016B
:101380000E94A1099801280F391FC901DF91CF914F
:101390001F910F9108954F925F926F927F929F924B
:1013A000AF92BF92CF92DF92EF92FF920F931F9373
:1013B000CF93DF93CDB7DEB7A1970FB6F894DEBF1A
:1013C0000FBECDBF5C016A017B01922E19A281E0A4
:1013D000821710F08AE0982E8E010F5D1F4F492C66
:1013E000512C612C712CC701B601A30192010E94FE
:1013F0008E0A8C2D929E80191124015011098A3079
:1014000014F4805D01C0895CF801808369017A0170
:10141000C114D104E104F10431F7B801C5010E94FF
:101420008809A1960FB6F894DEBF0FBECDBFDF913D
:10143000CF911F910F91FF90EF90DF90CF90BF90D1
:10144000AF909F907F906F905F904F900895CF9254
:10145000DF92EF92FF920F931F93CF93DF93EC01F4
:101460006A017B012115310579F4E881F981019048
:10147000F081E02D642FDF91CF911F910F91FF90AC
:10148000EF90DF90CF9009942A30310519F477FD61
:101490000EC02AE0B701A601CE01DF91CF911F91C6
:1014A0000F91FF90EF90DF90CF900C94CB096DE2FD
:1014B0000E949A098C0144275527BA014C195D09ED
:1014C0006E097F092AE0CE010E94CB09080F191F7F
:1014D000C801DF91CF911F910F91FF90EF90DF90A6
:1014E000CF9008959A01AB01662757FD6095762F3E
:1014F0000C94270A97FB072E16F4009407D077FD6B
:1015000009D00E94B60A07FC05D03EF4909581955B
:101510009F4F0895709561957F4F0895A1E21A2E0F
:10152000AA1BBB1BFD010DC0AA1FBB1FEE1FFF1F87
:10153000A217B307E407F50720F0A21BB30BE40BD7
:10154000F50B661F771F881F991F1A9469F760951E
:101550007095809590959B01AC01BD01CF010895D8
:10156000EE0FFF1F0590F491E02D0994AA1BBB1B01
:1015700051E107C0AA1FBB1FA617B70710F0A61B93
:10158000B70B881F991F5A95A9F780959095BC01B4
:08159000CD010895F894FFCF8E
:101598000000640320000000F190E80091A63A9052
:1015A800B49D90B04090B1410100A8A60C9191B2B1
:1015B8009DE0009181E8000100ADA60C9791B29DD5
:1015C800E0009181E8000100ABA4DCE000980A800B
:1015D800E80090B39DA0C79C000000000000000038
:1015E80000000000000000000000000000000000F3
:1015F80000000000000000000000000000000000E3
:1016080000000000000000000000000000000000D2
:1016180000000000000000000000000000000000C2
:1016280000000000000000000000000000000000B2
:1016380000000000000000000000000000000000A2
:101648000000000000000000000000000000000092
:101658000000000000000000000000000000000082
:101668000000000000000000000000000000000072
:101678000000000000000000000000000000000062
:101688000000000000000000000000000000000052
:1016980000000000000047756573732074686520BA
:1016A8006E756D626572202874776F206465636952
:1016B8006D616C20646967697473293A20005472FB
:1016C80079206C6172676572206E756D62657273E0
:1016D8002E0054727920736D616C6C6572206E7582
:1016E8006D626572732E0054686973206973206394
:1016F8006F72726563742100596F75206375727219
:10170800656E746C792068617665200020706F6959
:101718006E74732E00496E697469616C697A696EBA
:10172800672E2E2E0000000000D507600970079F65
:06173800078307C3070050
:00000001FF
