:100000000C9491000C94B9000C94B9000C94B900B4
:100010000C94B9000C94B9000C94B9000C94B9007C
:100020000C94B9000C94B9000C94B9000C94B9006C
:100030000C94B9000C94B9000C94B9000C94B9005C
:100040000C945A0B0C94B9000C94640D0C94A00DF4
:100050000C94B9000C94B9000C94B9000C94B9003C
:100060000C94B9000C94B900040708070C07140796
:1000700018071D0724072B072F07330737073B07F0
:10008000430747074C07160B160B160B160B160BE0
:10009000160B160B160B160B160B160B160B160B58
:1000A000160B160B160B160B160B160B160B160B48
:1000B000160B160B160B160B52075907600767072E
:1000C0006E07750700000007000201000003040628
:1000D0000000000000000000010204081020408021
:1000E0000102040810200102040810200404040482
:1000F00004040404020202020202030303030303D2
:1001000000000000250028002B0000000000240053
:1001100027002A006364696E6F70737578585B00FE
:100120005B0E11241FBECFEFD8E0DEBFCDBF11E0C4
:10013000A0E0B1E0E2ECF8E202C005900D92A43E2E
:10014000B107D9F717E0A4EEB1E001C01D92A93DB7
:10015000B107E1F711E0C2E2D1E004C02297FE014D
:100160000E945110C032D107C9F70E94AB0E0C9407
:100170005F140C940000EF92FF920F931F93CF93A4
:10018000DF93E62EEA01813089F120F0823009F018
:100190006AC053C066E071E088E297E00E94F00E0A
:1001A0004AE050E060E088E297E00E948C0F6CE14A
:1001B00071E088E297E00E94F00E4AE050E06E2D78
:1001C00088E297E00E94930F00E010E0F12C0AC053
:1001D000699179914AE050E088E297E00E94FF0F30
:1001E0000F5F1F4F0E151F059CF33DC069E271E0C4
:1001F00088E297E00E94F00E688179814AE050E041
:1002000088E297E00E94F70F6CE371E088E297E0E4
:100210000E94F00E6A817B814AE050E088E297E01C
:100220000E94FF0F61E08A819B81181619060CF06D
:1002300060E088810E94910C16C063E471E088E25E
:1002400097E00E94F00E688179814AE050E088E2F0
:1002500097E00E94FF0F68817981882777FD80955C
:10026000982F0E94CE0B80E090E0DF91CF911F91FC
:100270000F91FF90EF9008959C01260F311D2C32B5
:10028000314068F4FC01ED50FA4F662329F081817A
:10029000308120E0282B05C0208130E002C020E022
:1002A00030E0C90108959C01240F311D2C323140EA
:1002B00048F4FC01ED50FA4F442319F07083618338
:1002C0000895608308959091F205E92FF0E0ED50D4
:1002D000FA4F80839F5F9093F20508957F928F92EB
:1002E0009F92AF92BF92CF92DF92EF92FF920F93C5
:1002F0001F93CF93DF9300D000D0CDB7DEB78C0132
:100300006B014A01FC01808191816817790738F4FB
:1003100065C0FFEFAF1ABF0AF801B182A082F801F1
:10032000A080B18082EFE82E81E0F82EEA0CFB1C61
:10033000F7018081992787FD90950E94B410892B41
:1003400041F744E050E0B7018BE491E00E94BC101B
:10035000009709F045C0F4E0AF0EB11CF501EE5076
:10036000FE4F7080872D992787FD90950E94A010E1
:10037000892BB1F524E2721699F1F801B182A082BD
:10038000A401B601C8010E941C0281E923C0F80142
:100390008081918129813A81820F931F918380838B
:1003A000A401B601C8010E941C028B81282F3C8148
:1003B0002830310510F480570DC02F3F310509F06A
:1003C00010F488E904C08AE90E9463018C810E94CC
:1003D00063018B810E94630180E01CC081E01AC030
:1003E0001A821982CE0101969F938F93CE010396B4
:1003F0009F938F9380E591E09F938F93FF92EF926D
:100400000E9404110FB6F894DEBF0FBECDBF892B3A
:1004100029F3BDCF0F900F900F900F90DF91CF91E8
:100420001F910F91FF90EF90DF90CF90BF90AF9012
:100430009F908F907F900895CF92DF92FF920F93BD
:100440001F93CF93DF9300D000D0CDB7DEB76C0100
:1004500041155105B9F1FA0180818F5F808305C094
:100460000F5F1F4FF60111830083F6010081118198
:10047000F801EE50FE4FF0808F2D992787FD909563
:100480004B835C8369837A830E94B4104B815C81C7
:1004900069817A81892B21F7FCE2FF1213C00F5F7B
:1004A0001F4FF60111830083C6010F900F900F902C
:1004B0000F90DF91CF911F910F91FF90DF90CF9020
:1004C0000C946E0180E00F900F900F900F90DF91D1
:1004D000CF911F910F91FF90DF90CF9008953F92A1
:1004E0004F925F926F927F928F929F92AF92BF9244
:1004F000CF92DF92EF92FF920F931F93CF93DF93F0
:1005000000D0CDB7DEB78C016B01AA24A394B12C27
:10051000AC0EBD1E3CE5832E31E0932EF8018081A8
:100520009181C816D90638F473C1FFEF6F1A7F0A9C
:10053000F80171826082F8016080718092EFE92E8B
:1005400091E0F92EE60CF71CF7018081992787FDD1
:1005500090950E94B410892B41F745E050E0B70117
:1005600086E591E00E94BC10009709F0A0C0F5E07C
:100570006F0E711CF301EE50FE4F5080852D9927B0
:1005800087FD90950E94A010892B09F090C084E20D
:10059000581609F48CC0F8017182608206C0FFEF22
:1005A000EF1AFF0AF801F182E082F801E080F180A1
:1005B000F701EE50FE4F7080872D992787FD9095AB
:1005C0000E94B410892B59F7F8E27F121DC18FEFFA
:1005D000E81AF80AF801F182E08240E050E0B60142
:1005E000C8010E946E01811113C186EA0E94630155
:1005F00084E00E94630106C0FFEFEF1AFF0AF801D2
:10060000F182E082F801E080F180F701EE50FE4FC8
:100610007080872D992787FD90950E94B410892BB3
:1006200059F7F9E27F12F0C08FEFE81AF80A03C019
:10063000FFEFEF1AFF0AF801F182E082F801E08093
:10064000F180F701EE50FE4F7080872D992787FDCE
:1006500090950E94B410892B59F7FBE77F12D4C004
:100660008FEFE81AF80A03C0FFEFEF1AFF0AF8014C
:10067000F182E082F801E080F180F701EE50FE4F58
:100680007080872D992787FD90950E94B410892B43
:1006900059F7FDE77F12B8C08FEFE81AF80AF801A2
:1006A000F182E08280EA0E9463018DEFA0C0612C9C
:1006B000712CF80140805180F201EE50FE4F3080E5
:1006C000832D992787FD90950E94A010892B09F012
:1006D00091C0F4E23F1609F48DC0672839F498C040
:1006E0008FEF681A780AF80171826082F8016080E1
:1006F0007180F301EE50FE4F5080852D992787FDC4
:1007000090950E94B410892B59F7F8E25F127CC0D3
:100710008FEF681A780AF801718260821A8206C027
:10072000FFEF6F1A7F0AF80171826082F801608022
:100730007180F301EE50FE4F8081992787FD9095DF
:100740000E94B410892B61F7AE014E5F5F4FB60176
:10075000C8010E946E0181115BC088E90E9463019B
:100760008A810E946301F80180819181FC01EE5031
:10077000FE4F2081293209F047C00196F80191838C
:10078000808306C0FFEF6F1A7F0AF80171826082D2
:10079000F80160807180F301EE50FE4F5080852D8E
:1007A000992787FD90950E94B410892B59F7FBE398
:1007B0005F122AC08FEF681A780AF801718260828E
:1007C000BF92AF929F928F92FF92EF920E9404117C
:1007D0000F900F900F900F900F900F901816190612
:1007E0002CF489818F7080550E9463018DE90E94ED
:1007F000630194CEFFEF4F1A5F0AF80151824082E5
:10080000FFEF6F1A7F0A55CF84E691E00E94D51062
:1008100081E00F900F90DF91CF911F910F91FF908A
:10082000EF90DF90CF90BF90AF909F908F907F9090
:100830006F905F904F903F900895CF92DF92EF922C
:10084000FF920F931F93CF93DF93EC017B01B3C013
:10085000FC01EE50FE4F8081811105C0B3C00F5FD7
:100860001F4F198308830881198142EFC42E41E08C
:10087000D42EC00ED11EF6018081992787FD909558
:100880000E94B410892B59F748E050E0B60186E782
:1008900091E00E94BC10009709F09FC0085F1F4FB5
:1008A000F801EE50FE4FD0808D2D992787FD909551
:1008B0000E94A010892B09F090C0F4E2DF1609F421
:1008C0008CC002C00F5F1F4F1983088308811981F4
:1008D000F801EE50FE4F8081992787FD90950E9488
:1008E000B410892B79F708811981F801EE50FE4F79
:1008F000D0808D2D992787FD90950E94A010892B7F
:1009000009F062C084E2D81205C05EC00F5F1F4FBD
:100910001983088308811981F801EE50FE4FD080B9
:100920008D2D992787FD90950E94B410892B71F722
:10093000E8E2DE124EC00F5F1F4F19830883088163
:100940001981F801EE50FE4FD0808D2D992787FD3B
:1009500090950E94B410892B71F7F9E2DF1239C02B
:100960000F5F1F4F1983088308811981F801EE502A
:10097000FE4FD0808D2D992787FD90950E94B41051
:10098000892B71F78BE7D81224C00F5F1F4F198393
:100990000883B701CE010E946F0288819981FC0112
:1009A000EE50FE4F20812D37A1F401969983888364
:1009B0008CE90E94630188819981E816F90608F0A4
:1009C00047CF0BC080E00AC00F5F1F4F1983088319
:1009D0008ACF84E691E00E94D51081E0DF91CF912B
:1009E0001F910F91FF90EF90DF90CF900895CF93DC
:1009F000DF9300D0CDB7DEB760E071E082EF91E029
:100A00000E94CA101A821982BC01CE0101960E946E
:100A10001D0490E00F900F90DF91CF910895CF9338
:100A2000DF9300D0CDB7DEB78091CF079091D0078C
:100A3000009711F489ED97E09E012F5F3F4F281B2F
:100A4000390BC9010F900F90DF91CF9108950F934B
:100A50001F93CF93DF9361E08DE00E94590C40E833
:100A600055E260E070E088E297E00E94DB0D6FE7FE
:100A700071E088E297E00E940F0F02EF11E0C0E002
:100A8000D0E011C088E297E00E94C80C1816190641
:100A9000CCF788E297E00E94F70CF80181938F0170
:100AA0002196882321F0C115F4E0DF0759F76FE89C
:100AB00071E088E297E00E94F00E4AE050E0BE014B
:100AC00088E297E00E94F70F6BE971E088E297E017
:100AD0000E940F0F62EF71E088E297E00E940F0F13
:100AE00063EA71E088E297E00E94F00E0E940F0531
:100AF0004AE050E0BC0188E297E00E94FF0F62E408
:100B000071E088E297E00E940F0F68EE73E080E0EA
:100B100090E00E94CE0B0E94F704892B51F06DEA01
:100B200071E088E297E0DF91CF911F910F910C94D3
:100B30000F0F6EEB71E088E297E00E940F0FC3EF9A
:100B4000D5E013C061ED71E088E297E00E94F00EFD
:100B5000699140E150E088E297E00E948C0F61E4E7
:100B600071E088E297E00E94F00E9E01235F35401D
:100B70008091F20590E02817390724F362E471E0D0
:100B800088E297E00E940F0F62E471E088E297E04C
:100B90000E940F0F1092E5011092E4018CE291E0A7
:100BA0009093E9018093E8019093E7018093E60137
:100BB0008CE391E09093ED018093EC0183E591E06B
:100BC0009093EF018093EE018BEB90E09093F10115
:100BD0008093F001DF91CF911F910F91089584EEE2
:100BE00091E00C944606CF93DF93EC014E815F8138
:100BF000E885F98561E08A819B8109952A813B819D
:100C00002E5F3F4F3B832A83DF91CF910895FC01F4
:100C10008281938102979383828326813781028424
:100C2000F385E02D41E00994FC012481358182E0C7
:100C3000680220193109112467FF03C082E090E0A7
:100C400002C08EEF9FEF468157810084F185E02D31
:100C500061E0820F931F0994FC01862FBA01A481E1
:100C6000B58192E08902A019B109112487FF03C060
:100C700082E090E002C08EEF9FEF268137810284F0
:100C8000F385E02D41E08A0F9B1F09942F923F923C
:100C90004F925F926F927F928F929F92AF92BF928C
:100CA000CF92DF92EF92FF920F931F93CF93DF9338
:100CB00000D000D0CDB7DEB78C018DB69EB6DC017A
:100CC00016964D915C9117971896ED91FC91199796
:100CD00060E08D919C9109956C017C01FF24BDE938
:100CE000EB16F10409F483C19CF5FFE8EF16F1045B
:100CF000B4F42CE8E216F1040CF076C030E8E31608
:100D0000F1040CF06CC0BC016F73772780E2C8223D
:100D1000DD2490E4E916F1040CF051C048C0A9E9C3
:100D2000EA16F10409F408C15CF4E0E9EE16F104F6
:100D30000CF4A4C4F8E9EF16F1040CF4DFC0EAC027
:100D40002BE9E216F10409F42AC10CF02DC10FC100
:100D50008FEAE816F10409F416C2CCF4A8EAEA1600
:100D6000F10484F4B0EAEB16F1040CF084C1EEE96E
:100D7000EE16F10409F43FC1FFE9EF16F10409F0A2
:100D80007DC474C12EEAE216F1044CF1F8C130EFD3
:100D9000E316F10434F480ECE816F1040CF03FC2E1
:100DA000F9C198EFE916F1040CF434C447C4CD2816
:100DB00011F0606C7F6FC8010E9414063CC07B017B
:100DC000CD2821F0B0ECEB2AFF24FA94C8010E9450
:100DD000F305AC016E2DC8010E942C0649C4C80160
:100DE0000E94F3056C0102C0C12CD12CC8010E94E5
:100DF000F305F701E058F109EE32F10508F016C4E9
:100E0000EC5CFF4F0C944F10BC016C0D7D1DBEC1FE
:100E1000BC016C197D09BAC18C9DB0018D9D700D0E
:100E20009C9D700D1124B2C1B6010E941910AEC173
:100E3000B6010E941910BC01A9C1BC0102C0660F15
:100E4000771FCA94E2F7A2C1BC0102C075956795ED
:100E5000CA94E2F79BC1BC016C217D2197C1BC0102
:100E60006C297D2993C1BC016C257D258FC1892BFF
:100E700039F061E003C061E0892B19F4CD2809F451
:100E800060E070E083C1BC01609570957FC166270A
:100E90007727681B790B7AC161E070E0892B09F430
:100EA00075C129C061E070E08C159D050CF46EC120
:100EB00022C061E070E0C816D9060CF067C11BC003
:100EC00061E070E08C159D0509F460C114C061E01B
:100ED00070E08C159D0509F059C10DC061E070E00E
:100EE0008C159D050CF052C106C061E070E0C8167B
:100EF000D9060CF44BC160E070E048C1BC016770DA
:100F0000772782FF02C0686F7F6F62FFAEC3686F92
:100F10007F6FABC3D80116964D915C9117978D9159
:100F20009C9111971896ED91FC91199760E00196AC
:100F300009959927BC0113C0D80116964D915C9173
:100F400017978D919C9111971896ED91FC91199797
:100F500060E001960995BC01772787FD7F6FC80186
:100F60000E940706F80180819181029685C3D8010D
:100F700016964D915C9117978D919C9111971896AB
:100F8000ED91FC91199761E001960995BC01C801AA
:100F90000E940706F8018081918103966DC3C80104
:100FA0000E94F3057C0102C0E12CF12CD8011496BB
:100FB0008D919C91159713969C938E931297C801CF
:100FC0000E94F305F80191838083C8010E94F30514
:100FD000D80115969C938E93149780FF06C08E7F40
:100FE00015969C938E93149749C3B701A6C2C80166
:100FF0000E94F3053DC3C8010E94F3057C01D8019E
:1010000016964D915C9117978D919C91119718961A
:10101000ED91FC91199760E001960995F8016481C2
:1010200075818D39910551F46160C8010E940706F0
:10103000D8016D917C916E5F7F4F08C0C8010E94FE
:101040000706F801608171816F5F7F4FC8010E94C0
:101050000706D80112968D919C91139715969C9333
:101060008E931497EC921196FC9208C3C8010E94CB
:10107000F305F80101C3D80116964D915C911797BD
:10108000AD90BC9011971896ED91FC911997C0FC0A
:1010900013C060E0C501019609956C01DD2487FF4E
:1010A00002C0DD24DA94CA0CDB1CF8018081918136
:1010B0000296918380830EC061E0C5010196099577
:1010C0006C01CA0CDB1CD8018D919C911197039681
:1010D0008D939C93B6EAEB16F10454F4E4EAEE1611
:1010E000F104CCF5F2EAEF16F1040CF444C005C0AB
:1010F00028EAE216F104CCF13EC0F801468157819E
:101100000084F185E02D60E0D8018D919C910995D6
:10111000F801648175818D39910551F46160C801D0
:101120000E940706D8016D917C916F5F7F4F06C0CA
:10113000C8010E940706F80160817181C8010E9400
:101140000706D80112968D919C91139715969C9342
:101150008E93149711C0C8010E94F305892B09F4DE
:101160008DC2F801D182C08289C2C8010E94F305F4
:10117000892B09F083C2D801CD92DC927FC2F8019D
:101180006281738103C0F80164817581C8010E9486
:1011900007064CC24DB65EB6C8010E94F305682F23
:1011A0003C017724C301880F991FEDB7FEB7E81BF8
:1011B000F90B0FB6F894FEBF0FBEEDBF2DB73EB7CB
:1011C0002F5F3F4FA9017901A12CB12C10C0C8019C
:1011D0004B835C836A830E94F305D7018D939D93B3
:1011E0007D01BFEFAB1ABB0A6A815C814B81A614FB
:1011F000B7046CF3F801268137810484F585E02D6E
:101200008C2D805B0995BC01C8010E940706842DC6
:10121000952D0FB6F8949EBF0FBE8DBF07C2B7E0E5
:10122000CB22DD2463E0F594E7946A95E1F7E5E0ED
:10123000CE16D10409F056C03DB62EB6F7E0EF2227
:10124000FF24C7010196880F991F2DB73EB7281BB1
:10125000390B0FB6F8943EBF0FBE2DBFCDB6DEB62C
:101260008FEFC81AD80A5601612C712C0AC0C80128
:101270000E94F305D5018D939D935D01BFEF6B1A1D
:101280007B0AE614F7049CF7F601A080B180B50153
:10129000C8010E9407066E2C660C77086C0C7D1C3A
:1012A000412C512CC12CD12C0EC0F301E40DF51DA5
:1012B00060817181C8010E940706FFEFCF1ADF0A23
:1012C00022E0421A5108EC10F0CFB501C8010E948B
:1012D0000706D8018D919C91119701968D939C934F
:1012E000910166C0B6E0CB16D10409F069C02DB6F5
:1012F000EEB7E983F7E0EF22FF243E2C2FEFE21A4E
:10130000F20AC7010196880F991FADB7BEB7A81B97
:10131000B90B0FB6F894BEBF0FBEADBFADB6BEB62B
:10132000EFEFAE1ABE0A6501612C712C0AC0C8012C
:101330000E94F305D6018D939D936D01BFEF6B1A4B
:101340007B0AE614F7049CF7832D8F5F6501C80EB6
:10135000D11CC80ED11C412C512C612C712C21E0C8
:10136000F601E40DF51D329760817181C8012A8371
:101370000E940706EFEF6E1A7E0AF2E04F1A51083C
:101380002A81822F8619830D59F7F701EE0FFF1F6F
:10139000EA0DFB1D60817181C8010E940706D8011A
:1013A0008D919C91119701968D939C93322D29815B
:1013B000832F922F0FB6F8949EBF0FBE8DBF5EC1D4
:1013C000B7E0EB22FF24C7010497BB24B394029734
:1013D00008F0B12CE2E0CE16D10409F440C044F488
:1013E000C114D10479F0CA94CD2809F07CC020C082
:1013F00033E0C316D104E9F184E0C816D10409F042
:1014000072C053C0D80116964D915C9117978D917B
:101410009C9111971896ED91FC91199760E00196B7
:1014200009956C01DD24F80180819181029614C038
:10143000D80116964D915C9117978D919C911197BB
:101440001896ED91FC91199761E0019609956C0150
:10145000F8018081918103969183808346C0C80101
:101460000E94F3056C01D8018D919C911197019612
:1014700037C0C8010E94F3056C0102C0CC0CDD1C12
:10148000BA94E2F7F8014681578180819181008406
:10149000F185E02D60E001960995C80ED11CD801B8
:1014A0008D919C91119702961BC0C8010E94F30573
:1014B0006C0102C0CC0CDD1CBA94E2F7F801468145
:1014C0005781808191810084F185E02D61E0019652
:1014D0000995C80ED91ED8018D919C91119703963C
:1014E0008D939C9302C0C12CD12CB2E0EB16F10479
:1014F000E9F144F4E114F10491F0EA94EF2809F0E1
:10150000BDC046C024E0E216F10409F44CC00CF45E
:101510003FC085E0E816F10409F0B0C051C0D80121
:1015200016964D915C9117971896ED91FC9119972D
:1015300060E0C60109959927BC01C8010F900F9082
:101540000F900F90DF91CF911F910F91FF90EF902F
:10155000DF90CF90BF90AF909F908F907F906F90D3
:101560005F904F903F902F900C940706D8011696ED
:101570004D915C9117971896ED91FC91199760E049
:10158000C6010995BC01772787FFD7CF7F6FD5CFDD
:10159000F801E284F384A680B780C8010E94F305B5
:1015A000950140E017C0D80116964D915C911797B0
:1015B0001896ED91FC91199761E0C6010995BCCF91
:1015C000F801E284F384A680B780C8010E94F30585
:1015D000950141E0BC01C601F7010F900F900F90FB
:1015E0000F90DF91CF911F910F91FF90EF90DF90BF
:1015F000CF90BF90AF909F908F907F906F905F90B3
:101600004F903F902F90099460E070E0C8010E94D5
:10161000070605C0E12CF12CF7E0CF22DD24C7013D
:101620002FEFE21AF20AC816D90674F7D8018D9185
:101630009C91119701968D939C9320C0C8010E94A4
:10164000F305B7E0CB22DD24EFEFCE1ADE0ACC0C97
:10165000DD1CD80112962D913C9113972C0D3D1D48
:1016600013963C932E931297BC01C8010E94070663
:10167000F801808191810196918380830FB6F8945F
:101680009EBE0FBE8DBE0F900F900F900F90DF91FA
:10169000CF911F910F91FF90EF90DF90CF90BF906F
:1016A000AF909F908F907F906F905F904F903F9002
:1016B0002F9008951F920F920FB60F9211242F931F
:1016C0003F938F939F93AF93BF9380911F07909108
:1016D0002007A0912107B091220730912707232FDF
:1016E0002D5F2D3720F40196A11DB11D05C0232FBC
:1016F0002A570296A11DB11D2093270780931F072B
:1017000090932007A0932107B0932207809123078D
:1017100090912407A0912507B09126070196A11D5D
:10172000B11D8093230790932407A0932507B093BE
:101730002607BF91AF919F918F913F912F910F906D
:101740000FBE0F901F9018950F931F939FB7F8949B
:101750000091230710912407209125073091260737
:1017600086B5A89B06C08F3F21F00F5F1F4F2F4FFC
:101770003F4F9FBF322F212F102F0027080F111D21
:10178000211D311D42E0000F111F221F331F4A95FA
:10179000D1F7B801C9011F910F910895CF92DF923F
:1017A000EF92FF92CF93DF936B017C010E94A40B19
:1017B000EB010EC00E94A40B6C1B7D0B683E7340B6
:1017C00038F081E0C81AD108E108F108C851DC4FAF
:1017D000C114D104E104F10469F7DF91CF91FF90C6
:1017E000EF90DF90CF900895789484B5826084BDA7
:1017F00084B5816084BD85B5826085BD85B5816015
:1018000085BDEEE6F0E0808181608083E1E8F0E074
:101810001082808182608083808181608083E0E8A3
:10182000F0E0808181608083E1EBF0E08081846082
:101830008083E0EBF0E0808181608083EAE7F0E084
:1018400080818460808380818260808380818160E8
:1018500080838081806880831092C10008958330E6
:1018600069F028F48130A1F0823011F514C086307F
:10187000B1F08730C1F08430D9F404C08091800089
:101880008F7703C0809180008F7D809380000895C2
:1018900084B58F7702C084B58F7D84BD0895809113
:1018A000B0008F7703C08091B0008F7D8093B0002F
:1018B0000895CF93DF9390E0FC01E852FF4F4491ED
:1018C000FC01E451FF4F8491882341F190E0880F9F
:1018D000991FFC01E65FFE4F25913491D90180509C
:1018E0009F4FFC0185919491C82FD92F9FB7F894F1
:1018F0008C91611106C0409584238C938881842348
:1019000008C0623041F4242F209582238C93888173
:10191000842B888302C0842B8C939FBFDF91CF914F
:1019200008950F931F93CF93DF931F92CDB7DEB728
:10193000282F30E0F901EC53FF4F8491F901E85270
:10194000FF4F1491F901E451FF4F04910023D1F0AE
:10195000882321F069830E942F0C6981E02FF0E039
:10196000EE0FFF1FE050FF4F85919491DC019FB770
:10197000F8948C91611103C01095812301C0812BD3
:101980008C939FBF0F90DF91CF911F910F9108957E
:10199000FC0184859585FC01E05CFF4F208131814D
:1019A000FC01EE5BFF4F80819181281B390B2F7367
:1019B0003327C9010895FC0184859585FC01E05C0D
:1019C000FF4F40815181FC01EE5BFF4F208131814F
:1019D0004217530741F00190F081E02DE80FF91F05
:1019E000208130E002C02FEF3FEFC9010895FC01D4
:1019F00084859585FC01E05CFF4F40815181FC01AD
:101A0000EE5BFF4F208131814217530781F0A081A7
:101A1000B181A80FB91F8C91208131812F5F3F4F79
:101A20002F73332731832083282F30E002C02FEF1C
:101A30003FEFC9010895FC0186859785FC01E05CB4
:101A4000FF4FDC01AE5BBF4F408151812D913C9136
:101A5000119742175307C1F70895CF93DF93FC0105
:101A600086859785DC01A05CBF4F2D913C91119735
:101A70002F5F3F4F2F733327EC01CE5BDF4F488141
:101A8000598124173507D9F30D90BC91A02DA80FCB
:101A9000B91F6C93A685B785A05CBF4F11963C9388
:101AA0002E93A689B7892C9181E090E0058C02C025
:101AB000880F991F0A94E2F7282B2C9381E090E07D
:101AC000DF91CF91089508951F920F920FB60F9254
:101AD00011242F933F934F938F939F93EF93FF93F3
:101AE0004091C6008091CB079091CC0701968F73EF
:101AF00099272091CD073091CE078217930759F08F
:101B0000E091CB07F091CC07E557F84F40839093D5
:101B1000CC078093CB07FF91EF919F918F914F91CD
:101B20003F912F910F900FBE0F901F90189588E254
:101B300097E00E94C80C892B11F00C94630D089556
:101B40001F920F920FB60F9211242F933F938F93F2
:101B50009F93EF93FF93209187073091880780919F
:101B6000890790918A072817390731F48091C100BD
:101B70008F7D8093C10014C0E0918907F0918A079E
:101B8000E95BF84F20818091890790918A0701963F
:101B90008F73992790938A07809389072093C600B3
:101BA000FF91EF919F918F913F912F910F900FBED9
:101BB0000F901F901895CF92DF92EF92FF92CF93E4
:101BC000DF93EC016A017B01411581EE5807610545
:101BD0007105F9F0EC89FD8981E090E00E8C02C07E
:101BE000880F991F0A94E2F7808360E079E08DE323
:101BF00090E0A70196010E942D1021503109410962
:101C000051095695479537952795211580E1380755
:101C100098F0EC89FD89108260E874E88EE190E02C
:101C2000A70196010E942D10215031094109510947
:101C30005695479537952795E889F9893083EA893C
:101C4000FB892083EE89FF89408181E090E09C013F
:101C50000A8C02C0220F331F0A94E2F7422B408302
:101C6000EE89FF8940819C010B8C02C0220F331F3B
:101C70000A94E2F7422B4083EE89FF8940819C0160
:101C80000C8C02C0220F331F0A94E2F7422B4083D0
:101C9000EE89FF8920810D8C02C0880F991F0A945C
:101CA000E2F7809582238083DF91CF91FF90EF90C0
:101CB000DF90CF90089510922B0710922A0788EE9C
:101CC00093E0A0E0B0E080932C0790932D07A093C1
:101CD0002E07B0932F0788ED91E09093290780930A
:101CE00028078BE897E0909335078093340787E4C3
:101CF00097E0909337078093360785EC90E09093B8
:101D000039078093380784EC90E090933B078093E9
:101D10003A0780EC90E090933D0780933C0781EC7C
:101D200090E090933F0780933E0786EC90E090937D
:101D300041078093400784E08093420783E08093CB
:101D4000430787E08093440785E08093450781E05F
:101D50008093460708950E94F40B0E942705C7E967
:101D6000DDE00E94EF052097E1F30E94970DF9CF87
:101D7000CF92DF92EF92FF920F931F93CF93DF9357
:101D80006C01EB017A01E60EF71E00E010E00BC0DB
:101D90006991D601ED91FC910190F081E02DC60191
:101DA0000995080F191FCE15DF0591F7C801DF91BE
:101DB000CF911F910F91FF90EF90DF90CF900895FA
:101DC000DB010D900020E9F7AD0141505109461BA0
:101DD000570BDC01ED91FC910280F381E02D099419
:101DE0000C94E00EDC01ED91FC910190F081E02D6E
:101DF00009940F931F93CF93DF93EC016DE00E9442
:101E0000F20E8C016AE0CE010E94F20E9C01200FBE
:101E1000311FC901DF91CF911F910F9108950F9349
:101E20001F93CF93DF93EC010E94E00E8C01CE0153
:101E30000E94F90E9801280F391FC901DF91CF9137
:101E40001F910F9108954F925F926F927F929F9290
:101E5000AF92BF92CF92DF92EF92FF920F931F93B8
:101E6000CF93DF93CDB7DEB7A1970FB6F894DEBF5F
:101E70000FBECDBF5C016A017B01922E19A281E0E9
:101E8000821710F08AE0982E8E010F5D1F4F492CAB
:101E9000512C612C712CC701B601A30192010E9443
:101EA0002D108C2D929E80191124015011098A3019
:101EB00014F4805D01C0895CF801808369017A01B6
:101EC000C114D104E104F10431F7B801C5010E9445
:101ED000E00EA1960FB6F894DEBF0FBECDBFDF9126
:101EE000CF911F910F91FF90EF90DF90CF90BF9017
:101EF000AF909F907F906F905F904F9008952115C5
:101F0000310541F4DC01ED91FC910190F081E02D6F
:101F1000642F09940C94230F9A01462F50E060E03F
:101F200070E00C947F0F0F931F93CF93DF93EC011E
:101F30009A01462F50E060E070E00E947F0F8C0114
:101F4000CE010E94F90E9801280F391FC901DF91B7
:101F5000CF911F910F910895CF92DF92EF92FF9250
:101F60000F931F93CF93DF93EC016A017B0121153F
:101F7000310579F4E881F9810190F081E02D642F39
:101F8000DF91CF911F910F91FF90EF90DF90CF9055
:101F900009942A30310519F477FD0EC02AE0B70103
:101FA000A601CE01DF91CF911F910F91FF90EF908D
:101FB000DF90CF900C94230F6DE20E94F20E8C0103
:101FC00044275527BA014C195D096E097F092AE09B
:101FD000CE010E94230F080F191FC801DF91CF9176
:101FE0001F910F91FF90EF90DF90CF9008959A018D
:101FF000AB01662757FD6095762F0C94AC0F0F93BD
:102000001F93CF93DF93EC019A01AB01662757FD35
:102010006095762F0E94AC0F8C01CE010E94F90EC4
:102020009801280F391FC901DF91CF911F910F919E
:10203000089597FB072E16F4009407D077FD09D07A
:102040000E94551007FC05D03EF4909581959F4F56
:102050000895709561957F4F0895A1E21A2EAA1BED
:10206000BB1BFD010DC0AA1FBB1FEE1FFF1FA21748
:10207000B307E407F50720F0A21BB30BE40BF50B45
:10208000661F771F881F991F1A9469F760957095CE
:10209000809590959B01AC01BD01CF010895EE0F95
:1020A000FF1F0590F491E02D0994AA1BBB1B51E181
:1020B00007C0AA1FBB1FA617B70710F0A61BB70BB8
:1020C000881F991F5A95A9F780959095BC01CD015D
:1020D00008952F923F924F925F926F927F928F92CC
:1020E0009F92AF92BF92CF92DF92EF92FF920F93A7
:1020F0001F93CF93DF93CDB7DEB7CA1BDB0B0FB6B1
:10210000F894DEBF0FBECDBF09942A88398848886D
:102110005F846E847D848C849B84AA84B984C88403
:10212000DF80EE80FD800C811B81AA81B981CE0FFA
:10213000D11D0FB6F894DEBF0FBECDBFED010895DF
:10214000911106C080538A5010F0865C06C0089535
:1021500099278827089585FDFBCF80629111F8CFDC
:1021600081568A51E0F708959111F2CF803219F02B
:1021700089508550D0F70895FB01DC014150504053
:1021800030F08D910190801919F40020B9F7881B67
:10219000990B0895FC016150704001900110D8F72F
:1021A000809590958E0F9F1F08950F931F93CF9347
:1021B000DF938C01E091D507F091D607838181FFF1
:1021C0001BC0C0E0D0E005C00995892B11F0CFEF0E
:1021D000DFEFF80181918F016091D5077091D607EB
:1021E000DB011896ED91FC9119978111EDCF8AE0F2
:1021F0000995892B09F402C0CFEFDFEFCE01DF9103
:10220000CF911F910F910895AEE0B0E0EAE0F1E1C7
:102210000C94791085E08C838B899C899A838983BF
:10222000CE014796AC016D897E89CE0101960E9450
:10223000CB122E96E2E00C94951020FD09C0FC0113
:1022400023FD05C022FF02C0738362835183408354
:102250000895CF92DF92EF92FF920F931F9344FD68
:1022600010C046FD10C0DB01FC01AA0FBB1FEE1F12
:10227000FF1F1094D1F76A0F7B1F8E1F9F1F31E045
:1022800003C033E001C034E0660F771F881F991F39
:102290003150D1F76B017C01C20ED11CE11CF11C45
:1022A00097018601B601C9011F910F91FF90EF9030
:1022B000DF90CF9008950F931F93CF93DF938C01FE
:1022C000C8010E940414EC0197FD08C00E94B410DC
:1022D000892BB1F7B801CE010E944414CE01DF91E1
:1022E000CF911F910F9108958F929F92AF92CF92AD
:1022F000DF92EF92FF920F931F93CF93DF93EC0146
:10230000A62E4A01022F0E940414AC0155274B321D
:10231000510521F04D32510551F40068AA9411F491
:1023200080E063C0CE010E94041497FDF9CF102F06
:102330001D7F302F3073E1F48033D1F4AA9409F477
:1023400040C0CE010E94041497FD3BC0883711F0B5
:10235000883549F41264AA94A1F1CE010E940414B4
:1023600097FF06C02EC006FF02C0126001C01261B6
:10237000C12CD12C7601282F2053283080F014FF57
:1023800004C0BE010E94441419C02A3040F016FF58
:10239000F8CF2F7D322F3151363098F72750412F0B
:1023A000C701B6010E9429116B017C011260AA9439
:1023B00059F0CE010E94041497FFDDCF11FD04C037
:1023C000AFCFC12CD12C760117FF08C0F094E09458
:1023D000D094C094C11CD11CE11CF11C212FB70169
:1023E000A601C4010E941D1181E0DF91CF911F91D0
:1023F0000F91FF90EF90DF90CF90AF909F908F90D4
:1024000008956F927F929F92AF92BF92CF92DF9288
:10241000EF92FF920F931F93CF93DF93CDB7DEB769
:10242000A1970FB6F894DEBF0FBECDBF6C017A0145
:102430008901FE01319680E2DF011D928A95E9F75C
:10244000D60113969C9020E030E0A12CA0E0B12CA6
:10245000CF0141E050E0F80193FC759193FE71913A
:102460008F01711103C000E010E080C07E3519F4C7
:102470002115310559F1EB2DF0E0E217F3073CF49B
:102480007D3569F17D3219F4AA2319F103C0A11138
:1024900001C0A72EE72FE695E695E6953C016E0E66
:1024A000711CF301A72FA7703A0102C0660C771CBC
:1024B000AA95E2F7D301B081BA2BB0837A1559F00F
:1024C0007A1510F47F5FE6CF7150E4CFBB24B3944C
:1024D00003C0A1E001C0A0E02F5F3F4FBCCFAA2303
:1024E00019F08E8180628E83B11003C0BB24B39437
:1024F0000BC0FE013196CE0181962081209521935B
:10250000E817F907D1F7F2CFC60169A30E940414B6
:1025100069A197FD24C0282F269526952695E1E0F0
:10252000F0E0EC0FFD1FE20FF11D208130E0AC0167
:102530004770552702C0359527954A95E2F720FD4B
:1025400004C0B6010E9444140AC0E114F10419F059
:10255000D7018D937D016150B12CB1F602C0B1104D
:1025600082CFE114F10411F0F7011082C801A196A5
:102570000FB6F894DEBF0FBECDBFDF91CF911F9194
:102580000F91FF90EF90DF90CF90BF90AF909F9012
:102590007F906F9008954F925F927F928F929F925B
:1025A000AF92BF92CF92DF92EF92FF920F931F9361
:1025B000CF93DF931F92CDB7DEB78C012B017A0149
:1025C000FC0117821682A12CF0C08C2D90E00E9495
:1025D000B410892B21F0C8010E945B11E6C0F5E21E
:1025E000CF120AC0F201D3FC3591D3FE31912F01F5
:1025F000353271F455E2C52EC8010E94041497FDCE
:10260000DFC0C81609F4D1C0B8010E944414DAC072
:102610003A3241F4D3FC3591D3FE31912F01BB24E2
:10262000B39401C0B12C712C10C0F2E0BF2A672D09
:1026300070E080E090E040E20E942911762EF201E5
:10264000D3FC3591D3FE31912F01232F20532A3013
:1026500060F3B1FE03C0711003C0B4C077247A9454
:10266000383619F03C3699F40AC0F201D3FC3591A2
:10267000D3FE31912F01383651F4F8E0BF2A84E0BF
:10268000B82AF201D3FC3591D3FE31912F013323C7
:1026900009F498C0632F70E084E191E039830E94CF
:1026A000F9133981892B09F48DC0B0FC07C0F701FB
:1026B000C080D18082E0E80EF11C02C0C12CD12C78
:1026C0003E3651F4F8014681578160E070E02B2DD1
:1026D000C6010E941D1169C0333691F4B1FC02C0DD
:1026E00077247394C8010E94041497FD69C0C11433
:1026F000D10419F0F60181936F017A9499F753C0D0
:102700003B3559F49201A601672DC8010E940112C0
:102710002C01009709F047C041C0C80139830E94CD
:102720005B11398197FD4CC03F3659F128F434369E
:1027300029F1393649F52AC0333719F0353721F5F3
:102740001DC0C8010E9404144C0197FD11C00E94D5
:10275000B410892B29F0B801C4010E94441408C0A8
:10276000C114D10419F0F60181926F017A9449F7EE
:10277000C114D104C1F0F601108215C0F0E2BF2AE5
:1027800005C080E1B82A02C090E4B92A2B2DA60129
:10279000672DC8010E947411811105C0F801838161
:1027A000807371F40FC0B0FEA394F801D380F201DE
:1027B000D3FCC590D3FEC1902F01C11006CF02C03B
:1027C000AA2019F02A2D30E002C02FEF3FEFC901F7
:1027D0000F90DF91CF911F910F91FF90EF90DF90BD
:1027E000CF90BF90AF909F908F907F905F904F90D1
:1027F0000895FC010590061621F00020D9F7C001CC
:1028000008953197CF010895CF93DF93EC013B8179
:1028100030FF34C036FF0AC03F7B3B838E819F81EF
:1028200001969F838E832A8130E02AC032FF0FC039
:10283000E881F9818081992787FD9095009719F4A7
:1028400030623B831BC03196F983E8830EC0EA8572
:10285000FB85099597FF09C02B81019611F480E152
:1028600001C080E2822B8B8309C02E813F812F5FC4
:102870003F4F3F832E839C01332702C02FEF3FEF52
:10288000C901DF91CF910895FB01238120FF13C07F
:1028900026FD11C08F3F3FEF930769F082832F7DA4
:1028A0002064238326813781215031093783268391
:1028B0009C01332702C02FEF3FEFC9010895F89420
:0228C000FFCF48
:1028C2000000D907200043616C6C65642075736554
:1028D200722066756E6374696F6E2000207769746A
:1028E2006820617267733A20006469676974616C79
:1028F20057726974652070696E3A20002076616CA7
:102902003A200064656C61793A2000747275650042
:10291200256864256E007768696C650024756625F4
:10292200686875004661696C656420636F6E6469EE
:1029320074696F6E2E0066756E6374696F6E0049FE
:102942006E697469616C697A696E672E2E2E004415
:102952006F776E6C6F6164656420002062797465C4
:10296200732E00467265652052414D3A00457272DF
:102972006F7220636F6D70696C696E672E0053759C
:10298200636365737320636F6D70696C696E672E24
:1029920000307800000000002D0DB80EC80CF70CB6
:0429A200DB0C1B0D22
:00000001FF
