:100000000C9469000C9491000C9491000C94910054
:100010000C9491000C9491000C9491000C9491001C
:100020000C9491000C9491000C9491000C9491000C
:100030000C9491000C9491000C9491000C949100FC
:100040000C94AE0C0C9491000C94010A0C943D0A93
:100050000C9491000C9491000C9491000C949100DC
:100060000C9491000C9491000F05130517051F05C2
:10007000230528052F0536053A053E0542054605A8
:100080004E05520557052109210921092109210998
:100090002109210921092109210921092109210910
:1000A0002109210921092109210921092109210900
:1000B00021092109210921095D0564056B057205E6
:1000C000790580056364696E6F70737578585B009D
:1000D000F80A11241FBECFEFD8E0DEBFCDBF11E07C
:1000E000A0E0B1E0E0EEF2E202C005900D92A63E83
:1000F000B107D9F716E0A6EEB1E001C01D92AB3A08
:10010000B107E1F710E0C2EDD0E004C02297FE0194
:100110000E946B0DC03DD107C9F70E94480B0C949B
:100120006E110C940000EF92FF920F931F93CF93E8
:10013000DF93C82FE62E8A0168E071E085EF95E035
:100140000E948D0B4AE050E06C2F85EF95E00E94F5
:10015000290C6EE171E085EF95E00E948D0B4AE07D
:1001600050E06E2D85EF95E00E94300CE80100E034
:1001700010E0F12C0AC0699179914AE050E085EFD6
:1001800095E00E94940C0F5F1F4F0E151F059CF306
:1001900080E090E0DF91CF911F910F91FF90EF9061
:1001A00008959C01260F311D2115344068F4FC018F
:1001B000EB50FE4F662329F08181308120E0282B0F
:1001C00005C0208130E002C020E030E0C901089580
:1001D0009C01240F311D2115344048F4FC01EB50E3
:1001E000FE4F442319F0708361830895608308955E
:1001F0009091F401E92FF0E0EB50FE4F80839F5F78
:100200009093F40108952F923F924F925F926F92D4
:100210007F928F929F92AF92BF92CF92DF92EF9296
:10022000FF920F931F93CF93DF9300D000D000D0A5
:10023000CDB7DEB76C011B0188248394912C8C0E02
:100240009D1E9E012D5F3F4F3D832C8377C158013A
:100250000F5F1F4FF5018081992787FD90950E94C0
:10026000CE0D892B09F476C1FFEFCF1ADF0A6DC1DD
:1002700086010B5F1F4FF701E00FF11F7080872D84
:10028000992787FD90950E94BA0D892B09F06CC1C2
:1002900024E2721609F468C1F701E00FF11FD08063
:1002A0008D2D992787FD90950E94CE0D892B09F4FD
:1002B00061C10F5F1F4FF0CF0F5F1F4F0E0D1F1D4E
:1002C0006801CE18DF0858010F5F1F4FF5018081CC
:1002D000992787FD90950E94CE0D892B89F744E0E0
:1002E00050E0B5018BE491E00E94D60D009791F4A7
:1002F00086010C5F1F4FF701E00FF11FF0808F2D7B
:10030000992787FD90950E94BA0D892B19F4F4E284
:10031000FF1235C186EA0E94F80084E00E94F800CE
:10032000E0900601F0900701CE0CDF1C86010E194B
:100330001F09F601B1906F018B2D992787FD9095CC
:100340000E94CE0D892B91F7F9E2BF122FC10F5FEA
:100350001F4FF701E00FF11FD0808D2D992787FDEA
:1003600090950E94CE0D892B09F40EC1F0CF0F5F3E
:100370001F4FF701E00FF11FD0808D2D992787FDCA
:1003800090950E94CE0D892B09F403C1F0CF68012E
:100390002FEFC21AD20A80EA0E94F8008DEFC9C07E
:1003A00082010C0D1D1DF30121913F01822F992720
:1003B00087FD90952E830E94BA0D2E81892B09F01E
:1003C000EDC0243209F4EAC0452809F4B5C067013C
:1003D000C00ED11E86010E191F09F60171906F0122
:1003E000872D992787FD90950E94CE0D892B91F737
:1003F000F8E27F12DBC00F5F1F4F512C51C07F010D
:1004000087010619170967012FEFE21AF20AF601B0
:100410008081992787FD90950E94CE0D892B81F7C9
:100420001A8219829F928F92FD81FF932C812F93C4
:1004300080E591E09F938F93DF92CF920E94130EFD
:100440000FB6F894DEBF0FBECDBF892BA1F18B8113
:10045000883010F4805704C088E90E94F8008B812E
:100460000E94F8005394C0900601D0900701E980E3
:10047000FA80E00EF11EEC0CFD1C87010C191D0921
:10048000F70171907F01872D992787FD90950E9434
:10049000CE0D892B91F7FCE27F120DC00F5F1F4F2D
:1004A0006090060170900701F301E00FF11F808159
:1004B000893209F0A4CF88E90E94F800852D0E94B6
:1004C000F800E0900601F0900701F701E00FF11F3E
:1004D0008081893209F06AC00F5F1F4FF701E00F7A
:1004E000F11FD0808D2D992787FD90950E94CE0D0C
:1004F000892B09F457C0F0CF68012FEFC21AD20A36
:100500009F928F928BE291E09F938F93BF92AF92D5
:100510000E94130E0F900F900F900F900F900F905E
:10052000181619062CF489818F7080550E94F800E6
:100530008DE90E94F80002C0C8013DC0E0900601AC
:10054000F090070187010C0D1D1DC214D30408F49F
:100550007ECE31C045E050E0B50183E391E00E94DA
:10056000D60D009709F484CE37016C0C7D1C412C0C
:10057000512C16CFF8E2DF1609F49ECE17C081E9A0
:100580000E94F8006801C6CE2BE7D21609F4EFCE20
:100590000DC03DE7D31609F4FACE08C08FEF481A14
:1005A000580AFECE9BE3D91609F4A6CF89E391E061
:1005B0000E94E40DC1CF26960FB6F894DEBF0FBEA1
:1005C000CDBFDF91CF911F910F91FF90EF90DF9002
:1005D000CF90BF90AF909F908F907F906F905F90E3
:1005E0004F903F902F900895AF92BF92CF92DF929D
:1005F000EF92FF920F931F93CF93DF93EC016B0168
:1006000073C057018FEFE81AF80AF5018081992726
:1006100087FD90950E94CE0D892B09F471C021961B
:100620006AC07E01F8E0EF0EF11CF801EE0DFF1D2F
:10063000B0808B2D992787FD90950E94BA0D892B4C
:1006400009F073C084E2B81609F46FC0E801CE0D5A
:10065000DF1D8881992787FD90950E94CE0D892BFB
:1006600021F0EFEFEE1AFE0AF1CF7E01E01AF10A57
:10067000B9908B2D992787FD90950E94BA0D892BF3
:10068000A1F7F4E2BF1689F3E801CE0DDF1D7E016C
:10069000E01AF10A8991992787FD90950E94CE0D65
:1006A000892BA9F738C0F801EC0FFD1FF0808F2DC2
:1006B000992787FD90950E94CE0D892B79F121967F
:1006C000F2CFB601CE0101960E940301EC01E09148
:1006D0000601F0910701E80FF91F80818D3709F5B8
:1006E00021968CE90E94F800009106011091070103
:1006F0007801EC0EFD1ECC15DD0508F482CF15C087
:1007000048E050E0B50187E591E00E94D60D0097E2
:1007100009F487CF0AC0E7012296C5CF8BE7F81608
:1007200081F289E391E00E94E40DCE01DF91CF9147
:100730001F910F91FF90EF90DF90CF90BF90AF90FF
:100740000895CF93DF93E0910601F0910701EF0147
:1007500009900020E9F72197CE1BDF0BBE0180E056
:1007600090E00E94F40221E030E08C179D0711F028
:1007700020E030E0C901DF91CF910895CF93DF935E
:1007800040E855E260E070E085EF95E00E94780A6D
:1007900060E671E085EF95E00E94AC0BC0E0D4E02C
:1007A000E5EFF1E0DF01CE011D920197E9F70E942C
:1007B000A1031092E7011092E601D093EB01C093E0
:1007C000EA01D093E901C093E80181ED90E09093B4
:1007D000EF018093EE0188EE90E09093F101809319
:1007E000F00183E990E09093F3018093F201DF91AF
:1007F000CF91089586EE91E00C945104CF93DF934E
:10080000EC014E815F81E885F98561E08A819B81F9
:1008100009952A813B812E5F3F4F3B832A83DF91DD
:10082000CF910895FC018281938102979383828303
:10083000268137810284F385E02D41E00994FC0193
:100840002481358182E0680220193109112467FF73
:1008500003C082E090E002C08EEF9FEF4681578197
:100860000084F185E02D61E0820F931F0994FC0163
:10087000862FBA01A481B58192E08902A019B1093D
:10088000112487FF03C082E090E002C08EEF9FEF4B
:10089000268137810284F385E02D41E08A0F9B1F7A
:1008A00009942F923F924F925F926F927F928F9214
:1008B0009F92AF92BF92CF92DF92EF92FF920F93EF
:1008C0001F93CF93DF9300D000D0CDB7DEB78C015C
:1008D0008DB69EB6DC0116964D915C9117971896D1
:1008E000ED91FC91199760E08D919C9109956C01B7
:1008F0007C01FF24BDE9EB16F10409F483C19CF5EA
:10090000FFE8EF16F104B4F42CE8E216F1040CF061
:1009100076C030E8E316F1040CF06CC0BC016F73D4
:10092000772780E2C822DD2490E4E916F1040CF078
:1009300051C048C0A9E9EA16F10409F408C15CF401
:10094000E0E9EE16F1040CF4A4C4F8E9EF16F104A2
:100950000CF4DFC0EAC02BE9E216F10409F42AC165
:100960000CF02DC10FC18FEAE816F10409F416C28C
:10097000CCF4A8EAEA16F10484F4B0EAEB16F10428
:100980000CF084C1EEE9EE16F10409F43FC1FFE971
:10099000EF16F10409F07DC474C12EEAE216F104E9
:1009A0004CF1F8C130EFE316F10434F480ECE816B2
:1009B000F1040CF03FC2F9C198EFE916F1040CF410
:1009C00034C447C4CD2811F0606C7F6FC8010E9409
:1009D0001F043CC07B01CD2821F0B0ECEB2AFF24A2
:1009E000FA94C8010E94FE03AC016E2DC8010E945A
:1009F000370449C4C8010E94FE036C0102C0C12C27
:100A0000D12CC8010E94FE03F701E058F109EE3233
:100A1000F10508F016C4EC5CFF4F0C94690DBC01A5
:100A20006C0D7D1DBEC1BC016C197D09BAC18C9DC8
:100A3000B0018D9D700D9C9D700D1124B2C1B60149
:100A40000E94330DAEC1B6010E94330DBC01A9C195
:100A5000BC0102C0660F771FCA94E2F7A2C1BC01B5
:100A600002C075956795CA94E2F79BC1BC016C21E1
:100A70007D2197C1BC016C297D2993C1BC016C25E6
:100A80007D258FC1892B39F061E003C061E0892B9E
:100A900019F4CD2809F460E070E083C1BC016095D1
:100AA00070957FC166277727681B790B7AC161E053
:100AB00070E0892B09F475C129C061E070E08C15E4
:100AC0009D050CF46EC122C061E070E0C816D90625
:100AD0000CF067C11BC061E070E08C159D0509F446
:100AE00060C114C061E070E08C159D0509F059C12A
:100AF0000DC061E070E08C159D050CF052C106C080
:100B000061E070E0C816D9060CF44BC160E070E0FB
:100B100048C1BC016770772782FF02C0686F7F6F92
:100B200062FFAEC3686F7F6FABC3D80116964D915D
:100B30005C9117978D919C9111971896ED91FC916E
:100B4000199760E0019609959927BC0113C0D80157
:100B500016964D915C9117978D919C9111971896CF
:100B6000ED91FC91199760E001960995BC017727FA
:100B700087FD7F6FC8010E941204F8018081918176
:100B8000029685C3D80116964D915C9117978D9169
:100B90009C9111971896ED91FC91199761E001963F
:100BA0000995BC01C8010E941204F801808191815D
:100BB00003966DC3C8010E94FE037C0102C0E12CB4
:100BC000F12CD80114968D919C91159713969C93B6
:100BD0008E931297C8010E94FE03F80191838083CF
:100BE000C8010E94FE03D80115969C938E9314971A
:100BF00080FF06C08E7F15969C938E93149749C3F1
:100C0000B701A6C2C8010E94FE033DC3C8010E94ED
:100C1000FE037C01D80116964D915C9117978D913A
:100C20009C9111971896ED91FC91199760E00196AF
:100C30000995F801648175818D39910551F46160E0
:100C4000C8010E941204D8016D917C916E5F7F4FA4
:100C500008C0C8010E941204F801608171816F5FB1
:100C60007F4FC8010E941204D80112968D919C9169
:100C7000139715969C938E931497EC921196FC9271
:100C800008C3C8010E94FE03F80101C3D8011696EB
:100C90004D915C911797AD90BC9011971896ED917E
:100CA000FC911997C0FC13C060E0C501019609953D
:100CB0006C01DD2487FF02C0DD24DA94CA0CDB1C42
:100CC000F801808191810296918380830EC061E05A
:100CD000C501019609956C01CA0CDB1CD8018D91E8
:100CE0009C91119703968D939C93B6EAEB16F104B1
:100CF00054F4E4EAEE16F104CCF5F2EAEF16F1044E
:100D00000CF444C005C028EAE216F104CCF13EC060
:100D1000F801468157810084F185E02D60E0D8011B
:100D20008D919C910995F801648175818D399105AA
:100D300051F46160C8010E941204D8016D917C9148
:100D40006F5F7F4F06C0C8010E941204F8016081E6
:100D50007181C8010E941204D80112968D919C9154
:100D6000139715969C938E93149711C0C8010E94F7
:100D7000FE03892B09F48DC2F801D182C08289C299
:100D8000C8010E94FE03892B09F083C2D801CD92CD
:100D9000DC927FC2F8016281738103C0F801648133
:100DA0007581C8010E9412044CC24DB65EB6C801DE
:100DB0000E94FE03682F3C017724C301880F991F0E
:100DC000EDB7FEB7E81BF90B0FB6F894FEBF0FBEE8
:100DD000EDBF2DB73EB72F5F3F4FA9017901A12C81
:100DE000B12C10C0C8014B835C836A830E94FE0350
:100DF000D7018D939D937D01BFEFAB1ABB0A6A812A
:100E00005C814B81A614B7046CF3F801268137810D
:100E10000484F585E02D8C2D805B0995BC01C8010B
:100E20000E941204842D952D0FB6F8949EBF0FBE1C
:100E30008DBF07C2B7E0CB22DD2463E0F594E794D1
:100E40006A95E1F7E5E0CE16D10409F056C03DB64B
:100E50002EB6F7E0EF22FF24C7010196880F991FF5
:100E60002DB73EB7281B390B0FB6F8943EBF0FBE07
:100E70002DBFCDB6DEB68FEFC81AD80A5601612C49
:100E8000712C0AC0C8010E94FE03D5018D939D9369
:100E90005D01BFEF6B1A7B0AE614F7049CF7F601BD
:100EA000A080B180B501C8010E9412046E2C660CAE
:100EB00077086C0C7D1C412C512CC12CD12C0EC000
:100EC000F301E40DF51D60817181C8010E941204D7
:100ED000FFEFCF1ADF0A22E0421A5108EC10F0CFE0
:100EE000B501C8010E941204D8018D919C911197FF
:100EF00001968D939C93910166C0B6E0CB16D10408
:100F000009F069C02DB6EEB7E983F7E0EF22FF24C0
:100F10003E2C2FEFE21AF20AC7010196880F991FA3
:100F2000ADB7BEB7A81BB90B0FB6F894BEBF0FBEC6
:100F3000ADBFADB6BEB6EFEFAE1ABE0A6501612C0D
:100F4000712C0AC0C8010E94FE03D6018D939D93A7
:100F50006D01BFEF6B1A7B0AE614F7049CF7832D33
:100F60008F5F6501C80ED11CC80ED11C412C512CBD
:100F7000612C712C21E0F601E40DF51D32976081A2
:100F80007181C8012A830E941204EFEF6E1A7E0A53
:100F9000F2E04F1A51082A81822F8619830D59F7E2
:100FA000F701EE0FFF1FEA0DFB1D60817181C80183
:100FB0000E941204D8018D919C91119701968D93F6
:100FC0009C93322D2981832F922F0FB6F8949EBFC8
:100FD0000FBE8DBF5EC1B7E0EB22FF24C7010497AF
:100FE000BB24B394029708F0B12CE2E0CE16D104F2
:100FF00009F440C044F4C114D10479F0CA94CD2856
:1010000009F07CC020C033E0C316D104E9F184E0CC
:10101000C816D10409F072C053C0D80116964D917C
:101020005C9117978D919C9111971896ED91FC9179
:10103000199760E0019609956C01DD24F801808123
:101040009181029614C0D80116964D915C91179724
:101050008D919C9111971896ED91FC91199761E0F3
:10106000019609956C01F801808191810396918325
:10107000808346C0C8010E94FE036C01D8018D9197
:101080009C911197019637C0C8010E94FE036C0124
:1010900002C0CC0CDD1CBA94E2F7F80146815781FE
:1010A000808191810084F185E02D60E001960995B1
:1010B000C80ED11CD8018D919C91119702961BC02E
:1010C000C8010E94FE036C0102C0CC0CDD1CBA9466
:1010D000E2F7F80146815781808191810084F18592
:1010E000E02D61E001960995C80ED91ED8018D91B9
:1010F0009C91119703968D939C9302C0C12CD12C87
:10110000B2E0EB16F104E9F144F4E114F10491F0DA
:10111000EA94EF2809F0BDC046C024E0E216F104CD
:1011200009F44CC00CF43FC085E0E816F10409F066
:10113000B0C051C0D80116964D915C911797189682
:10114000ED91FC91199760E0C60109959927BC01C2
:10115000C8010F900F900F900F90DF91CF911F91CA
:101160000F91FF90EF90DF90CF90BF90AF909F9046
:101170008F907F906F905F904F903F902F900C9446
:101180001204D80116964D915C9117971896ED911F
:10119000FC91199760E0C6010995BC01772787FF8C
:1011A000D7CF7F6FD5CFF801E284F384A680B780D4
:1011B000C8010E94FE03950140E017C0D8011696B1
:1011C0004D915C9117971896ED91FC91199761E0FC
:1011D000C6010995BCCFF801E284F384A680B780EC
:1011E000C8010E94FE03950141E0BC01C601F70160
:1011F0000F900F900F900F90DF91CF911F910F9153
:10120000FF90EF90DF90CF90BF90AF909F908F9026
:101210007F906F905F904F903F902F90099460E087
:1012200070E0C8010E94120405C0E12CF12CF7E027
:10123000CF22DD24C7012FEFE21AF20AC816D90621
:1012400074F7D8018D919C91119701968D939C9381
:1012500020C0C8010E94FE03B7E0CB22DD24EFEFDF
:10126000CE1ADE0ACC0CDD1CD80112962D913C91D1
:1012700013972C0D3D1D13963C932E931297BC0192
:10128000C8010E941204F801808191810196918326
:1012900080830FB6F8949EBE0FBE8DBE0F900F9048
:1012A0000F900F90DF91CF911F910F91FF90EF90D2
:1012B000DF90CF90BF90AF909F908F907F906F9076
:1012C0005F904F903F902F900895FC018485958505
:1012D000FC01E05CFF4F20813181FC01EE5BFF4FA0
:1012E00080819181281B390B2F733327C901089501
:1012F000FC0184859585FC01E05CFF4F40815181B4
:10130000FC01EE5BFF4F208131814217530741F012
:101310000190F081E02DE80FF91F208130E002C03C
:101320002FEF3FEFC9010895FC0184859585FC01ED
:10133000E05CFF4F40815181FC01EE5BFF4F20815B
:1013400031814217530781F0A081B181A80FB91FE5
:101350008C91208131812F5F3F4F2F733327318351
:101360002083282F30E002C02FEF3FEFC9010895FE
:10137000FC0186859785FC01E05CFF4FDC01AE5BDC
:10138000BF4F408151812D913C91119742175307D6
:10139000C1F70895CF93DF93FC0186859785DC0123
:1013A000A05CBF4F2D913C9111972F5F3F4F2F7342
:1013B0003327EC01CE5BDF4F488159812417350775
:1013C000D9F30D90BC91A02DA80FB91F6C93A685E1
:1013D000B785A05CBF4F11963C932E93A689B78921
:1013E0002C9181E090E0058C02C0880F991F0A942F
:1013F000E2F7282B2C9381E090E0DF91CF910895C4
:1014000008951F920F920FB60F9211242F933F93BE
:101410004F938F939F93EF93FF934091C6008091DA
:1014200098069091990601968F73992720919A06B4
:1014300030919B068217930759F0E0919806F0913E
:101440009906E85AF94F408390939906809398063D
:10145000FF91EF919F918F914F913F912F910F901D
:101460000FBE0F901F90189585EF95E00E946509BB
:10147000892B11F00C94000A08951F920F920FB659
:101480000F9211242F933F938F939F93EF93FF938A
:10149000209154063091550680915606909157063A
:1014A0002817390731F48091C1008F7D8093C100E6
:1014B00014C0E0915606F0915706EC5EF94F20817A
:1014C000809156069091570601968F7399279093B5
:1014D0005706809356062093C600FF91EF919F9187
:1014E0008F913F912F910F900FBE0F901F901895E5
:1014F000CF92DF92EF92FF92CF93DF93EC016A01DC
:101500007B01411581EE580761057105F9F0EC8901
:10151000FD8981E090E00E8C02C0880F991F0A942B
:10152000E2F7808360E079E08DE390E0A701960127
:101530000E94470D2150310941095109569547959F
:1015400037952795211580E1380798F0EC89FD89BA
:10155000108260E874E88EE190E0A70196010E9495
:10156000470D215031094109510956954795379545
:101570002795E889F9893083EA89FB892083EE89F8
:10158000FF89408181E090E09C010A8C02C0220F1B
:10159000331F0A94E2F7422B4083EE89FF89408192
:1015A0009C010B8C02C0220F331F0A94E2F7422BDE
:1015B0004083EE89FF8940819C010C8C02C0220F80
:1015C000331F0A94E2F7422B4083EE89FF89208182
:1015D0000D8C02C0880F991F0A94E2F78095822330
:1015E0008083DF91CF91FF90EF90DF90CF900895AF
:1015F0001092F8051092F70588EE93E0A0E0B0E0B5
:101600008093F9059093FA05A093FB05B093FC0530
:1016100089ED91E09093F6058093F50588E596E0D5
:10162000909302068093010684E196E0909304066D
:101630008093030685EC90E0909306068093050660
:1016400084EC90E0909308068093070680EC90E08D
:1016500090930A068093090681EC90E090930C0623
:1016600080930B0686EC90E090930E0680930D0617
:1016700084E080930F0683E08093100687E08093D8
:10168000110685E08093120681E080931306089589
:101690000E94F80C0E94BE03C4E3DAE00E94FA0341
:1016A0002097E1F30E94340AF9CFCF92DF92EF92B4
:1016B000FF920F931F93CF93DF936C01EB017A019D
:1016C000E60EF71E00E010E00BC06991D601ED9127
:1016D000FC910190F081E02DC6010995080F191FBA
:1016E000CE15DF0591F7C801DF91CF911F910F91C2
:1016F000FF90EF90DF90CF900895DB010D900020D8
:10170000E9F7AD0141505109461B570BDC01ED9142
:10171000FC910280F381E02D09940C947D0BDC0197
:10172000ED91FC910190F081E02D09940F931F93AE
:10173000CF93DF93EC016DE00E948F0B8C016AE088
:10174000CE010E948F0B9C01200F311FC901DF9138
:10175000CF911F910F9108950F931F93CF93DF9314
:10176000EC010E947D0B8C01CE010E94960B98012A
:10177000280F391FC901DF91CF911F910F91089553
:101780004F925F926F927F929F92AF92BF92CF9251
:10179000DF92EF92FF920F931F93CF93DF93CDB71A
:1017A000DEB7A1970FB6F894DEBF0FBECDBF5C01C8
:1017B0006A017B01922E19A281E0821710F08AE063
:1017C000982E8E010F5D1F4F492C512C612C712CCE
:1017D000C701B601A30192010E94470D8C2D929E74
:1017E00080191124015011098A3014F4805D01C060
:1017F000895CF801808369017A01C114D104E10494
:10180000F10431F7B801C5010E947D0BA1960FB616
:10181000F894DEBF0FBECDBFDF91CF911F910F9126
:10182000FF90EF90DF90CF90BF90AF909F907F9010
:101830006F905F904F9008952115310541F4DC01C0
:10184000ED91FC910190F081E02D642F09940C94AE
:10185000C00B9A01462F50E060E070E00C941C0C25
:101860000F931F93CF93DF93EC019A01462F50E023
:1018700060E070E00E941C0C8C01CE010E94960B6F
:101880009801280F391FC901DF91CF911F910F9146
:101890000895CF92DF92EF92FF920F931F93CF9311
:1018A000DF93EC016A017B012115310579F4E881B0
:1018B000F9810190F081E02D642FDF91CF911F918C
:1018C0000F91FF90EF90DF90CF9009942A3031056F
:1018D00019F477FD0EC02AE0B701A601CE01DF9111
:1018E000CF911F910F91FF90EF90DF90CF900C94CC
:1018F000C00B6DE20E948F0B8C0144275527BA0163
:101900004C195D096E097F092AE0CE010E94C00BC7
:10191000080F191FC801DF91CF911F910F91FF9000
:10192000EF90DF90CF9008950F931F93CF93DF93A5
:10193000EC019A01AB01662757FD6095762F0E9456
:10194000490C8C01CE010E94960B9801280F391F7B
:10195000C901DF91CF911F910F9108951F920F92AE
:101960000FB60F9211242F933F938F939F93AF93B2
:10197000BF9380919C0690919D06A0919E06B09188
:101980009F063091A406232F2D5F2D3720F401965A
:10199000A11DB11D05C0232F2A570296A11DB11DFF
:1019A0002093A40680939C0690939D06A0939E0688
:1019B000B0939F068091A0069091A106A091A206E7
:1019C000B091A3060196A11DB11D8093A00690932E
:1019D000A106A093A206B093A306BF91AF919F91D9
:1019E0008F913F912F910F900FBE0F901F901895E0
:1019F000789484B5826084BD84B5816084BD85B5EA
:101A0000826085BD85B5816085BDEEE6F0E08081B0
:101A100081608083E1E8F0E01082808182608083D1
:101A2000808181608083E0E8F0E080818160808354
:101A3000E1EBF0E0808184608083E0EBF0E0808186
:101A400081608083EAE7F0E0808184608083808128
:101A500082608083808181608083808180688083D0
:101A60001092C100089597FB072E16F4009407D03A
:101A700077FD09D00E946F0D07FC05D03EF49095CC
:101A800081959F4F0895709561957F4F0895A1E2CC
:101A90001A2EAA1BBB1BFD010DC0AA1FBB1FEE1FE8
:101AA000FF1FA217B307E407F50720F0A21BB30B33
:101AB000E40BF50B661F771F881F991F1A9469F7AF
:101AC00060957095809590959B01AC01BD01CF010B
:101AD0000895EE0FFF1F0590F491E02D0994AA1BC5
:101AE000BB1B51E107C0AA1FBB1FA617B70710F009
:101AF000A61BB70B881F991F5A95A9F7809590953B
:101B0000BC01CD0108952F923F924F925F926F9248
:101B10007F928F929F92AF92BF92CF92DF92EF927D
:101B2000FF920F931F93CF93DF93CDB7DEB7CA1BFE
:101B3000DB0B0FB6F894DEBF0FBECDBF09942A8829
:101B4000398848885F846E847D848C849B84AA84D1
:101B5000B984C884DF80EE80FD800C811B81AA815E
:101B6000B981CE0FD11D0FB6F894DEBF0FBECDBF29
:101B7000ED010895911106C080538A5010F0865CE3
:101B800006C0089599278827089585FDFBCF8062B8
:101B90009111F8CF81568A51E0F708959111F2CF53
:101BA000803219F089508550D0F70895FB01DC018F
:101BB0004150504030F08D910190801919F400206F
:101BC000B9F7881B990B08950F931F93CF93DF9359
:101BD0008C01E091A706F091A806838181FF1BC0CC
:101BE000C0E0D0E005C00995892B11F0CFEFDFEF01
:101BF000F80181918F016091A7067091A806DB0121
:101C00001896ED91FC9119978111EDCF8AE0099515
:101C1000892B09F402C0CFEFDFEFCE01DF91CF9126
:101C20001F910F910895AEE0B0E0E9E1FEE00C9461
:101C3000930D85E08C838B899C899A838983CE015F
:101C40004796AC016D897E89CE0101960E94DA0F1C
:101C50002E96E2E00C94AF0D20FD09C0FC0123FD9F
:101C600005C022FF02C073836283518340830895BD
:101C7000CF92DF92EF92FF920F931F9344FD10C01B
:101C800046FD10C0DB01FC01AA0FBB1FEE1FFF1FAA
:101C90001094D1F76A0F7B1F8E1F9F1F31E003C086
:101CA00033E001C034E0660F771F881F991F315061
:101CB000D1F76B017C01C20ED11CE11CF11C970114
:101CC0008601B601C9011F910F91FF90EF90DF903F
:101CD000CF9008950F931F93CF93DF938C01C8018A
:101CE0000E941311EC0197FD08C00E94CE0D892BB4
:101CF000B1F7B801CE010E945311CE01DF91CF910F
:101D00001F910F9108958F929F92AF92CF92DF9281
:101D1000EF92FF920F931F93CF93DF93EC01A62EC8
:101D20004A01022F0E941311AC0155274B32510575
:101D300021F04D32510551F40068AA9411F480E06D
:101D400063C0CE010E94131197FDF9CF102F1D7FA4
:101D5000302F3073E1F48033D1F4AA9409F440C0F9
:101D6000CE010E94131197FD3BC0883711F08835D2
:101D700049F41264AA94A1F1CE010E94131197FFB5
:101D800006C02EC006FF02C0126001C01261C12C45
:101D9000D12C7601282F2053283080F014FF04C066
:101DA000BE010E94531119C02A3040F016FFF8CF2F
:101DB0002F7D322F3151363098F72750412FC701F0
:101DC000B6010E94380E6B017C011260AA9459F092
:101DD000CE010E94131197FFDDCF11FD04C0AFCFDC
:101DE000C12CD12C760117FF08C0F094E094D09458
:101DF000C094C11CD11CE11CF11C212FB701A6010C
:101E0000C4010E942C0E81E0DF91CF911F910F91B0
:101E1000FF90EF90DF90CF90AF909F908F900895BC
:101E20006F927F929F92AF92BF92CF92DF92EF928A
:101E3000FF920F931F93CF93DF93CDB7DEB7A19798
:101E40000FB6F894DEBF0FBECDBF6C017A018901D9
:101E5000FE01319680E2DF011D928A95E9F7D601F5
:101E600013969C9020E030E0A12CA0E0B12CCF0193
:101E700041E050E0F80193FC759193FE71918F0160
:101E8000711103C000E010E080C07E3519F4211507
:101E9000310559F1EB2DF0E0E217F3073CF47D3505
:101EA00069F17D3219F4AA2319F103C0A11101C00F
:101EB000A72EE72FE695E695E6953C016E0E711C80
:101EC000F301A72FA7703A0102C0660C771CAA95F0
:101ED000E2F7D301B081BA2BB0837A1559F07A15A5
:101EE00010F47F5FE6CF7150E4CFBB24B39403C0FE
:101EF000A1E001C0A0E02F5F3F4FBCCFAA2319F0A3
:101F00008E8180628E83B11003C0BB24B3940BC05A
:101F1000FE013196CE018196208120952193E8170C
:101F2000F907D1F7F2CFC60169A30E94131169A185
:101F300097FD24C0282F269526952695E1E0F0E010
:101F4000EC0FFD1FE20FF11D208130E0AC01477066
:101F5000552702C0359527954A95E2F720FD04C024
:101F6000B6010E9453110AC0E114F10419F0D7011F
:101F70008D937D016150B12CB1F602C0B11082CFBA
:101F8000E114F10411F0F7011082C801A1960FB617
:101F9000F894DEBF0FBECDBFDF91CF911F910F919F
:101FA000FF90EF90DF90CF90BF90AF909F907F9089
:101FB0006F9008954F925F927F928F929F92AF920F
:101FC000BF92CF92DF92EF92FF920F931F93CF9326
:101FD000DF931F92CDB7DEB78C012B017A01FC0194
:101FE00017821682A12CF0C08C2D90E00E94CE0D9D
:101FF000892B21F0C8010E946A0EE6C0F5E2CF12DB
:102000000AC0F201D3FC3591D3FE31912F01353254
:1020100071F455E2C52EC8010E94131197FDDFC06F
:10202000C81609F4D1C0B8010E945311DAC03A327F
:1020300041F4D3FC3591D3FE31912F01BB24B394ED
:1020400001C0B12C712C10C0F2E0BF2A672D70E0E6
:1020500080E090E040E20E94380E762EF201D3FC40
:102060003591D3FE31912F01232F20532A3060F375
:10207000B1FE03C0711003C0B4C077247A9438361F
:1020800019F03C3699F40AC0F201D3FC3591D3FE25
:1020900031912F01383651F4F8E0BF2A84E0B82A94
:1020A000F201D3FC3591D3FE31912F01332309F492
:1020B00098C0632F70E084EC90E039830E9408118F
:1020C0003981892B09F48DC0B0FC07C0F701C080AD
:1020D000D18082E0E80EF11C02C0C12CD12C3E362A
:1020E00051F4F8014681578160E070E02B2DC60164
:1020F0000E942C0E69C0333691F4B1FC02C07724E3
:102100007394C8010E94131197FD69C0C114D104D2
:1021100019F0F60181936F017A9499F753C03B351A
:1021200059F49201A601672DC8010E94100F2C01DD
:10213000009709F047C041C0C80139830E946A0E68
:10214000398197FD4CC03F3659F128F4343629F1D6
:10215000393649F52AC0333719F0353721F51DC016
:10216000C8010E9413114C0197FD11C00E94CE0DB1
:10217000892B29F0B801C4010E94531108C0C11471
:10218000D10419F0F60181926F017A9449F7C114D4
:10219000D104C1F0F601108215C0F0E2BF2A05C0DB
:1021A00080E1B82A02C090E4B92A2B2DA601672D40
:1021B000C8010E94830E811105C0F80183818073DC
:1021C00071F40FC0B0FEA394F801D380F201D3FCE8
:1021D000C590D3FEC1902F01C11006CF02C0AA2026
:1021E00019F02A2D30E002C02FEF3FEFC9010F9008
:1021F000DF91CF911F910F91FF90EF90DF90CF90E3
:10220000BF90AF909F908F907F905F904F90089578
:10221000FC010590061621F00020D9F7C0010895B1
:102220003197CF010895CF93DF93EC013B8130FFCD
:1022300034C036FF0AC03F7B3B838E819F8101966D
:102240009F838E832A8130E02AC032FF0FC0E8814D
:10225000F9818081992787FD9095009719F4306264
:102260003B831BC03196F983E8830EC0EA85FB856A
:10227000099597FF09C02B81019611F480E101C0F7
:1022800080E2822B8B8309C02E813F812F5F3F4FDD
:102290003F832E839C01332702C02FEF3FEFC901FC
:1022A000DF91CF910895FB01238120FF13C026FD0C
:1022B00011C08F3F3FEF930769F082832F7D206429
:1022C00023832681378121503109378326839C015E
:1022D000332702C02FEF3FEFC9010895F894FFCFD5
:1022E0000000AB062000700143616C6C65642075D2
:1022F0007365722066756E6374696F6E2000207757
:1023000069746820617267733A20002475662568D5
:102310006875007768696C65004661696C65642062
:10232000636F6E646974696F6E2E007472756500F8
:1023300025686875256E0066756E6374696F6E003A
:10234000496E697469616C697A696E672E2E2E0018
:1023500066756E6374696F6E206D61696E282920E1
:102360007B0A2020247566302831293B0A2020244E
:1023700075663028312C2031293B0A2020247566CF
:102380003028312C20312C2032293B0A2020247582
:10239000663028312C20312C20322C2033293B0A66
:1023A00020207768696C6520287472756529207B08
:1023B000207D0A7D0000000000CA09550B650994C4
:0623C000097809B80900CC
:00000001FF
