:100000000C9491000C94B9000C94B9000C94B900B4
:100010000C94B9000C94B9000C94B9000C94B9007C
:100020000C94B9000C94B9000C94B9000C94B9006C
:100030000C94B9000C94B9000C94B9000C94B9005C
:100040000C949D0D0C94B9000C94A70F0C94E30F25
:100050000C94B9000C94B9000C94B9000C94B9003C
:100060000C94B9000C94B90047094B094F09570982
:100070005B09600967096E09720976097A097E09C8
:1000800086098A098F09590D590D590D590D590DB8
:10009000590D590D590D590D590D590D590D590D30
:1000A000590D590D590D590D590D590D590D590D20
:1000B000590D590D590D590D95099C09A309AA0906
:1000C000B109B8090000000700020100000304069E
:1000D0000000000000000000010204081020408021
:1000E0000102040810200102040810200404040482
:1000F00004040404020202020202030303030303D2
:1001000000000000250028002B0000000000240053
:1001100027002A006364696E6F70737578585B00FE
:100120009E1011241FBECFEFD8E0DEBFCDBF11E07F
:10013000A0E0B1E0E6E6FDE202C005900D92AA3F24
:10014000B107D9F715E0AAEFB1E001C01D92AF3EAB
:10015000B107E1F711E0C2E2D1E004C02297FE014D
:100160000E949412C032D107C9F70E94EE100C947D
:10017000B1160C940000EF92FF920F931F93CF9350
:10018000DF93E62EEA01813041F060F0823009F41D
:1001900045C0833009F07FC068C000E010E0E62E63
:1001A000F12C34C066E071E08EE395E00E943311DB
:1001B0004AE050E060E08EE395E00E94CF116CE1F0
:1001C00071E08EE395E00E9433114AE050E06E2D1D
:1001D0008EE395E00E94D61100E010E0F12C0AC0F9
:1001E000699179914AE050E08EE395E00E944212D5
:1001F0000F5F1F4F0E151F059CF34DC0688122969F
:100200008EE395E00E9435110F5F1F4F0E151F05FD
:10021000ACF38EE395E00E945E0F3DC069E271E0B1
:100220008EE395E00E943311688179814AE050E0C5
:100230008EE395E00E943A126CE371E08EE395E064
:100240000E9433116A817B814AE050E08EE395E0A1
:100250000E94421261E08A819B81181619060CF0F7
:1002600060E088810E94D40E16C063E471E08EE3E2
:1002700095E00E943311688179814AE050E08EE375
:1002800095E00E94421268817981882777FD8095E8
:10029000982F0E94110E80E090E0DF91CF911F9186
:1002A0000F91FF90EF9008959C01260F311D2C3285
:1002B000314068F4FC01E75FFB4F662329F0818140
:1002C000308120E0282B05C0208130E002C020E0F2
:1002D00030E0C90108959C01240F311D2C323140BA
:1002E00048F4FC01E75FFB4F442319F070836183FE
:1002F00008956083089590910804E92FF0E0E75F86
:10030000FB4F80839F5F909308040895AC0120E029
:1003100030E0FA014E5F5F4F80819181892B19F4A3
:100320007183608307C02F5F3F4F2032310589F70B
:100330002FEF3FEFC9010895EF92FF920F931F93A4
:10034000CF93DF937B018C01C0E0D0E0F801819175
:1003500091918F01009759F040E051E0B7010E9460
:10036000FF12009731F02196C032D10579F7CFEF17
:10037000DFEFCE01DF91CF911F910F91FF90EF90B2
:100380000895DC01ED91FC916E177F0710F00C943D
:10039000270281E00895CF92DF92FF920F931F937F
:1003A000CF93DF9300D000D000D0CDB7DEB76C0183
:1003B00041155105E9F1FA0180818F5F808305C005
:1003C0000F5F1F4FF60111830083F6010081118139
:1003D000F801E85FFD4FF0808F2D992787FD9095FC
:1003E0002D833E834B835C8369837A830E94F7125B
:1003F0002D813E814B815C8169817A81892B01F756
:10040000FCE2FF1215C00F5F1F4FF601118300833E
:10041000C60126960FB6F894DEBF0FBECDBFDF91A2
:10042000CF911F910F91FF90DF90CF900C94C1015D
:1004300080E026960FB6F894DEBF0FBECDBFDF91E9
:10044000CF911F910F91FF90DF90CF9008953F9231
:100450004F925F926F927F928F929F92AF92BF92D4
:10046000CF92DF92EF92FF920F931F93CF93DF9380
:10047000CDB7DEB7C450D1400FB6F894DEBF0FBE83
:10048000CDBF8C016B015A01790106C02FEF821A92
:10049000920AF80191828082F8018080918028E0A0
:1004A000622E22E0722E680C791CF301808199275C
:1004B00087FD90950E94F712892B41F744E050E0A8
:1004C000B3018BE491E00E94FF12009709F0F4C0A1
:1004D0002401F4E04F0E511CF201E85FFD4F308023
:1004E000832D992787FD90950E94E312892B09F0AF
:1004F000E3C024E2321609F4DFC0F80151824082E1
:100500009701A501B601C8010E94CB0181E91EC077
:10051000F5E08F0E911CF401E85FFD4F5080852DB2
:10052000992787FD90950E94E312892B09F0CEC090
:1005300024E2521609F4CAC0F80191828082970120
:10054000A501B601C8010E94CB0180E90E947B0190
:1005500080E0F0C0F20180819181860D971DF80145
:10056000918380839701A501B601C8010E94CB0148
:10057000F4018081282F31812830310510F4805713
:10058000E5CF2F3F310509F010F488E905C08AE96D
:100590000E947B01F40181810E947B01F401808132
:1005A000D5CFF301E85FFD4F8081873209F043C06A
:1005B000C3010196F80191838083FC01E85FFD4F40
:1005C000908093012E5F3F4FF80131832083FCE53B
:1005D0009F1217C0F901E85FFD4F808123E0620E92
:1005E000711CF801718260828E3649F0843721F0E7
:1005F0008C3509F05FC005C099E0992E02C08AE0F1
:10060000982EF80120813181F901E85FFD4F80814A
:10061000873209F07FC02F5F3F4FF801318320837D
:100620009701A501B601C8010E94CB0188E90E948B
:100630007B01892D8BCF812C912CF801408051803A
:10064000F201E85FFD4F3080832D992787FD90955B
:100650000E94E312892B09F063C0F4E23F1609F40B
:100660005FC08114910431F1B301685F7D4FA40133
:10067000CE0101960E940D13E1E0F0E0EC0FFD1FAA
:10068000E80DF91D1082BE016F5F7F4FC7010E9408
:100690009C014C018F3F2FEF920709F43FC0970157
:1006A000A501B601C8010E94CB01C4018F7399272F
:1006B000805C4CCF81E03EC045E050E0B30180E576
:1006C00091E00E94FF12009709F422CF2E0131E041
:1006D000430E531EF201118210825F924F924E011F
:1006E000FDEF8F1AFEEF9F0A9F928F9286E591E0B1
:1006F0009F938F937F926F920E9456130FB6F89438
:10070000DEBF0FBECDBFF80160807180892B09F478
:1007100048CF20CF8CE591E00E94271382E00AC0E9
:10072000FFEF4F1A5F0AF80151824082FFEF8F1AE4
:100730009F0A83CFCC5FDE4F0FB6F894DEBF0FBEAB
:10074000CDBFDF91CF911F910F91FF90EF90DF9080
:10075000CF90BF90AF909F908F907F906F905F9061
:100760004F903F9008952F923F924F925F926F92D9
:100770007F928F929F92AF92BF92CF92DF92EF9231
:10078000FF920F931F93CF93DF9300D01F92CDB7AB
:10079000DEB78C015B014A0122242394312C2C0EFC
:1007A0003D1E5EE6652E51E0752EE5C18FEFC81A3D
:1007B000D80AF801D182C082F801C080D18038E027
:1007C000E32E32E0F32EEC0CFD1CF7015080852D5A
:1007D000992787FD90950E94F712892B39F7FBE343
:1007E0005F12D1C18FEFC81AD80AF801D182C08236
:1007F000C2C12601F5E04F0E511CF201E85FFD4F2A
:100800002081822F992787FD90952B830E94E312E8
:100810002B81892B09F0C1C1243209F4BEC1F80132
:100820005182408206C0FFEFEF1AFF0AF801F18201
:10083000E082F801E080F180F701E85FFD4F808100
:10084000992787FD90950E94F712892B61F7C12C9B
:10085000D12CF80140805180F201E85FFD4F2081EA
:10086000822F992787FD90952B830E94E3122B817D
:10087000892B09F09DC1243209F49AC1C114D10415
:1008800039F4A4C1FFEF4F1A5F0AF8015182408288
:10089000F80140805180F201E85FFD4F2081822FF6
:1008A000992787FD90952B830E94F7122B81892B26
:1008B00049F72B3309F086C1B701685F7D4FFFEF21
:1008C0004F1A5F0AF80151824082FB01EC0DFD1DB9
:1008D0001082C4010E948601F82E80EF0E947B01E5
:1008E0008F2D8F7343C1F5E0CF0ED11CF601E85F69
:1008F000FD4F5080852D992787FD90950E94E3122A
:10090000892B09F091C084E2581609F48DC0F801D2
:10091000D182C08206C0FFEFEF1AFF0AF801F18210
:10092000E082F801E080F180F701E85FFD4FD080C0
:100930008D2D992787FD90950E94F712892B59F7E5
:10094000F8E2DF123FC18FEFE81AF80AF801F182EE
:10095000E082940140E050E0B501C8010E94C1016D
:10096000811134C186EA0E947B0184E00E947B01F0
:1009700006C0FFEFEF1AFF0AF801F182E082F801EA
:10098000E080F180F701E85FFD4FD0808D2D992741
:1009900087FD90950E94F712892B59F7F9E2DF1233
:1009A00011C18FEFE81AF80A03C0FFEFEF1AFF0A30
:1009B000F801F182E082F801E080F180F701E85F60
:1009C000FD4FD0808D2D992787FD90950E94F712BD
:1009D000892B59F7FBE7DF12F5C08FEFE81AF80A09
:1009E00003C0FFEFEF1AFF0AF801F182E082F8017D
:1009F000E080F180F701E85FFD4FD0808D2D9927D1
:100A000087FD90950E94F712892B59F7FDE7DF12B9
:100A1000D9C08FEFE81AF80AF801F182E08280EA83
:100A20000E947B018DEFA2C0C12CD12CF801408027
:100A30005180F201E85FFD4F2081822F992787FDC9
:100A400090952B830E94E3122B81892B09F0C0C063
:100A5000243209F4BDC0CD2839F48BC0FFEFCF1A82
:100A6000DF0AF801D182C082F801C080D180F6018E
:100A7000E85FFD4F5080852D992787FD90950E9456
:100A8000F712892B59F7F8E25F129CC08FEFC81A52
:100A9000D80AF801D182C0821A8206C0FFEFCF1AAD
:100AA000DF0AF801D182C082F801C080D180F6014E
:100AB000E85FFD4F8081992787FD90950E94F7128E
:100AC000892B61F79401AE014E5F5F4FB501C801FC
:100AD0000E94C10181114DC088E90E947B018A8179
:100AE0000E947B01F80180819181FC01E85FFD4F4C
:100AF0002081293209F066C00196F8019183808334
:100B000006C0FFEFCF1ADF0AF801D182C082F801D8
:100B1000C080D180F601E85FFD4F5080852D992778
:100B200087FD90950E94F712892B59F7FBE35F121E
:100B300049C08FEFC81AD80AF801D182C0823F920B
:100B40002F927F926F92FF92EF920E9456130F9016
:100B50000F900F900F900F900F90181619062CF40D
:100B600089818F7080550E947B018DE90E947B01F5
:100B700002C081E037C0F80180819181A816B906D2
:100B800008F01ACEF6CF45E050E0B70186E791E0D5
:100B90000E94FF12009709F42CCE45E050E0B70107
:100BA0008CE791E00E94FF12009709F49CCE3CCFA5
:100BB000FFEF4F1A5F0AF80151824082FFEFCF1A10
:100BC000DF0A47CE8CE591E00E94271382E00AC03D
:100BD0008FEF481A580AF80151824082FFEFCF1A6E
:100BE000DF0A24CF0F900F900F90DF91CF911F91CC
:100BF0000F91FF90EF90DF90CF90BF90AF909F90BC
:100C00008F907F906F905F904F903F902F900895BE
:100C10006F927F929F92AF92BF92CF92DF92EF92AC
:100C2000FF920F931F93CF93DF93CDB7DEB7C054DE
:100C3000D1090FB6F894DEBF0FBECDBF8C016B019A
:100C400070E4972EAA24A394B12CAC0EBD1ED8C07C
:100C5000FC01E85FFD4F8081811107C0D9C08FEF93
:100C6000E81AF80AF801F182E082F801E080F180E8
:100C700068E0662E62E0762E6E0C7F1CF3018081A8
:100C8000992787FD90950E94F712892B41F748E03C
:100C900050E0B30182E891E00E94FF12009711F04A
:100CA00081E0C4C0F8E0EF0EF11CF701E85FFD4FF2
:100CB0007080872D992787FD90950E94E312892BDC
:100CC00079F784E2781661F303C0FFEFEF1AFF0AA9
:100CD000F801F182E082F801E080F180F701E85F3D
:100CE000FD4F8081992787FD90950E94F712892BEF
:100CF00061F7F801E080F180F701E85FFD4F708057
:100D0000872D992787FD90950E94E312892B09F082
:100D100081C0F4E27F1207C07DC08FEFE81AF80AA5
:100D2000F801F182E082F801E080F180F701E85FEC
:100D3000FD4F7080872D992787FD90950E94F712AF
:100D4000892B59F7F8E27F126CC08FEFE81AF80A86
:100D500003C0FFEFEF1AFF0AF801F182E082F80109
:100D6000E080F180F701E85FFD4F7080872D9927C3
:100D700087FD90950E94F712892B59F7F9E27F12AF
:100D800050C08FEFE81AF80A03C0FFEFEF1AFF0A0E
:100D9000F801F182E082F801E080F180F701E85F7C
:100DA000FD4F7080872D992787FD90950E94F7123F
:100DB000892B59F7FBE77F1234C08FEFE81AF80A46
:100DC000F801F182E082F501892D11928A95E9F707
:100DD000A501B601C8010E94B303F8018081918189
:100DE000FC01E85FFD4F20812D37D9F40196F80111
:100DF000918380838CE90E947B0102C082E016C04F
:100E0000F80180819181C816D90608F021CF48CF1A
:100E100080E00CC0FFEFEF1AFF0AF801F182E082D8
:100E200068CF8CE591E00E942713E8CFC05CDF4FCC
:100E30000FB6F894DEBF0FBECDBFDF91CF911F91EB
:100E40000F91FF90EF90DF90CF90BF90AF909F9069
:100E50007F906F900895CF93DF9300D0CDB7DEB72A
:100E600060E071E088E092E00E941C131A8219820F
:100E7000BC01CE0101960E94080690E00F900F90F1
:100E8000DF91CF910895CF93DF9300D0CDB7DEB738
:100E90008091E5059091E605009711F48FEE95E0BD
:100EA0009E012F5F3F4F281B390BC9010F900F90F8
:100EB000DF91CF9108950F931F93CF93DF9361E05C
:100EC0008DE00E949C0E40E855E260E070E08EE309
:100ED00095E00E941E106BE871E08EE395E00E94A1
:100EE000521108E012E0C0E0D0E011C08EE395E0BE
:100EF0000E940B0F18161906CCF78EE395E00E949E
:100F00003A0FF80181938F012196882321F0C115B2
:100F1000F2E0DF0759F76BE971E08EE395E00E949C
:100F200033114AE050E0BE018EE395E00E943A1290
:100F300067EA71E08EE395E00E94521168E072E08A
:100F40008EE395E00E9452116FEA71E08EE395E026
:100F50000E9433110E9443074AE050E0BC018EE337
:100F600095E00E94421262E471E08EE395E00E94F7
:100F7000521168EE73E080E090E00E94110E8EE363
:100F800095E00E945E0F0E942B07892B39F069EBD8
:100F900071E08EE395E00E945211FFCF6AEC71E0A0
:100FA0008EE395E00E9433114AE050E0609108041E
:100FB0008EE395E00E94CF116EED71E08EE395E037
:100FC0000E945211C9E0D4E013C066EE71E08EE3D6
:100FD00095E00E943311699140E150E08EE395E085
:100FE0000E94CF1161E471E08EE395E00E9433111D
:100FF0009E01295034408091080490E02817390759
:1010000024F362E471E08EE395E00E94521162E401
:1010100071E08EE395E00E9452111092FB01109254
:10102000FA018CE291E09093FF018093FE0190938E
:10103000FD018093FC0184E591E09093030280938D
:1010400002028BE691E090930502809304028BEB01
:1010500090E09093070280930602DF91CF911F9159
:101060000F9108958AEF91E00C948908CF93DF9354
:10107000EC014E815F81E885F98561E08A819B8181
:1010800009952A813B812E5F3F4F3B832A83DF9165
:10109000CF910895FC01828193810297938382838B
:1010A000268137810284F385E02D41E00994FC011B
:1010B0002481358182E0680220193109112467FFFB
:1010C00003C082E090E002C08EEF9FEF468157811F
:1010D0000084F185E02D61E0820F931F0994FC01EB
:1010E000862FBA01A481B58192E08902A019B109C5
:1010F000112487FF03C082E090E002C08EEF9FEFD3
:10110000268137810284F385E02D41E08A0F9B1F01
:1011100009942F923F924F925F926F927F928F929B
:101120009F92AF92BF92CF92DF92EF92FF920F9376
:101130001F93CF93DF9300D000D0CDB7DEB78C01E3
:101140008DB69EB6DC0116964D915C911797189658
:10115000ED91FC91199760E08D919C9109956C013E
:101160007C01FF24BDE9EB16F10409F483C19CF571
:10117000FFE8EF16F104B4F42CE8E216F1040CF0E9
:1011800076C030E8E316F1040CF06CC0BC016F735C
:10119000772780E2C822DD2490E4E916F1040CF000
:1011A00051C048C0A9E9EA16F10409F408C15CF489
:1011B000E0E9EE16F1040CF4A4C4F8E9EF16F1042A
:1011C0000CF4DFC0EAC02BE9E216F10409F42AC1ED
:1011D0000CF02DC10FC18FEAE816F10409F416C214
:1011E000CCF4A8EAEA16F10484F4B0EAEB16F104B0
:1011F0000CF084C1EEE9EE16F10409F43FC1FFE9F9
:10120000EF16F10409F07DC474C12EEAE216F10470
:101210004CF1F8C130EFE316F10434F480ECE81639
:10122000F1040CF03FC2F9C198EFE916F1040CF497
:1012300034C447C4CD2811F0606C7F6FC8010E9490
:1012400057083CC07B01CD2821F0B0ECEB2AFF24ED
:10125000FA94C8010E943608AC016E2DC8010E94A4
:101260006F0849C4C8010E9436086C0102C0C12C35
:10127000D12CC8010E943608F701E058F109EE327E
:10128000F10508F016C4EC5CFF4F0C949212BC01FF
:101290006C0D7D1DBEC1BC016C197D09BAC18C9D50
:1012A000B0018D9D700D9C9D700D1124B2C1B601D1
:1012B0000E945C12AEC1B6010E945C12BC01A9C1C1
:1012C000BC0102C0660F771FCA94E2F7A2C1BC013D
:1012D00002C075956795CA94E2F79BC1BC016C2169
:1012E0007D2197C1BC016C297D2993C1BC016C256E
:1012F0007D258FC1892B39F061E003C061E0892B26
:1013000019F4CD2809F460E070E083C1BC01609558
:1013100070957FC166277727681B790B7AC161E0DA
:1013200070E0892B09F475C129C061E070E08C156B
:101330009D050CF46EC122C061E070E0C816D906AC
:101340000CF067C11BC061E070E08C159D0509F4CD
:1013500060C114C061E070E08C159D0509F059C1B1
:101360000DC061E070E08C159D050CF052C106C007
:1013700061E070E0C816D9060CF44BC160E070E083
:1013800048C1BC016770772782FF02C0686F7F6F1A
:1013900062FFAEC3686F7F6FABC3D80116964D91E5
:1013A0005C9117978D919C9111971896ED91FC91F6
:1013B000199760E0019609959927BC0113C0D801DF
:1013C00016964D915C9117978D919C911197189657
:1013D000ED91FC91199760E001960995BC01772782
:1013E00087FD7F6FC8010E944A08F80180819181C2
:1013F000029685C3D80116964D915C9117978D91F1
:101400009C9111971896ED91FC91199761E00196C6
:101410000995BC01C8010E944A08F80180819181A8
:1014200003966DC3C8010E9436087C0102C0E12CFE
:10143000F12CD80114968D919C91159713969C933D
:101440008E931297C8010E943608F8019183808319
:10145000C8010E943608D80115969C938E93149764
:1014600080FF06C08E7F15969C938E93149749C378
:10147000B701A6C2C8010E9436083DC3C8010E9438
:1014800036087C01D80116964D915C9117978D9185
:101490009C9111971896ED91FC91199760E0019637
:1014A0000995F801648175818D39910551F4616068
:1014B000C8010E944A08D8016D917C916E5F7F4FF0
:1014C00008C0C8010E944A08F801608171816F5FFD
:1014D0007F4FC8010E944A08D80112968D919C91B5
:1014E000139715969C938E931497EC921196FC92F9
:1014F00008C3C8010E943608F80101C3D801169636
:101500004D915C911797AD90BC9011971896ED9105
:10151000FC911997C0FC13C060E0C50101960995C4
:101520006C01DD2487FF02C0DD24DA94CA0CDB1CC9
:10153000F801808191810296918380830EC061E0E1
:10154000C501019609956C01CA0CDB1CD8018D916F
:101550009C91119703968D939C93B6EAEB16F10438
:1015600054F4E4EAEE16F104CCF5F2EAEF16F104D5
:101570000CF444C005C028EAE216F104CCF13EC0E8
:10158000F801468157810084F185E02D60E0D801A3
:101590008D919C910995F801648175818D39910532
:1015A00051F46160C8010E944A08D8016D917C9194
:1015B0006F5F7F4F06C0C8010E944A08F801608132
:1015C0007181C8010E944A08D80112968D919C91A0
:1015D000139715969C938E93149711C0C8010E947F
:1015E0003608892B09F48DC2F801D182C08289C2E4
:1015F000C8010E943608892B09F083C2D801CD9218
:10160000DC927FC2F8016281738103C0F8016481BA
:101610007581C8010E944A084CC24DB65EB6C80129
:101620000E943608682F3C017724C301880F991F58
:10163000EDB7FEB7E81BF90B0FB6F894FEBF0FBE6F
:10164000EDBF2DB73EB72F5F3F4FA9017901A12C08
:10165000B12C10C0C8014B835C836A830E9436089A
:10166000D7018D939D937D01BFEFAB1ABB0A6A81B1
:101670005C814B81A614B7046CF3F8012681378195
:101680000484F585E02D8C2D805B0995BC01C80193
:101690000E944A08842D952D0FB6F8949EBF0FBE68
:1016A0008DBF07C2B7E0CB22DD2463E0F594E79459
:1016B0006A95E1F7E5E0CE16D10409F056C03DB6D3
:1016C0002EB6F7E0EF22FF24C7010196880F991F7D
:1016D0002DB73EB7281B390B0FB6F8943EBF0FBE8F
:1016E0002DBFCDB6DEB68FEFC81AD80A5601612CD1
:1016F000712C0AC0C8010E943608D5018D939D93B4
:101700005D01BFEF6B1A7B0AE614F7049CF7F60144
:10171000A080B180B501C8010E944A086E2C660CF9
:1017200077086C0C7D1C412C512CC12CD12C0EC087
:10173000F301E40DF51D60817181C8010E944A0822
:10174000FFEFCF1ADF0A22E0421A5108EC10F0CF67
:10175000B501C8010E944A08D8018D919C9111974A
:1017600001968D939C93910166C0B6E0CB16D1048F
:1017700009F069C02DB6EEB7E983F7E0EF22FF2448
:101780003E2C2FEFE21AF20AC7010196880F991F2B
:10179000ADB7BEB7A81BB90B0FB6F894BEBF0FBE4E
:1017A000ADBFADB6BEB6EFEFAE1ABE0A6501612C95
:1017B000712C0AC0C8010E943608D6018D939D93F2
:1017C0006D01BFEF6B1A7B0AE614F7049CF7832DBB
:1017D0008F5F6501C80ED11CC80ED11C412C512C45
:1017E000612C712C21E0F601E40DF51D329760812A
:1017F0007181C8012A830E944A08EFEF6E1A7E0A9F
:10180000F2E04F1A51082A81822F8619830D59F769
:10181000F701EE0FFF1FEA0DFB1D60817181C8010A
:101820000E944A08D8018D919C91119701968D9341
:101830009C93322D2981832F922F0FB6F8949EBF4F
:101840000FBE8DBF5EC1B7E0EB22FF24C701049736
:10185000BB24B394029708F0B12CE2E0CE16D10479
:1018600009F440C044F4C114D10479F0CA94CD28DD
:1018700009F07CC020C033E0C316D104E9F184E054
:10188000C816D10409F072C053C0D80116964D9104
:101890005C9117978D919C9111971896ED91FC9101
:1018A000199760E0019609956C01DD24F8018081AB
:1018B0009181029614C0D80116964D915C911797AC
:1018C0008D919C9111971896ED91FC91199761E07B
:1018D000019609956C01F8018081918103969183AD
:1018E000808346C0C8010E9436086C01D8018D91E2
:1018F0009C911197019637C0C8010E9436086C016F
:1019000002C0CC0CDD1CBA94E2F7F8014681578185
:10191000808191810084F185E02D60E00196099538
:10192000C80ED11CD8018D919C91119702961BC0B5
:10193000C8010E9436086C0102C0CC0CDD1CBA94B0
:10194000E2F7F80146815781808191810084F18519
:10195000E02D61E001960995C80ED91ED8018D9140
:101960009C91119703968D939C9302C0C12CD12C0E
:10197000B2E0EB16F104E9F144F4E114F10491F062
:10198000EA94EF2809F0BDC046C024E0E216F10455
:1019900009F44CC00CF43FC085E0E816F10409F0EE
:1019A000B0C051C0D80116964D915C91179718960A
:1019B000ED91FC91199760E0C60109959927BC014A
:1019C000C8010F900F900F900F90DF91CF911F9152
:1019D0000F91FF90EF90DF90CF90BF90AF909F90CE
:1019E0008F907F906F905F904F903F902F900C94CE
:1019F0004A08D80116964D915C9117971896ED916B
:101A0000FC91199760E0C6010995BC01772787FF13
:101A1000D7CF7F6FD5CFF801E284F384A680B7805B
:101A2000C8010E943608950140E017C0D8011696FB
:101A30004D915C9117971896ED91FC91199761E083
:101A4000C6010995BCCFF801E284F384A680B78073
:101A5000C8010E943608950141E0BC01C601F701AA
:101A60000F900F900F900F90DF91CF911F910F91DA
:101A7000FF90EF90DF90CF90BF90AF909F908F90AE
:101A80007F906F905F904F903F902F90099460E00F
:101A900070E0C8010E944A0805C0E12CF12CF7E073
:101AA000CF22DD24C7012FEFE21AF20AC816D906A9
:101AB00074F7D8018D919C91119701968D939C9309
:101AC00020C0C8010E943608B7E0CB22DD24EFEF2A
:101AD000CE1ADE0ACC0CDD1CD80112962D913C9159
:101AE00013972C0D3D1D13963C932E931297BC011A
:101AF000C8010E944A08F801808191810196918372
:101B000080830FB6F8949EBE0FBE8DBE0F900F90CF
:101B10000F900F90DF91CF911F910F91FF90EF9059
:101B2000DF90CF90BF90AF909F908F907F906F90FD
:101B30005F904F903F902F9008951F920F920FB695
:101B40000F9211242F933F938F939F93AF93BF9343
:101B50008091350590913605A0913705B0913805F3
:101B600030913D05232F2D5F2D3720F40196A11DC7
:101B7000B11D05C0232F2A570296A11DB11D209328
:101B80003D058093350590933605A0933705B093B6
:101B900038058091390590913A05A0913B05B091A7
:101BA0003C050196A11DB11D8093390590933A051E
:101BB000A0933B05B0933C05BF91AF919F918F914E
:101BC0003F912F910F900FBE0F901F9018950F937C
:101BD0001F939FB7F8940091390510913A05209111
:101BE0003B0530913C0586B5A89B06C08F3F21F090
:101BF0000F5F1F4F2F4F3F4F9FBF322F212F102FAF
:101C00000027080F111D211D311D42E0000F111F7B
:101C1000221F331F4A95D1F7B801C9011F910F91B7
:101C20000895CF92DF92EF92FF92CF93DF936B01F3
:101C30007C010E94E70DEB010EC00E94E70D6C1BBA
:101C40007D0B683E734038F081E0C81AD108E10886
:101C5000F108C851DC4FC114D104E104F10469F763
:101C6000DF91CF91FF90EF90DF90CF90089578941F
:101C700084B5826084BD84B5816084BD85B5826091
:101C800085BD85B5816085BDEEE6F0E0808181602F
:101C90008083E1E8F0E0108280818260808380812F
:101CA00081608083E0E8F0E0808181608083E1EB07
:101CB000F0E0808184608083E0EBF0E080818160EF
:101CC0008083EAE7F0E080818460808380818260A5
:101CD000808380818160808380818068808310928E
:101CE000C1000895833069F028F48130A1F082307A
:101CF00011F514C08630B1F08730C1F08430D9F4CA
:101D000004C0809180008F7703C0809180008F7D18
:101D100080938000089584B58F7702C084B58F7D4D
:101D200084BD08958091B0008F7703C08091B0008A
:101D30008F7D8093B0000895CF93DF9390E0FC01F6
:101D4000E852FF4F4491FC01E451FF4F84918823F6
:101D500041F190E0880F991FFC01E65FFE4F25914D
:101D60003491D90180509F4FFC0185919491C82FE7
:101D7000D92F9FB7F8948C91611106C040958423A8
:101D80008C938881842308C0623041F4242F2095ED
:101D900082238C938881842B888302C0842B8C932C
:101DA0009FBFDF91CF9108950F931F93CF93DF9340
:101DB0001F92CDB7DEB7282F30E0F901EC53FF4F6B
:101DC0008491F901E852FF4F1491F901E451FF4F5A
:101DD00004910023D1F0882321F069830E94720EC0
:101DE0006981E02FF0E0EE0FFF1FE050FF4F85917B
:101DF0009491DC019FB7F8948C91611103C0109508
:101E0000812301C0812B8C939FBF0F90DF91CF91D5
:101E10001F910F910895FC0184859585FC01E05C7C
:101E2000FF4F20813181FC01EE5BFF4F808191816A
:101E3000281B390B2F733327C9010895FC018485B2
:101E40009585FC01E05CFF4F40815181FC01EE5B18
:101E5000FF4F208131814217530741F00190F081FB
:101E6000E02DE80FF91F208130E002C02FEF3FEF97
:101E7000C9010895FC0184859585FC01E05CFF4F54
:101E800040815181FC01EE5BFF4F2081318142177F
:101E9000530781F0A081B181A80FB91F8C912081D7
:101EA00031812F5F3F4F2F73332731832083282FBA
:101EB00030E002C02FEF3FEFC9010895FC01868595
:101EC0009785FC01E05CFF4FDC01AE5BBF4F4081BA
:101ED00051812D913C91119742175307C1F70895F5
:101EE000CF93DF93FC0186859785DC01A05CBF4F13
:101EF0002D913C9111972F5F3F4F2F733327EC01AA
:101F0000CE5BDF4F4881598124173507D9F30D90F7
:101F1000BC91A02DA80FB91F6C93A685B785A05CB6
:101F2000BF4F11963C932E93A689B7892C9181E0DF
:101F300090E0058C02C0880F991F0A94E2F7282BC5
:101F40002C9381E090E0DF91CF91089508951F9246
:101F50000F920FB60F9211242F933F934F938F93AD
:101F60009F93EF93FF934091C6008091E10590917C
:101F7000E20501968F7399272091E3053091E405DE
:101F80008217930759F0E091E105F091E205EF55D2
:101F9000FA4F40839093E2058093E105FF91EF9122
:101FA0009F918F914F913F912F910F900FBE0F9066
:101FB0001F9018958EE395E00E940B0F892B11F06E
:101FC0000C94A60F08951F920F920FB60F92112432
:101FD0002F933F938F939F93EF93FF9320919D05B2
:101FE00030919E0580919F059091A0052817390793
:101FF00031F48091C1008F7D8093C10014C0E091C5
:102000009F05F091A005E35AFA4F208180919F052A
:102010009091A00501968F7399279093A0058093C6
:102020009F052093C600FF91EF919F918F913F9163
:102030002F910F900FBE0F901F901895CF92DF92A7
:10204000EF92FF92CF93DF93EC016A017B01411580
:1020500081EE580761057105F9F0EC89FD8981E091
:1020600090E00E8C02C0880F991F0A94E2F78083DB
:1020700060E079E08DE390E0A70196010E94701284
:1020800021503109410951095695479537952795B2
:10209000211580E1380798F0EC89FD89108260E80D
:1020A00074E88EE190E0A70196010E947012215021
:1020B0003109410951095695479537952795E88982
:1020C000F9893083EA89FB892083EE89FF89408181
:1020D00081E090E09C010A8C02C0220F331F0A9419
:1020E000E2F7422B4083EE89FF8940819C010B8CF3
:1020F00002C0220F331F0A94E2F7422B4083EE897D
:10210000FF8940819C010C8C02C0220F331F0A946E
:10211000E2F7422B4083EE89FF8920810D8C02C0BB
:10212000880F991F0A94E2F7809582238083DF91BC
:10213000CF91FF90EF90DF90CF90089510924105DE
:102140001092400588EE93E0A0E0B0E08093420555
:1021500090934305A0934405B09345058DEE91E01F
:1021600090933F0580933E0581EA95E090934B055F
:1021700080934A058DE595E090934D0580934C053D
:1021800085EC90E090934F0580934E0584EC90E0B1
:10219000909351058093500580EC90E09093530507
:1021A0008093520581EC90E09093550580935405FF
:1021B00086EC90E0909357058093560584E08093D9
:1021C000580583E08093590587E080935A0585E0A0
:1021D00080935B0581E080935C0508950E94370E33
:1021E0000E945B07CAEDDFE00E9432082097E1F30E
:1021F0000E94DA0FF9CFCF92DF92EF92FF920F9306
:102200001F93CF93DF936C01EB017A01E60EF71E6B
:1022100000E010E00BC06991D601ED91FC910190B6
:10222000F081E02DC6010995080F191FCE15DF05B5
:1022300091F7C801DF91CF911F910F91FF90EF901F
:10224000DF90CF900895DB010D900020E9F7AD01FC
:1022500041505109461B570BDC01ED91FC91028066
:10226000F381E02D09940C942311DC01ED91FC9194
:102270000190F081E02D09940F931F93CF93DF938A
:10228000EC016DE00E9435118C016AE0CE010E94E4
:1022900035119C01200F311FC901DF91CF911F9192
:1022A0000F9108950F931F93CF93DF93EC010E943A
:1022B00023118C01CE010E943C119801280F391F77
:1022C000C901DF91CF911F910F9108954F925F92B5
:1022D0006F927F929F92AF92BF92CF92DF92EF92D6
:1022E000FF920F931F93CF93DF93CDB7DEB7A197E4
:1022F0000FB6F894DEBF0FBECDBF5C016A017B0153
:10230000922E19A281E0821710F08AE0982E8E0199
:102310000F5D1F4F492C512C612C712CC701B60148
:10232000A30192010E9470128C2D929E801911249B
:10233000015011098A3014F4805D01C0895CF801F4
:10234000808369017A01C114D104E104F10431F7F9
:10235000B801C5010E942311A1960FB6F894DEBF03
:102360000FBECDBFDF91CF911F910F91FF90EF90E6
:10237000DF90CF90BF90AF909F907F906F905F90D5
:102380004F9008952115310541F4DC01ED91FC9148
:102390000190F081E02D642F09940C9466119A014C
:1023A000462F50E060E070E00C94C2110F931F9331
:1023B000CF93DF93EC019A01462F50E060E070E08C
:1023C0000E94C2118C01CE010E943C119801280F7D
:1023D000391FC901DF91CF911F910F910895CF92BD
:1023E000DF92EF92FF920F931F93CF93DF93EC0155
:1023F0006A017B012115310579F4E881F9810190A9
:10240000F081E02D642FDF91CF911F910F91FF900C
:10241000EF90DF90CF9009942A30310519F477FDC1
:102420000EC02AE0B701A601CE01DF91CF911F9126
:102430000F91FF90EF90DF90CF900C9466116DE2BA
:102440000E9435118C0144275527BA014C195D09AA
:102450006E097F092AE0CE010E946611080F191F3C
:10246000C801DF91CF911F910F91FF90EF90DF9006
:10247000CF9008959A01AB01662757FD6095762F9E
:102480000C94EF110F931F93CF93DF93EC019A01FC
:10249000AB01662757FD6095762F0E94EF118C01E6
:1024A000CE010E943C119801280F391FC901DF910C
:1024B000CF911F910F91089597FB072E16F400946A
:1024C00007D077FD09D00E94981207FC05D03EF492
:1024D000909581959F4F0895709561957F4F0895D0
:1024E000A1E21A2EAA1BBB1BFD010DC0AA1FBB1F18
:1024F000EE1FFF1FA217B307E407F50720F0A21B8A
:10250000B30BE40BF50B661F771F881F991F1A94F6
:1025100069F760957095809590959B01AC01BD0120
:10252000CF010895EE0FFF1F0590F491E02D09945F
:10253000AA1BBB1B51E107C0AA1FBB1FA617B707E9
:1025400010F0A61BB70B881F991F5A95A9F7809505
:102550009095BC01CD0108952F923F924F925F92CA
:102560006F927F928F929F92AF92BF92CF92DF92A3
:10257000EF92FF920F931F93CF93DF93CDB7DEB708
:10258000CA1BDB0B0FB6F894DEBF0FBECDBF09949C
:102590002A88398848885F846E847D848C849B84F3
:1025A000AA84B984C884DF80EE80FD800C811B8101
:1025B000AA81B981CE0FD11D0FB6F894DEBF0FBE30
:1025C000CDBFED010895911106C080538A5010F0DF
:1025D000865C06C0089599278827089585FDFBCF5E
:1025E00080629111F8CF81568A51E0F708959111D8
:1025F000F2CF803219F089508550D0F70895FB0151
:10260000DC014150504030F08D910190801919F457
:102610000020B9F7881B990B0895FB01DC0141509C
:10262000504048F001900D920020C9F701C01D9262
:1026300041505040E0F70895FC0161507040019016
:102640000110D8F7809590958E0F9F1F08950F93D6
:102650001F93CF93DF938C01E091EB05F091EC0594
:10266000838181FF1BC0C0E0D0E005C00995892BA4
:1026700011F0CFEFDFEFF80181918F016091EB0551
:102680007091EC05DB011896ED91FC911997811181
:10269000EDCF8AE00995892B09F402C0CFEFDFEF77
:1026A000CE01DF91CF911F910F910895AEE0B0E080
:1026B000ECE5F3E10C94BC1285E08C838B899C895A
:1026C0009A838983CE014796AC016D897E89CE01BC
:1026D00001960E941D152E96E2E00C94D81220FD62
:1026E00009C0FC0123FD05C022FF02C07383628381
:1026F000518340830895CF92DF92EF92FF920F9320
:102700001F9344FD10C046FD10C0DB01FC01AA0F61
:10271000BB1FEE1FFF1F1094D1F76A0F7B1F8E1F88
:102720009F1F31E003C033E001C034E0660F771F24
:10273000881F991F3150D1F76B017C01C20ED11C4B
:10274000E11CF11C97018601B601C9011F910F918F
:10275000FF90EF90DF90CF9008950F931F93CF934A
:10276000DF938C01C8010E945616EC0197FD08C04A
:102770000E94F712892BB1F7B801CE010E9496167C
:10278000CE01DF91CF911F910F9108958F929F926B
:10279000AF92CF92DF92EF92FF920F931F93CF935E
:1027A000DF93EC01A62E4A01022F0E945616AC01BF
:1027B00055274B32510521F04D32510551F4006837
:1027C000AA9411F480E063C0CE010E94561697FDD2
:1027D000F9CF102F1D7F302F3073E1F48033D1F407
:1027E000AA9409F440C0CE010E94561697FD3BC042
:1027F000883711F0883549F41264AA94A1F1CE010A
:102800000E94561697FF06C02EC006FF02C0126037
:1028100001C01261C12CD12C7601282F2053283001
:1028200080F014FF04C0BE010E94961619C02A3021
:1028300040F016FFF8CF2F7D322F3151363098F708
:102840002750412FC701B6010E947B136B017C0109
:102850001260AA9459F0CE010E94561697FFDDCF60
:1028600011FD04C0AFCFC12CD12C760117FF08C0D9
:10287000F094E094D094C094C11CD11CE11CF11CD4
:10288000212FB701A601C4010E946F1381E0DF91DF
:10289000CF911F910F91FF90EF90DF90CF90AF906D
:1028A0009F908F9008956F927F929F92AF92BF9268
:1028B000CF92DF92EF92FF920F931F93CF93DF930C
:1028C000CDB7DEB7A1970FB6F894DEBF0FBECDBF70
:1028D0006C017A018901FE01319680E2DF011D92CF
:1028E0008A95E9F7D60113969C9020E030E0A12C60
:1028F000A0E0B12CCF0141E050E0F80193FC7591CC
:1029000093FE71918F01711103C000E010E080C04F
:102910007E3519F42115310559F1EB2DF0E0E21760
:10292000F3073CF47D3569F17D3219F4AA2319F1DE
:1029300003C0A11101C0A72EE72FE695E695E69505
:102940003C016E0E711CF301A72FA7703A0102C063
:10295000660C771CAA95E2F7D301B081BA2BB0833D
:102960007A1559F07A1510F47F5FE6CF7150E4CFF5
:10297000BB24B39403C0A1E001C0A0E02F5F3F4F90
:10298000BCCFAA2319F08E8180628E83B11003C060
:10299000BB24B3940BC0FE013196CE0181962081F9
:1029A00020952193E817F907D1F7F2CFC60169A363
:1029B0000E94561669A197FD24C0282F26952695BA
:1029C0002695E1E0F0E0EC0FFD1FE20FF11D208104
:1029D00030E0AC014770552702C0359527954A95E0
:1029E000E2F720FD04C0B6010E9496160AC0E11469
:1029F000F10419F0D7018D937D016150B12CB1F62E
:102A000002C0B11082CFE114F10411F0F70110827D
:102A1000C801A1960FB6F894DEBF0FBECDBFDF91FF
:102A2000CF911F910F91FF90EF90DF90CF90BF90CB
:102A3000AF909F907F906F9008954F925F927F929A
:102A40008F929F92AF92BF92CF92DF92EF92FF92BE
:102A50000F931F93CF93DF931F92CDB7DEB78C01F7
:102A60002B017A01FC0117821682A12CF0C08C2D5B
:102A700090E00E94F712892B21F0C8010E94AD134B
:102A8000E6C0F5E2CF120AC0F201D3FC3591D3FEC5
:102A900031912F01353271F455E2C52EC8010E94E3
:102AA000561697FDDFC0C81609F4D1C0B8010E94C0
:102AB0009616DAC03A3241F4D3FC3591D3FE319107
:102AC0002F01BB24B39401C0B12C712C10C0F2E0D3
:102AD000BF2A672D70E080E090E040E20E947B1307
:102AE000762EF201D3FC3591D3FE31912F01232FA5
:102AF00020532A3060F3B1FE03C0711003C0B4C08C
:102B000077247A94383619F03C3699F40AC0F201E9
:102B1000D3FC3591D3FE31912F01383651F4F8E0D2
:102B2000BF2A84E0B82AF201D3FC3591D3FE31915B
:102B30002F01332309F498C0632F70E084E191E002
:102B400039830E944B163981892B09F48DC0B0FC62
:102B500007C0F701C080D18082E0E80EF11C02C0FE
:102B6000C12CD12C3E3651F4F8014681578160E0EA
:102B700070E02B2DC6010E946F1369C0333691F4AB
:102B8000B1FC02C077247394C8010E94561697FDC9
:102B900069C0C114D10419F0F60181936F017A94D0
:102BA00099F753C03B3559F49201A601672DC8012E
:102BB0000E9453142C01009709F047C041C0C8017E
:102BC00039830E94AD13398197FD4CC03F3659F1CE
:102BD00028F4343629F1393649F52AC0333719F04B
:102BE000353721F51DC0C8010E9456164C0197FDCE
:102BF00011C00E94F712892B29F0B801C4010E946C
:102C0000961608C0C114D10419F0F60181926F0123
:102C10007A9449F7C114D104C1F0F601108215C0AD
:102C2000F0E2BF2A05C080E1B82A02C090E4B92AC8
:102C30002B2DA601672DC8010E94C613811105C066
:102C4000F8018381807371F40FC0B0FEA394F80182
:102C5000D380F201D3FCC590D3FEC1902F01C110E7
:102C600006CF02C0AA2019F02A2D30E002C02FEFB3
:102C70003FEFC9010F90DF91CF911F910F91FF900E
:102C8000EF90DF90CF90BF90AF909F908F907F900C
:102C90005F904F900895FC010590061621F00020EA
:102CA000D9F7C00108953197CF010895CF93DF93ED
:102CB000EC013B8130FF34C036FF0AC03F7B3B83D1
:102CC0008E819F8101969F838E832A8130E02AC066
:102CD00032FF0FC0E881F9818081992787FD9095A7
:102CE000009719F430623B831BC03196F983E88367
:102CF0000EC0EA85FB85099597FF09C02B810196D7
:102D000011F480E101C080E2822B8B8309C02E8107
:102D10003F812F5F3F4F3F832E839C01332702C0AB
:102D20002FEF3FEFC901DF91CF910895FB01238180
:102D300020FF13C026FD11C08F3F3FEF930769F0BE
:102D400082832F7D2064238326813781215031099E
:102D5000378326839C01332702C02FEF3FEFC90141
:062D60000895F894FFCF76
:102D66000000EF05200043616C6C65642075736597
:102D7600722066756E6374696F6E200020776974C1
:102D86006820617267733A20006469676974616CD0
:102D960057726974652070696E3A20002076616CFE
:102DA6003A200064656C61793A200074727565009A
:102DB60066616C736500256864256E004661696C02
:102DC600656420636F6E646974696F6E2E00247586
:102DD6006625686875006C6F63616C007768696C5E
:102DE600650066756E6374696F6E00496E69746915
:102DF600616C697A696E672E2E2E00446F776E6C51
:102E06006F6164656420002062797465732E0046E4
:102E16007265652052414D3A004572726F722063A9
:102E26006F6D70696C696E672E00537563636573A9
:102E36007320636F6D70696C696E6720280020626D
:102E460079746573290030780000000000700FFB6C
:0A2E5600100B0F3A0F1E0F5E0F0065
:00000001FF
