:100000000C9469000C9491000C9491000C94910054
:100010000C9491000C9491000C9491000C9491001C
:100020000C9491000C9491000C9491000C9491000C
:100030000C9491000C9491000C9491000C949100FC
:100040000C94B20A0C9491000C94230C0C945F0C49
:100050000C9491000C9491000C9491000C949100DC
:100060000C9491000C9491005C06600664066C068A
:10007000700675067C06830687068B068F06930638
:100080009B069F06A4066E0A6E0A6E0A6E0A6E0A28
:100090006E0A6E0A6E0A6E0A6E0A6E0A6E0A6E0AA0
:1000A0006E0A6E0A6E0A6E0A6E0A6E0A6E0A6E0A90
:1000B0006E0A6E0A6E0A6E0AAA06B106B806BF0676
:1000C000C606CD066364696E6F70737578585B0001
:1000D0001A0D11241FBECFEFD8E0DEBFCDBF11E057
:1000E000A0E0B1E0E0E4F6E202C005900D92A43C8D
:1000F000B107D9F717E0A4ECB1E001C01D92A93B0C
:10010000B107E1F710E0C2EDD0E004C02297FE0194
:100110000E94100FC03DD107C9F70E946A0D0C94D0
:100120001E130C940000EF92FF920F931F93CF9336
:10013000DF93C82FE62E8A0166E071E088E097E041
:100140000E94AF0D4AE050E06C2F88E097E00E94DB
:100150004B0E6CE171E088E097E00E94AF0D4AE041
:1001600050E06E2D88E097E00E94520EE80100E01A
:1001700010E0F12C0AC0699179914AE050E088E0E2
:1001800097E00E94BE0E0F5F1F4F0E151F059CF3D8
:1001900080E090E0DF91CF911F910F91FF90EF9061
:1001A00008959C01260F311D2C32314068F4FC016A
:1001B000ED52FA4F662329F08181308120E0282B0F
:1001C00005C0208130E002C020E030E0C901089580
:1001D0009C01240F311D2C32314048F4FC01ED52BA
:1001E000FA4F442319F07083618308956083089562
:1001F0009091D205E92FF0E0ED52FA4F80839F5F96
:100200009093D2050895BF92CF92DF92EF92FF9222
:100210000F931F93CF93DF9300D01F92CDB7DEB71C
:100220008C01FC01808191816817790708F449C02D
:10023000F801C080D18082EDE82E81E0F82EEC0C30
:10024000FD1CF7018081992787FD90950E94730F0F
:10025000892BD1F1FFEFCF1ADF0AF801D182C082DA
:10026000E7CFF4E0CF0ED11CF601EE52FE4FB08086
:100270008B2D992787FD90950E945F0F892B69F53B
:1002800024E2B21651F1F801D182C08281E90E94C4
:10029000F80014C08B81883010F4805704C088E9BE
:1002A0000E94F8008B810E94F800F8018081918102
:1002B00029813A81820F931F9183808320E030E06F
:1002C00026C021E030E023C044E050E0B70189E2DD
:1002D00091E00E947B0F009721F21A821982CE01D1
:1002E00001969F938F93CE0103969F938F938EE2F7
:1002F00091E09F938F93FF92EF920E94C30F0FB6EE
:10030000F894DEBF0FBECDBF892B21F6DACFC9012D
:100310000F900F900F90DF91CF911F910F91FF9051
:10032000EF90DF90CF90BF9008953F924F925F92F1
:100330006F927F928F929F92AF92BF92CF92DF92F5
:10034000EF92FF920F931F93CF93DF931F92CDB73E
:10035000DEB78C016B01AA24A394B12CAC0EBD1E98
:1003600035E3832E31E0932EF80180819181C81608
:10037000D90608F49BC1F8016080718092EDE92EE6
:1003800091E0F92EE60CF71CF7018081992787FD93
:1003900090950E94730F892B09F44EC1FFEF6F1ADD
:1003A0007F0AF80171826082E6CFF5E06F0E711C62
:1003B000F301EE52FE4F5080852D992787FD9095D1
:1003C0000E945F0F892B09F081C084E2581609F45E
:1003D0007DC0F80171826082F801E080F180F70150
:1003E000EE52FE4F7080872D992787FD90950E94D1
:1003F000730F892B09F42BC1FFEFEF1AFF0AF801E5
:10040000F182E082E9CFFFEFEF1AFF0AF801F182F3
:10041000E082B601C8010E940301892B09F046C1A0
:1004200086EA0E94F80084E00E94F800F801E0806B
:10043000F180F701EE52FE4F7080872D992787FDDE
:1004400090950E94730F892B09F406C1FFEFEF1AF4
:10045000FF0AF801F182E082E9CFFFEFEF1AFF0A0D
:10046000F801F182E082F801E080F180F701EE52BC
:10047000FE4F7080872D992787FD90950E94730FFE
:10048000892B09F4EEC0E9CFFFEFEF1AFF0AF8015C
:10049000F182E082F801E080F180F701EE52FE4F38
:1004A0007080872D992787FD90950E94730F892B67
:1004B00009F4DCC0E9CFFFEFEF1AFF0AF801F1827F
:1004C000E08280EA0E94F8008DEFB3C0612C712CAD
:1004D000F80140805180F201EE52FE4F3080832DB2
:1004E000992787FD90950E945F0F892B09F0C3C063
:1004F000F4E23F1609F4BFC0672809F4D7C0F80139
:1005000060807180F301EE52FE4F5080852D992757
:1005100087FD90950E94730F892B09F4B6C0FFEFF9
:100520006F1A7F0AF80171826082E9CFFFEF6F1ABC
:100530007F0AF80171826082512CF801608071801D
:10054000F301EE52FE4F8081992787FD90950E941E
:10055000730F892B09F01EC0B601C8010E94030168
:10056000892BF9F45394F80160807180F301EE5205
:10057000FE4F4080842D992787FD90950E94730F30
:10058000892B09F487C0FFEF6F1A7F0AF801718287
:100590006082E9CFFFEF6F1A7F0AF80171826082F3
:1005A000CCCF88E90E94F800852D0E94F800F80160
:1005B00080819181FC01EE52FE4F2081293209F0A9
:1005C00071C00196F80191838083F8016080718089
:1005D000F301EE52FE4F5080852D992787FD9095AF
:1005E0000E94730F892B09F459C0FFEF6F1A7F0A1D
:1005F000F80171826082E9CFFFEF6F1A7F0AF8017C
:1006000071826082BF92AF929F928F92FF92EF921F
:100610000E94C30F0F900F900F900F900F900F90AC
:10062000181619062CF489818F7080550E94F800E5
:100630008DE90E94F80098CE45E050E0B7018DE3C7
:1006400091E00E947B0F009709F4AFCE3FCFF8E214
:100650007F1609F4D8CE26C089E2781609F4FDCEBB
:1006600021C0EBE77E1609F40FCF1CC0FDE77F1613
:1006700009F421CF17C08FEF481A580AF8015182A8
:100680004082FFEF6F1A7F0A23CF88E2581609F4E1
:100690004DCF08C0ECE24E1284CF7CCFFBE35F1657
:1006A00009F4AACF83E491E00E94940F81E090E0E6
:1006B0000F90DF91CF911F910F91FF90EF90DF90FE
:1006C000CF90BF90AF909F908F907F906F905F90F2
:1006D0004F903F900895CF92DF92EF92FF920F9349
:1006E0001F93CF93DF93EC017B01A7C0FC01EE5277
:1006F000FE4F8081882309F4A7C00881198142ED4B
:10070000C42E41E0D42EC00ED11EF601808199275F
:1007100087FD90950E94730F892B09F498C00F5F95
:100720001F4F19830883E9CF085F1F4FF801EE526E
:10073000FE4FD0808D2D992787FD90950E945F0FE9
:10074000892B09F0A5C0F4E2DF1609F4A1C01983D2
:10075000088308811981F801EE52FE4F80819927A4
:1007600087FD90950E94730F892B19F00F5F1F4F23
:10077000EECF08811981F801EE52FE4FD0808D2D09
:10078000992787FD90950E945F0F892B09F06AC019
:1007900084E2D81609F466C008811981F801EE5286
:1007A000FE4FD0808D2D992787FD90950E94730F65
:1007B000892B09F45CC00F5F1F4F19830883ECCFAE
:1007C0000F5F1F4F1983088308811981F801EE52CA
:1007D000FE4FD0808D2D992787FD90950E94730F35
:1007E000892B09F449C0ECCF0F5F1F4F1983088391
:1007F00008811981F801EE52FE4FD0808D2D992786
:1008000087FD90950E94730F892BD9F1EDCF0F5F73
:100810001F4F19830883B701CE010E94950188817B
:100820009981FC01EE52FE4F20812D3769F501962A
:10083000998388838CE90E94F80088819981E81661
:10084000F90608F053CF24C020E030E023C048E090
:1008500050E0B60185E591E00E947B0F009709F416
:1008600063CF16C00F5F1F4F1983088382CFE8E262
:10087000DE1609F4A5CF08C0F9E2DF1609F4B4CFFB
:1008800003C08BE7D81619F283E491E00E94940F1D
:1008900021E030E0C901DF91CF911F910F91FF90CE
:1008A000EF90DF90CF900895CF93DF9300D0CDB736
:1008B000DEB760E071E082ED91E00E94890F1A825C
:1008C0001982BC01CE0101960E946B030F900F901C
:1008D000DF91CF910895CF93DF9300D0CDB7DEB7EE
:1008E0008091AF079091B007009711F489EB97E0E2
:1008F0009E012F5F3F4F281B390BC9010F900F90AE
:10090000DF91CF9108950F931F93CF93DF9340E82A
:1009100055E260E070E088E097E00E949A0C6EE596
:1009200071E088E097E00E94CE0D02ED11E0C0E09A
:10093000D0E011C088E097E00E94870B18161906D6
:10094000CCF788E097E00E94B60BF80181938F0105
:100950002196882321F0C115F4E0DF0759F76EE6F0
:1009600071E088E097E00E94AF0D4AE050E0BE01E0
:1009700088E097E00E94B60E6AE771E088E097E0B1
:100980000E94CE0D62ED71E088E097E00E94CE0DEE
:1009900062E871E088E097E00E94AF0D0E946B046E
:1009A0004AE050E0BC0188E097E00E94BE0E68E299
:1009B00071E088E097E00E94CE0D68EE73E080E081
:1009C00090E00E94260B0E945404892B51F06CE8A1
:1009D00071E088E097E0DF91CF911F910F910C9427
:1009E000CE0D6DE971E088E097E00E94CE0DC3ED79
:1009F000D5E013C060EB71E088E097E00E94AF0D96
:100A0000699140E150E088E097E00E944B0E67E278
:100A100071E088E097E00E94AF0D9E01235D3540B4
:100A20008091D20590E02817390724F368E271E03D
:100A300088E097E00E94CE0D68E271E088E097E0E0
:100A40000E94CE0D1092C5011092C4018CE291E07B
:100A50009093C9018093C8019093C7018093C60108
:100A600081ED90E09093CD018093CC0188EE90E0F1
:100A70009093CF018093CE0183E990E09093D101D0
:100A80008093D001DF91CF911F910F91089584EC55
:100A900091E00C949E05CF93DF93EC014E815F8132
:100AA000E885F98561E08A819B8109952A813B81EE
:100AB0002E5F3F4F3B832A83DF91CF910895FC0146
:100AC0008281938102979383828326813781028476
:100AD000F385E02D41E00994FC012481358182E019
:100AE000680220193109112467FF03C082E090E0F9
:100AF00002C08EEF9FEF468157810084F185E02D83
:100B000061E0820F931F0994FC01862FBA01A48132
:100B1000B58192E08902A019B109112487FF03C0B1
:100B200082E090E002C08EEF9FEF26813781028441
:100B3000F385E02D41E08A0F9B1F09942F923F928D
:100B40004F925F926F927F928F929F92AF92BF92DD
:100B5000CF92DF92EF92FF920F931F93CF93DF9389
:100B600000D000D0CDB7DEB78C018DB69EB6DC01CB
:100B700016964D915C9117971896ED91FC911997E7
:100B800060E08D919C9109956C017C01FF24BDE989
:100B9000EB16F10409F483C19CF5FFE8EF16F104AC
:100BA000B4F42CE8E216F1040CF076C030E8E31659
:100BB000F1040CF06CC0BC016F73772780E2C8228F
:100BC000DD2490E4E916F1040CF051C048C0A9E915
:100BD000EA16F10409F408C15CF4E0E9EE16F10448
:100BE0000CF4A4C4F8E9EF16F1040CF4DFC0EAC079
:100BF0002BE9E216F10409F42AC10CF02DC10FC152
:100C00008FEAE816F10409F416C2CCF4A8EAEA1651
:100C1000F10484F4B0EAEB16F1040CF084C1EEE9BF
:100C2000EE16F10409F43FC1FFE9EF16F10409F0F3
:100C30007DC474C12EEAE216F1044CF1F8C130EF24
:100C4000E316F10434F480ECE816F1040CF03FC232
:100C5000F9C198EFE916F1040CF434C447C4CD2867
:100C600011F0606C7F6FC8010E946C053CC07B0175
:100C7000CD2821F0B0ECEB2AFF24FA94C8010E94A1
:100C80004B05AC016E2DC8010E94840549C4C80102
:100C90000E944B056C0102C0C12CD12CC8010E94DE
:100CA0004B05F701E058F109EE32F10508F016C4E2
:100CB000EC5CFF4F0C940E0FBC016C0D7D1DBEC192
:100CC000BC016C197D09BAC18C9DB0018D9D700D60
:100CD0009C9D700D1124B2C1B6010E94D80EAEC108
:100CE000B6010E94D80EBC01A9C1BC0102C0660FAA
:100CF000771FCA94E2F7A2C1BC0102C0759567953F
:100D0000CA94E2F79BC1BC016C217D2197C1BC0153
:100D10006C297D2993C1BC016C257D258FC1892B50
:100D200039F061E003C061E0892B19F4CD2809F4A2
:100D300060E070E083C1BC01609570957FC166275B
:100D40007727681B790B7AC161E070E0892B09F481
:100D500075C129C061E070E08C159D050CF46EC171
:100D600022C061E070E0C816D9060CF067C11BC054
:100D700061E070E08C159D0509F460C114C061E06C
:100D800070E08C159D0509F059C10DC061E070E05F
:100D90008C159D050CF052C106C061E070E0C816CC
:100DA000D9060CF44BC160E070E048C1BC0167702B
:100DB000772782FF02C0686F7F6F62FFAEC3686FE4
:100DC0007F6FABC3D80116964D915C9117978D91AB
:100DD0009C9111971896ED91FC91199760E00196FE
:100DE00009959927BC0113C0D80116964D915C91C5
:100DF00017978D919C9111971896ED91FC911997E9
:100E000060E001960995BC01772787FD7F6FC801D7
:100E10000E945F05F80180819181029685C3D80107
:100E200016964D915C9117978D919C9111971896FC
:100E3000ED91FC91199761E001960995BC01C801FB
:100E40000E945F05F8018081918103966DC3C801FE
:100E50000E944B057C0102C0E12CF12CD8011496B4
:100E60008D919C91159713969C938E931297C80120
:100E70000E944B05F80191838083C8010E944B05B5
:100E8000D80115969C938E93149780FF06C08E7F91
:100E900015969C938E93149749C3B701A6C2C801B7
:100EA0000E944B053DC3C8010E944B057C01D8013F
:100EB00016964D915C9117978D919C91119718966C
:100EC000ED91FC91199760E001960995F801648114
:100ED00075818D39910551F46160C8010E945F05EB
:100EE000D8016D917C916E5F7F4F08C0C8010E9450
:100EF0005F05F801608171816F5F7F4FC8010E94BB
:100F00005F05D80112968D919C91139715969C932D
:100F10008E931497EC921196FC9208C3C8010E941C
:100F20004B05F80101C3D80116964D915C911797B6
:100F3000AD90BC9011971896ED91FC911997C0FC5B
:100F400013C060E0C501019609956C01DD2487FF9F
:100F500002C0DD24DA94CA0CDB1CF8018081918187
:100F60000296918380830EC061E0C50101960995C8
:100F70006C01CA0CDB1CD8018D919C9111970396D2
:100F80008D939C93B6EAEB16F10454F4E4EAEE1662
:100F9000F104CCF5F2EAEF16F1040CF444C005C0FC
:100FA00028EAE216F104CCF13EC0F80146815781EF
:100FB0000084F185E02D60E0D8018D919C91099528
:100FC000F801648175818D39910551F46160C80122
:100FD0000E945F05D8016D917C916F5F7F4F06C0C5
:100FE000C8010E945F05F80160817181C8010E94FB
:100FF0005F05D80112968D919C91139715969C933D
:101000008E93149711C0C8010E944B05892B09F4D7
:101010008DC2F801D182C08289C2C8010E944B05ED
:10102000892B09F083C2D801CD92DC927FC2F801EE
:101030006281738103C0F80164817581C8010E94D7
:101040005F054CC24DB65EB6C8010E944B05682FC5
:101050003C017724C301880F991FEDB7FEB7E81B49
:10106000F90B0FB6F894FEBF0FBEEDBF2DB73EB71C
:101070002F5F3F4FA9017901A12CB12C10C0C801ED
:101080004B835C836A830E944B05D7018D939D93AC
:101090007D01BFEFAB1ABB0A6A815C814B81A6144C
:1010A000B7046CF3F801268137810484F585E02DBF
:1010B0008C2D805B0995BC01C8010E945F05842DC1
:1010C000952D0FB6F8949EBF0FBE8DBF07C2B7E037
:1010D000CB22DD2463E0F594E7946A95E1F7E5E03F
:1010E000CE16D10409F056C03DB62EB6F7E0EF2279
:1010F000FF24C7010196880F991F2DB73EB7281B03
:10110000390B0FB6F8943EBF0FBE2DBFCDB6DEB67D
:101110008FEFC81AD80A5601612C712C0AC0C80179
:101120000E944B05D5018D939D935D01BFEF6B1A16
:101130007B0AE614F7049CF7F601A080B180B501A4
:10114000C8010E945F056E2C660C77086C0C7D1C34
:10115000412C512CC12CD12C0EC0F301E40DF51DF6
:1011600060817181C8010E945F05FFEFCF1ADF0A1D
:1011700022E0421A5108EC10F0CFB501C8010E94DC
:101180005F05D8018D919C91119701968D939C9349
:10119000910166C0B6E0CB16D10409F069C02DB646
:1011A000EEB7E983F7E0EF22FF243E2C2FEFE21A9F
:1011B000F20AC7010196880F991FADB7BEB7A81BE9
:1011C000B90B0FB6F894BEBF0FBEADBFADB6BEB67D
:1011D000EFEFAE1ABE0A6501612C712C0AC0C8017E
:1011E0000E944B05D6018D939D936D01BFEF6B1A45
:1011F0007B0AE614F7049CF7832D8F5F6501C80E08
:10120000D11CC80ED11C412C512C612C712C21E019
:10121000F601E40DF51D329760817181C8012A83C2
:101220000E945F05EFEF6E1A7E0AF2E04F1A510836
:101230002A81822F8619830D59F7F701EE0FFF1FC0
:10124000EA0DFB1D60817181C8010E945F05D80114
:101250008D919C91119701968D939C93322D2981AC
:10126000832F922F0FB6F8949EBF0FBE8DBF5EC125
:10127000B7E0EB22FF24C7010497BB24B394029785
:1012800008F0B12CE2E0CE16D10409F440C044F4D9
:10129000C114D10479F0CA94CD2809F07CC020C0D3
:1012A00033E0C316D104E9F184E0C816D10409F093
:1012B00072C053C0D80116964D915C9117978D91CD
:1012C0009C9111971896ED91FC91199760E0019609
:1012D00009956C01DD24F80180819181029614C08A
:1012E000D80116964D915C9117978D919C9111970D
:1012F0001896ED91FC91199761E0019609956C01A2
:10130000F8018081918103969183808346C0C80152
:101310000E944B056C01D8018D919C91119701960B
:1013200037C0C8010E944B056C0102C0CC0CDD1C0B
:10133000BA94E2F7F8014681578180819181008457
:10134000F185E02D60E001960995C80ED11CD80109
:101350008D919C91119702961BC0C8010E944B056C
:101360006C0102C0CC0CDD1CBA94E2F7F801468196
:101370005781808191810084F185E02D61E00196A3
:101380000995C80ED91ED8018D919C91119703968D
:101390008D939C9302C0C12CD12CB2E0EB16F104CA
:1013A000E9F144F4E114F10491F0EA94EF2809F032
:1013B000BDC046C024E0E216F10409F44CC00CF4B0
:1013C0003FC085E0E816F10409F0B0C051C0D80173
:1013D00016964D915C9117971896ED91FC9119977F
:1013E00060E0C60109959927BC01C8010F900F90D4
:1013F0000F900F90DF91CF911F910F91FF90EF9081
:10140000DF90CF90BF90AF909F908F907F906F9024
:101410005F904F903F902F900C945F05D8011696E7
:101420004D915C9117971896ED91FC91199760E09A
:10143000C6010995BC01772787FFD7CF7F6FD5CF2E
:10144000F801E284F384A680B780C8010E944B05AE
:10145000950140E017C0D80116964D915C91179701
:101460001896ED91FC91199761E0C6010995BCCFE2
:10147000F801E284F384A680B780C8010E944B057E
:10148000950141E0BC01C601F7010F900F900F904C
:101490000F90DF91CF911F910F91FF90EF90DF9010
:1014A000CF90BF90AF909F908F907F906F905F9004
:1014B0004F903F902F90099460E070E0C8010E9427
:1014C0005F0505C0E12CF12CF7E0CF22DD24C70138
:1014D0002FEFE21AF20AC816D90674F7D8018D91D7
:1014E0009C91119701968D939C9320C0C8010E94F6
:1014F0004B05B7E0CB22DD24EFEFCE1ADE0ACC0C91
:10150000DD1CD80112962D913C9113972C0D3D1D99
:1015100013963C932E931297BC01C8010E945F055D
:10152000F801808191810196918380830FB6F894B0
:101530009EBE0FBE8DBE0F900F900F900F90DF914B
:10154000CF911F910F91FF90EF90DF90CF90BF90C0
:10155000AF909F908F907F906F905F904F903F9053
:101560002F9008951F920F920FB60F9211242F9370
:101570003F938F939F93AF93BF938091FF0690917A
:101580000007A0910107B091020730910707232FB0
:101590002D5F2D3720F40196A11DB11D05C0232F0D
:1015A0002A570296A11DB11D209307078093FF06BD
:1015B00090930007A0930107B0930207809103075F
:1015C00090910407A0910507B09106070196A11D0F
:1015D000B11D8093030790930407A0930507B09370
:1015E0000607BF91AF919F918F913F912F910F90DF
:1015F0000FBE0F901F9018950F931F939FB7F894ED
:101600000091030710910407209105073091060708
:1016100086B5A89B06C08F3F21F00F5F1F4F2F4F4D
:101620003F4F9FBF322F212F102F0027080F111D72
:10163000211D311D42E0000F111F221F331F4A954B
:10164000D1F7B801C9011F910F910895CF92DF9290
:10165000EF92FF92CF93DF936B017C010E94FC0A13
:10166000EB010EC00E94FC0A6C1B7D0B683E7340B0
:1016700038F081E0C81AD108E108F108C851DC4F00
:10168000C114D104E104F10469F7DF91CF91FF9017
:10169000EF90DF90CF900895789484B5826084BDF8
:1016A00084B5816084BD85B5826085BD85B5816066
:1016B00085BDEEE6F0E0808181608083E1E8F0E0C6
:1016C0001082808182608083808181608083E0E8F5
:1016D000F0E0808181608083E1EBF0E080818460D4
:1016E0008083E0EBF0E0808181608083EAE7F0E0D6
:1016F000808184608083808182608083808181603A
:1017000080838081806880831092C1000895FC01ED
:1017100084859585FC01E05CFF4F20813181FC01CF
:10172000EE5BFF4F80819181281B390B2F7333278C
:10173000C9010895FC0184859585FC01E05CFF4F9B
:1017400040815181FC01EE5BFF4F208131814217C6
:10175000530741F00190F081E02DE80FF91F20813F
:1017600030E002C02FEF3FEFC9010895FC018485EE
:101770009585FC01E05CFF4F40815181FC01EE5BEF
:10178000FF4F208131814217530781F0A081B18141
:10179000A80FB91F8C91208131812F5F3F4F2F738C
:1017A000332731832083282F30E002C02FEF3FEF13
:1017B000C9010895FC0186859785FC01E05CFF4F17
:1017C000DC01AE5BBF4F408151812D913C9111975F
:1017D00042175307C1F70895CF93DF93FC01868525
:1017E0009785DC01A05CBF4F2D913C9111972F5F35
:1017F0003F4F2F733327EC01CE5BDF4F4881598178
:1018000024173507D9F30D90BC91A02DA80FB91F4F
:101810006C93A685B785A05CBF4F11963C932E9321
:10182000A689B7892C9181E090E0058C02C0880FD1
:10183000991F0A94E2F7282B2C9381E090E0DF9126
:10184000CF91089508951F920F920FB60F92112411
:101850002F933F934F938F939F93EF93FF934091D9
:10186000C6008091AB079091AC0701968F739927C2
:101870002091AD073091AE078217930759F0E091A0
:10188000AB07F091AC07E559F84F40839093AC0754
:101890008093AB07FF91EF919F918F914F913F9173
:1018A0002F910F900FBE0F901F90189588E097E032
:1018B0000E94870B892B11F00C94220C08951F9223
:1018C0000F920FB60F9211242F933F938F939F93F4
:1018D000EF93FF9320916707309168078091690724
:1018E00090916A072817390731F48091C1008F7DE4
:1018F0008093C10014C0E0916907F0916A07E95D27
:10190000F84F20818091690790916A0701968F7343
:10191000992790936A07809369072093C600FF91E7
:10192000EF919F918F913F912F910F900FBE0F904C
:101930001F901895CF92DF92EF92FF92CF93DF9393
:10194000EC016A017B01411581EE580761057105C3
:10195000F9F0EC89FD8981E090E00E8C02C0880FDF
:10196000991F0A94E2F7808360E079E08DE390E0CC
:10197000A70196010E94EC0E21503109410951093D
:101980005695479537952795211580E1380798F0AA
:10199000EC89FD89108260E874E88EE190E0A7018F
:1019A00096010E94EC0E21503109410951095695CA
:1019B000479537952795E889F9893083EA89FB8926
:1019C0002083EE89FF89408181E090E09C010A8CB0
:1019D00002C0220F331F0A94E2F7422B4083EE89A4
:1019E000FF8940819C010B8C02C0220F331F0A9497
:1019F000E2F7422B4083EE89FF8940819C010C8CE9
:101A000002C0220F331F0A94E2F7422B4083EE8973
:101A1000FF8920810D8C02C0880F991F0A94E2F77C
:101A2000809582238083DF91CF91FF90EF90DF90AC
:101A3000CF90089510920B0710920A0788EE93E05A
:101A4000A0E0B0E080930C0790930D07A0930E07E1
:101A5000B0930F0787EB91E09093090780930807F5
:101A60008BE697E0909315078093140787E297E041
:101A7000909317078093160785EC90E090931907D1
:101A80008093180784EC90E090931B0780931A07CB
:101A900080EC90E090931D0780931C0781EC90E010
:101AA00090931F0780931E0786EC90E09093210788
:101AB0008093200784E08093220783E080932307AC
:101AC00087E08093240785E08093250781E0809359
:101AD000260708950E944C0B0E948304C6E5DCE0B3
:101AE0000E9447052097E1F30E94560CF9CFCF9250
:101AF000DF92EF92FF920F931F93CF93DF936C01CE
:101B0000EB017A01E60EF71E00E010E00BC06991D0
:101B1000D601ED91FC910190F081E02DC60109956F
:101B2000080F191FCE15DF0591F7C801DF91CF917E
:101B30001F910F91FF90EF90DF90CF900895DB0100
:101B40000D900020E9F7AD0141505109461B570B9C
:101B5000DC01ED91FC910280F381E02D09940C945D
:101B60009F0DDC01ED91FC910190F081E02D099435
:101B70000F931F93CF93DF93EC016DE00E94B10DA3
:101B80008C016AE0CE010E94B10D9C01200F311F33
:101B9000C901DF91CF911F910F9108950F931F936A
:101BA000CF93DF93EC010E949F0D8C01CE010E9428
:101BB000B80D9801280F391FC901DF91CF911F91EE
:101BC0000F9108954F925F926F927F929F92AF9282
:101BD000BF92CF92DF92EF92FF920F931F93CF931A
:101BE000DF93CDB7DEB7A1970FB6F894DEBF0FBE77
:101BF000CDBF5C016A017B01922E19A281E08217A0
:101C000010F08AE0982E8E010F5D1F4F492C512C49
:101C1000612C712CC701B601A30192010E94EC0E48
:101C20008C2D929E80191124015011098A3014F4D0
:101C3000805D01C0895CF801808369017A01C1146B
:101C4000D104E104F10431F7B801C5010E949F0DF0
:101C5000A1960FB6F894DEBF0FBECDBFDF91CF9136
:101C60001F910F91FF90EF90DF90CF90BF90AF90BA
:101C70009F907F906F905F904F9008952115310550
:101C800041F4DC01ED91FC910190F081E02D642F95
:101C900009940C94E20D9A01462F50E060E070E048
:101CA0000C943E0E0F931F93CF93DF93EC019A0198
:101CB000462F50E060E070E00E943E0E8C01CE01A5
:101CC0000E94B80D9801280F391FC901DF91CF91EB
:101CD0001F910F910895CF92DF92EF92FF920F9391
:101CE0001F93CF93DF93EC016A017B01211531052E
:101CF00079F4E881F9810190F081E02D642FDF9182
:101D0000CF911F910F91FF90EF90DF90CF900994AA
:101D10002A30310519F477FD0EC02AE0B701A6017B
:101D2000CE01DF91CF911F910F91FF90EF90DF9047
:101D3000CF900C94E20D6DE20E94B10D8C0144270E
:101D40005527BA014C195D096E097F092AE0CE01B9
:101D50000E94E20D080F191FC801DF91CF911F915A
:101D60000F91FF90EF90DF90CF9008959A01AB0113
:101D7000662757FD6095762F0C946B0E0F931F937B
:101D8000CF93DF93EC019A01AB01662757FD609575
:101D9000762F0E946B0E8C01CE010E94B80D980127
:101DA000280F391FC901DF91CF911F910F9108951D
:101DB00097FB072E16F4009407D077FD09D00E94F8
:101DC000140F07FC05D03EF4909581959F4F089520
:101DD000709561957F4F0895A1E21A2EAA1BBB1B37
:101DE000FD010DC0AA1FBB1FEE1FFF1FA217B307E7
:101DF000E407F50720F0A21BB30BE40BF50B661FFD
:101E0000771F881F991F1A9469F7609570958095C0
:101E100090959B01AC01BD01CF010895EE0FFF1F0E
:101E20000590F491E02D0994AA1BBB1B51E107C05A
:101E3000AA1FBB1FA617B70710F0A61BB70B881F5A
:101E4000991F5A95A9F780959095BC01CD010895E9
:101E50002F923F924F925F926F927F928F929F92BA
:101E6000AF92BF92CF92DF92EF92FF920F931F93A8
:101E7000CF93DF93CDB7DEB7CA1BDB0B0FB6F89459
:101E8000DEBF0FBECDBF09942A88398848885F8499
:101E90006E847D848C849B84AA84B984C884DF800A
:101EA000EE80FD800C811B81AA81B981CE0FD11DEE
:101EB0000FB6F894DEBF0FBECDBFED0108959111AE
:101EC00006C080538A5010F0865C06C0089599279A
:101ED0008827089585FDFBCF80629111F8CF815648
:101EE0008A51E0F708959111F2CF803219F08950AC
:101EF0008550D0F70895FB01DC014150504030F08F
:101F00008D910190801919F40020B9F7881B990B65
:101F10000895FC016150704001900110D8F7809540
:101F200090958E0F9F1F08950F931F93CF93DF936C
:101F30008C01E091B507F091B607838181FF1BC04A
:101F4000C0E0D0E005C00995892B11F0CFEFDFEF9D
:101F5000F80181918F016091B5077091B607DB019F
:101F60001896ED91FC9119978111EDCF8AE00995B2
:101F7000892B09F402C0CFEFDFEFCE01DF91CF91C3
:101F80001F910F910895AEE0B0E0E9ECFFE00C94F2
:101F9000380F85E08C838B899C899A838983CE0155
:101FA0004796AC016D897E89CE0101960E948A1107
:101FB0002E96E2E00C94540F20FD09C0FC0123FD95
:101FC00005C022FF02C0738362835183408308955A
:101FD000CF92DF92EF92FF920F931F9344FD10C0B8
:101FE00046FD10C0DB01FC01AA0FBB1FEE1FFF1F47
:101FF0001094D1F76A0F7B1F8E1F9F1F31E003C023
:1020000033E001C034E0660F771F881F991F3150FD
:10201000D1F76B017C01C20ED11CE11CF11C9701B0
:102020008601B601C9011F910F91FF90EF90DF90DB
:10203000CF9008950F931F93CF93DF938C01C80126
:102040000E94C312EC0197FD08C00E94730F892BF8
:10205000B1F7B801CE010E940313CE01DF91CF91F9
:102060001F910F9108958F929F92AF92CF92DF921E
:10207000EF92FF920F931F93CF93DF93EC01A62E65
:102080004A01022F0E94C312AC0155274B32510561
:1020900021F04D32510551F40068AA9411F480E00A
:1020A00063C0CE010E94C31297FDF9CF102F1D7F90
:1020B000302F3073E1F48033D1F4AA9409F440C096
:1020C000CE010E94C31297FD3BC0883711F08835BE
:1020D00049F41264AA94A1F1CE010E94C31297FFA1
:1020E00006C02EC006FF02C0126001C01261C12CE2
:1020F000D12C7601282F2053283080F014FF04C003
:10210000BE010E94031319C02A3040F016FFF8CF19
:102110002F7D322F3151363098F72750412FC7018C
:10212000B6010E94E80F6B017C011260AA9459F07D
:10213000CE010E94C31297FFDDCF11FD04C0AFCFC7
:10214000C12CD12C760117FF08C0F094E094D094F4
:10215000C094C11CD11CE11CF11C212FB701A601A8
:10216000C4010E94DC0F81E0DF91CF911F910F919C
:10217000FF90EF90DF90CF90AF909F908F90089559
:102180006F927F929F92AF92BF92CF92DF92EF9227
:10219000FF920F931F93CF93DF93CDB7DEB7A19735
:1021A0000FB6F894DEBF0FBECDBF6C017A01890176
:1021B000FE01319680E2DF011D928A95E9F7D60192
:1021C00013969C9020E030E0A12CA0E0B12CCF0130
:1021D00041E050E0F80193FC759193FE71918F01FD
:1021E000711103C000E010E080C07E3519F42115A4
:1021F000310559F1EB2DF0E0E217F3073CF47D35A2
:1022000069F17D3219F4AA2319F103C0A11101C0AB
:10221000A72EE72FE695E695E6953C016E0E711C1C
:10222000F301A72FA7703A0102C0660C771CAA958C
:10223000E2F7D301B081BA2BB0837A1559F07A1541
:1022400010F47F5FE6CF7150E4CFBB24B39403C09A
:10225000A1E001C0A0E02F5F3F4FBCCFAA2319F03F
:102260008E8180628E83B11003C0BB24B3940BC0F7
:10227000FE013196CE018196208120952193E817A9
:10228000F907D1F7F2CFC60169A30E94C31269A171
:1022900097FD24C0282F269526952695E1E0F0E0AD
:1022A000EC0FFD1FE20FF11D208130E0AC01477003
:1022B000552702C0359527954A95E2F720FD04C0C1
:1022C000B6010E9403130AC0E114F10419F0D7010A
:1022D0008D937D016150B12CB1F602C0B11082CF57
:1022E000E114F10411F0F7011082C801A1960FB6B4
:1022F000F894DEBF0FBECDBFDF91CF911F910F913C
:10230000FF90EF90DF90CF90BF90AF909F907F9025
:102310006F9008954F925F927F928F929F92AF92AB
:10232000BF92CF92DF92EF92FF920F931F93CF93C2
:10233000DF931F92CDB7DEB78C012B017A01FC0130
:1023400017821682A12CF0C08C2D90E00E94730F92
:10235000892B21F0C8010E941A10E6C0F5E2CF12C5
:102360000AC0F201D3FC3591D3FE31912F013532F1
:1023700071F455E2C52EC8010E94C31297FDDFC05B
:10238000C81609F4D1C0B8010E940313DAC03A326A
:1023900041F4D3FC3591D3FE31912F01BB24B3948A
:1023A00001C0B12C712C10C0F2E0BF2A672D70E083
:1023B00080E090E040E20E94E80F762EF201D3FC2C
:1023C0003591D3FE31912F01232F20532A3060F312
:1023D000B1FE03C0711003C0B4C077247A943836BC
:1023E00019F03C3699F40AC0F201D3FC3591D3FEC2
:1023F00031912F01383651F4F8E0BF2A84E0B82A31
:10240000F201D3FC3591D3FE31912F01332309F42E
:1024100098C0632F70E084EC90E039830E94B8127A
:102420003981892B09F48DC0B0FC07C0F701C08049
:10243000D18082E0E80EF11C02C0C12CD12C3E36C6
:1024400051F4F8014681578160E070E02B2DC60100
:102450000E94DC0F69C0333691F4B1FC02C07724CE
:102460007394C8010E94C31297FD69C0C114D104BE
:1024700019F0F60181936F017A9499F753C03B35B7
:1024800059F49201A601672DC8010E94C0102C01C9
:10249000009709F047C041C0C80139830E941A1053
:1024A000398197FD4CC03F3659F128F4343629F173
:1024B000393649F52AC0333719F0353721F51DC0B3
:1024C000C8010E94C3124C0197FD11C00E94730FF6
:1024D000892B29F0B801C4010E94031308C0C1145C
:1024E000D10419F0F60181926F017A9449F7C11471
:1024F000D104C1F0F601108215C0F0E2BF2A05C078
:1025000080E1B82A02C090E4B92A2B2DA601672DDC
:10251000C8010E943310811105C0F80183818073C6
:1025200071F40FC0B0FEA394F801D380F201D3FC84
:10253000C590D3FEC1902F01C11006CF02C0AA20C2
:1025400019F02A2D30E002C02FEF3FEFC9010F90A4
:10255000DF91CF911F910F91FF90EF90DF90CF907F
:10256000BF90AF909F908F907F905F904F90089515
:10257000FC010590061621F00020D9F7C00108954E
:102580003197CF010895CF93DF93EC013B8130FF6A
:1025900034C036FF0AC03F7B3B838E819F8101960A
:1025A0009F838E832A8130E02AC032FF0FC0E881EA
:1025B000F9818081992787FD9095009719F4306201
:1025C0003B831BC03196F983E8830EC0EA85FB8507
:1025D000099597FF09C02B81019611F480E101C094
:1025E00080E2822B8B8309C02E813F812F5F3F4F7A
:1025F0003F832E839C01332702C02FEF3FEFC90199
:10260000DF91CF910895FB01238120FF13C026FDA8
:1026100011C08F3F3FEF930769F082832F7D2064C5
:1026200023832681378121503109378326839C01FA
:10263000332702C02FEF3FEFC9010895F894FFCF71
:102640000000B907200043616C6C656420757365F8
:10265000722066756E6374696F6E200020776974EE
:102660006820617267733A2000747275650025688E
:102670006875256E00247566256868750077686939
:102680006C65004661696C656420636F6E64697493
:10269000696F6E2E0066756E6374696F6E00496EA9
:1026A000697469616C697A696E672E2E2E00446FB9
:1026B000776E6C6F61646564200020627974657365
:1026C0002E00467265652052414D3A004572726F88
:1026D0007220636F6D70696C696E672E005375634D
:1026E0006365737320636F6D70696C696E672E002C
:1026F00030780000000000EC0B770D870BB60B9ACA
:042700000BDA0B00E5
:00000001FF
