:100000000C94EE000C9416010C9416010C9416013D
:100010000C9416010C9416010C9416010C94160104
:100020000C9416010C9416010C9416010C941601F4
:100030000C9416010C9416010C9416010C941601E4
:100040000C942D0E0C9416010C9437100C94731014
:100050000C9416010C9416010C9416010C941601C4
:100060000C9416010C941601D709DB09DF09E70986
:10007000EB09F009F709FE09020A060A0A0A0E0A44
:10008000160A1A0A1F0AE90DE90DE90DE90DE90D35
:10009000E90DE90DE90DE90DE90DE90DE90DE90DB0
:1000A000E90DE90DE90DE90DE90DE90DE90DE90DA0
:1000B000E90DE90DE90DE90D250A2C0A330A3A0A82
:1000C000410A480A5B5B656F662C20667265652095
:1000D00072616D3A20005D5D0043616C6C65642067
:1000E000757365722066756E6374696F6E2000208B
:1000F0007769746820617267733A20006469676980
:1001000074616C57726974652070696E3A200020C2
:1001100076616C3A200064656C61793A2000496E22
:10012000697469616C697A696E672E2E2E00446F5E
:10013000776E6C6F6164656420002062797465730A
:100140002E00467265652052414D3A004572726F2D
:100150007220636F6D70696C696E672E00537563F2
:100160006365737320636F6D70696C696E672028B7
:100170000020627974657329003078002000000047
:100180000007000201000003040600000000000058
:100190000000010204081020408001020408102021
:1001A00001020408102004040404040404040202EC
:1001B0000202020203030303030300000000250000
:1001C00028002B0000000000240027002A006364A0
:1001D000696E6F70737578585B002E1111241FBE05
:1001E000CFEFD8E0DEBFCDBF11E0A0E0B1E0ECEE94
:1001F000FEE202C005900D92A635B107D9F714E0D2
:10020000A6E5B1E001C01D92AB3DB107E1F711E0F9
:10021000CCEDD1E004C02297FE010E945713CA3DE5
:10022000D107C9F70E947E110C9474170C9400003A
:100230009C01260F311D2436310568F4FC01E3547E
:10024000FC4F662329F08181308120E0282B05C0F6
:10025000208130E002C020E030E0C90108959C0117
:10026000240F311D2436310548F4FC01E354FC4FC2
:10027000442319F0708361830895608308959091F9
:10028000BC03E92FF0E0E354FC4F80839F5F909321
:10029000BC030895AC0120E030E0FA014E5F5F4FEF
:1002A00080819181892B19F47183608307C02F5F4E
:1002B0003F4F2032310589F72FEF3FEFC9010895F5
:1002C000EF92FF920F931F93CF93DF937B018C01EB
:1002D000C0E0D0E0F801819191918F01009759F031
:1002E00040E051E0B7010E94C213009731F021961F
:1002F000C032D10579F7CFEFDFEFCE01DF91CF919B
:100300001F910F91FF90EF900895FC0180818B3237
:1003100019F480E80C943F0108952F923F924F9278
:100320005F926F927F928F929F92AF92BF92CF9285
:10033000DF92EF92FF920F931F93CF93DF93CDB78E
:10034000DEB7CA50D1400FB6F894DEBF0FBECDBFA6
:100350007C016B015A014901C85FDE4F1982188286
:10036000C850D140FC01808191816817790730F431
:10037000A0C10F5F1F4FF70111830083F7010081B8
:10038000118124E6622E21E0722E600E711EF301AF
:100390008081992787FD90950E94BA13892B49F790
:1003A00044E050E0B30186E091E00E94C213009760
:1003B00009F081C12801F4E04F0E511CF201EC5903
:1003C000FE4F3080832D992787FD90950E94A613BC
:1003D000892B09F070C124E2321609F46CC1F701CF
:1003E000518240828E01085F1E4F9401A501B60123
:1003F000C7010E94D50381E920C00B5F1F4FF801A0
:10040000EC59FE4F5080852D992787FD90950E94CD
:10041000A613892B09F059C1F4E25F1609F455C1FE
:10042000F701118300838E01085F1E4F9401A5011F
:10043000B601C7010E94D50380E90E943F0137C180
:10044000F80180819181820D931DF7019183808352
:100450008E01085F1E4F9401A501B601C7010E94DD
:10046000D503811126C1F201808191819C012C5F0D
:100470003F4F2830310520F48770992780570BC1F2
:100480008F3F910509F010F488E905C08AE90E94C0
:100490003F01F20181810E943F01F2018081FBC096
:1004A000F101EC59FE4F8081873209F045C0C1014E
:1004B0000196F70191838083FC01EC59FE4F708017
:1004C000C1010296F70191838083FCE57F1217C07A
:1004D000FC01EC59FE4F808123E0220E311CF70114
:1004E000318220828E3649F0843721F08C3509F034
:1004F000E0C005C099E0792E02C08AE0782EF701AD
:1005000020813181F901EC59FE4F8081873209F059
:10051000FFC02F5F3F4FF701318320838E01085FBB
:100520001E4F9401A501B601C7010E94D50388E9B9
:100530000E943F01872DAFC000E010E0F70160800E
:100540007180F301EC59FE4F5080852D992787FD6E
:1005500090950E94A613892B09F0E0C0F4E25F1683
:1005600009F4DCC00115110509F4A3C024E631E04B
:10057000220E331EA801B101CE0101960E94D013B4
:10058000E1E0F0E0EC0FFD1FE00FF11F108238E218
:100590005312CDC08FEF681A780AF701718260821A
:1005A000CF5FDE4F188219821A82C150D140CE5FD0
:1005B000DE4F99828882C250D14005C00F5F1F4F25
:1005C000F70111830083F70100811181F801EC59D3
:1005D000FE4F9080892D992787FD90950E94BA1330
:1005E000892B61F7F9E29F12AFC00F5F1F4FF70130
:1005F0001183008388E90E943F01CF5FDE4F88812D
:10060000C150D1400E943F018E01065F1E4F1F93D3
:100610000F938BE091E09F938F933F922F920E94D4
:1006200019140F900F900F900F900F900F901816B5
:1006300019060CF071C0F80180818F7080552BC0B5
:100640000F5F1F4FF70111830083F70100811181B4
:10065000F801EC59FE4F5080852D992787FD909524
:100660000E94BA13892B61F7FDE35F1278C00F5F18
:100670001F4FF701118300839401A501B601C70143
:100680000E948D01811148C085EC0E943F01C30189
:100690008F739927805C0E943F01C85FDE4F88817D
:1006A0009981C850D140009711F00E94850180E0E7
:1006B00062C081E060C045E050E0B30183E191E0B9
:1006C0000E94C213009709F498CE8E010C5F1E4F52
:1006D000F801118210821F930F932E01FAEF4F1A27
:1006E000FEEF5F0A5F924F9289E191E09F938F93B3
:1006F0007F926F920E9419140FB6F894DEBF0FBE5E
:10070000CDBFF70120803180892B09F4C9CE98CE66
:100710008FE191E00E94EA1382E02DC0FFEF6F1A93
:100720007F0AF701718260820F5F1F4F07CFBE0102
:100730006F5F7F4FC5010E9460013C018F3FFFEF5B
:100740009F0709F082CFE8CF9E012F5F3E4FA501A2
:10075000B601C7010E948D018111DECF4BCF8E0102
:10076000085F1E4F9401A501B601C7010E94D50381
:10077000862D8F7390CFC65FDE4F0FB6F894DEBF25
:100780000FBECDBFDF91CF911F910F91FF90EF90E2
:10079000DF90CF90BF90AF909F908F907F906F90A1
:1007A0005F904F903F902F9008958F929F92AF92BD
:1007B000BF92CF92DF92EF92FF920F931F93CF934E
:1007C000DF9300D000D01F92CDB7DEB77C01490186
:1007D0008114910441F480E062C08FEFC81AD80AF6
:1007E000F701D182C082F701C080D18034E6A32E08
:1007F00031E0B32EAC0CBD1CF5012081822F99276E
:1008000087FD909529834C835D836A837B830E9457
:10081000BA1329814C815D816A817B81892BE9F63C
:100820002C32D1F5FFEFCF1ADF0AF701D182C08257
:10083000F40180818F5F808318C0FFEFCF1ADF0A39
:10084000F701D182C082F40180818F5F8083818033
:100850009280BECF2B32F1F4F801B182A082FFEF7B
:10086000CF1ADF0AF701D182C0829401C7010F902D
:100870000F900F900F900F90DF91CF911F910F91DC
:10088000FF90EF90DF90CF90BF90AF909F908F90B0
:100890000C948D0182E003C02932E1F6CECF0F9097
:1008A0000F900F900F900F90DF91CF911F910F91AC
:1008B000FF90EF90DF90CF90BF90AF909F908F9080
:1008C00008957F928F929F92AF92BF92CF92DF92C4
:1008D000EF92FF920F931F93CF93DF93EC017B0175
:1008E0006A0128C10F5F1F4F19830883088119818E
:1008F00044E6A42E41E0B42EA00EB11EF501908076
:10090000892D992787FD90950E94BA13892B51F75D
:10091000FBE39F1217C10F5F1F4F198308830AC1A2
:10092000480185E0880E911CF401EC59FE4F70805F
:10093000872D992787FD90950E94A613892B09F092
:100940000BC1E4E27E1609F407C19982888205C0D2
:10095000FFEFAF1ABF0AB982A882A880B980F5015B
:10096000EC59FE4F8081992787FD90950E94BA131C
:10097000892B71F700E010E088809980F401EC5930
:10098000FE4F7080872D992787FD90950E94A613B2
:10099000892B09F0ECC084E2781609F4E8C001154F
:1009A000110531F4FBC0EFEF8E1A9E0A99828882FE
:1009B00088809980F401EC59FE4F7080872D99272B
:1009C00087FD90950E94BA13892B69F7FBE37F128C
:1009D000E1C0B5016C597E4F8FEF881A980A998251
:1009E0008882FB01E00FF11F1082C6010E944A01BC
:1009F000A1C00B5F1F4FF801EC59FE4FB0808B2D4B
:100A0000992787FD90950E94A613892B09F0B7C0FE
:100A1000E4E2BE1609F4B3C002C00F5F1F4F198392
:100A2000088308811981F801EC59FE4FB0808B2DA5
:100A3000992787FD90950E94BA13892B71F7F8E2E8
:100A4000BF12A8C00F5F1F4F1983088320E030E05A
:100A5000A601B701CE010E948D0181119FC086EAD7
:100A60000E943F0184E00E943F0104C00F5F1F4FBE
:100A70001983088308811981F801EC59FE4FB08071
:100A80008B2D992787FD90950E94BA13892B71F7BA
:100A900089E2B8127FC00F5F1F4F19830883088156
:100AA0001981F801EC59FE4FB0808B2D992787FDF5
:100AB00090950E94BA13892B71F7EBE7BE126AC0BA
:100AC0000F5F1F4F1983088308811981F801EC59C2
:100AD000FE4FB0808B2D992787FD90950E94BA1309
:100AE000892B71F7FDE7BF1255C00F5F1F4F1983A8
:100AF000088380EA0E943F018DEF1AC00F5F1F4FED
:100B00001983088308811981F801EC59FE4FB080E0
:100B10008B2D992787FD90950E94BA13892B71F729
:100B20008BE3B81237C00F5F1F4F198308838DE91D
:100B30000E943F0188819981E816F90608F0D6CE17
:100B400081E02DC045E050E0B50181E391E00E94D5
:100B5000C213009709F4E4CE45E050E0B50187E305
:100B600091E00E94C213009709F443CF08C0EFEF51
:100B70008E1A9E0A998288820F5F1F4FFDCE20E059
:100B800030E0A601B701CE010E948D01882309F44F
:100B9000B9CFD6CF8FE191E00E94EA1382E0DF91D6
:100BA000CF911F910F91FF90EF90DF90CF90BF906A
:100BB000AF909F908F907F9008956F927F929F92B9
:100BC000AF92BF92CF92DF92EF92FF920F931F935B
:100BD000CF93DF93CDB7DEB7C054D1090FB6F894E9
:100BE000DEBF0FBECDBF8C016B0160E4962EAA2440
:100BF000A394B12CAC0EBD1ED8C0FC01EC59FE4F25
:100C00008081811107C0D9C08FEFE81AF80AF80176
:100C1000F182E082F801E080F18054E6652E51E037
:100C2000752E6E0C7F1CF3018081992787FD9095AE
:100C30000E94BA13892B41F748E050E0B3018DE3DD
:100C400091E00E94C213009711F081E0C4C0F8E067
:100C5000EF0EF11CF701EC59FE4F7080872D99279C
:100C600087FD90950E94A613892B79F784E2781668
:100C700061F303C0FFEFEF1AFF0AF801F182E0828F
:100C8000F801E080F180F701EC59FE4F808199274F
:100C900087FD90950E94BA13892B61F7F801E080D7
:100CA000F180F701EC59FE4F7080872D992787FD61
:100CB00090950E94A613892B09F081C0F4E27F125F
:100CC00007C07DC08FEFE81AF80AF801F182E082D0
:100CD000F801E080F180F701EC59FE4F7080872D1C
:100CE000992787FD90950E94BA13892B59F7F8E24E
:100CF0007F126CC08FEFE81AF80A03C0FFEFEF1AFB
:100D0000FF0AF801F182E082F801E080F180F7014A
:100D1000EC59FE4F7080872D992787FD90950E9492
:100D2000BA13892B59F7F9E27F1250C08FEFE81AF6
:100D3000F80A03C0FFEFEF1AFF0AF801F182E08220
:100D4000F801E080F180F701EC59FE4F7080872DAB
:100D5000992787FD90950E94BA13892B59F7FBE7D5
:100D60007F1234C08FEFE81AF80AF801F182E082AE
:100D7000F501892D11928A95E9F7A501B601C801FF
:100D80000E946104F80180819181FC01EC59FE4FC1
:100D900020812D37D9F40196F801918380838CE965
:100DA0000E943F0102C082E016C0F801808191815B
:100DB000C816D90608F021CF48CF80E00CC0FFEF5D
:100DC000EF1AFF0AF801F182E08268CF8FE191E02B
:100DD0000E94EA13E8CFC05CDF4F0FB6F894DEBF85
:100DE0000FBECDBFDF91CF911F910F91FF90EF907C
:100DF000DF90CF90BF90AF909F907F906F900895BD
:100E0000CF93DF9300D0CDB7DEB760E071E084E62A
:100E100091E00E94DF131A821982BC01CE01019673
:100E20000E94DD0590E00F900F90DF91CF91089523
:100E3000CF93DF9300D0CDB7DEB78091D1049091EE
:100E4000D204009711F48BED94E09E012F5F3F4F89
:100E5000281B390BC9010F900F90DF91CF91089596
:100E6000EF92FF920F931F93CF93DF93E62EEA0149
:100E7000823071F030F4882381F0813009F0A2C013
:100E800028C0833009F461C0843009F09BC084C05D
:100E900000E010E0E62EF12C50C060E371E08AE241
:100EA00094E00E94151264EC70E08AE294E00E94E3
:100EB000C3110E9418074AE050E0BC018AE294E0A6
:100EC0000E94FD1266ED70E08AE294E00E94011239
:100ED000FFCF69ED70E08AE294E00E94C3114AE01E
:100EE00050E061E08AE294E00E9492126FEE70E0BE
:100EF0008AE294E00E94C3114AE050E06E2D8AE23B
:100F000094E00E94991200E010E0F12C0AC069916F
:100F100079914AE050E08AE294E00E9405130F5F65
:100F20001F4F0E151F059CF34DC0688122968AE263
:100F300094E00E94E4110F5F1F4F0E151F05ACF3E4
:100F40008AE294E00E94EE0F3DC06CEF70E08AE20E
:100F500094E00E94C311688179814AE050E08AE2FE
:100F600094E00E94FD126FE071E08AE294E00E943A
:100F7000C3116A817B814AE050E08AE294E00E94DA
:100F8000051361E08A819B81181619060CF060E058
:100F900088810E94640F16C066E171E08AE294E0E5
:100FA0000E94C311688179814AE050E08AE294E0AE
:100FB0000E94051368817981882777FD8095982F95
:100FC0000E94A10E80E090E0DF91CF911F910F91E0
:100FD000FF90EF9008950F931F93CF93DF9361E0FD
:100FE0008DE00E942C0F40E855E260E070E08AE25C
:100FF00094E00E94AE106EE171E08AE294E00E94FB
:10100000011204E611E0C0E0D0E011C08AE294E0F1
:101010000E949B0F18161906CCF78AE294E00E94F2
:10102000CA0FF80181938F012196882321F0C835DA
:10103000F2E0DF0759F76EE271E08AE294E00E9485
:10104000C3114AE050E0BE018AE294E00E94FD1222
:101050006AE371E08AE294E00E94011264E671E0C2
:101060008AE294E00E94151262E471E08AE294E060
:101070000E94C3110E9418074AE050E0BC018AE2B6
:1010800094E00E94051360E371E08AE294E00E941C
:10109000151268EE73E080E090E00E94A10E8AE2F3
:1010A00094E00E94EE0F0E940007892B39F06CE457
:1010B00071E08AE294E00E940112FFCF6DE571E0D9
:1010C0008AE294E00E94C3114AE050E06091BC03C0
:1010D0008AE294E00E94921261E771E08AE294E071
:1010E0000E940112CDEBD3E013C069E771E08AE200
:1010F00094E00E94C311699140E150E08AE294E0DB
:101100000E9492126CE771E08AE294E00E94C3119F
:101110009E012D5B33408091BC0390E02817390776
:1011200024F360E371E08AE294E00E94151260E328
:1011300071E08AE294E00E94151210925701109219
:10114000560184E690E090935B0180935A0190935E
:1011500059018093580188E191E090935F01809359
:101160005E018FE291E0909361018093600180E3E2
:1011700097E09093630180936201DF91CF911F917B
:101180000F91089586E591E00C941909CF93DF93B0
:10119000EC014E815F81E885F98561E08A819B8160
:1011A00009952A813B812E5F3F4F3B832A83DF9144
:1011B000CF910895FC01828193810297938382836A
:1011C000268137810284F385E02D41E00994FC01FA
:1011D0002481358182E0680220193109112467FFDA
:1011E00003C082E090E002C08EEF9FEF46815781FE
:1011F0000084F185E02D61E0820F931F0994FC01CA
:10120000862FBA01A481B58192E08902A019B109A3
:10121000112487FF03C082E090E002C08EEF9FEFB1
:10122000268137810284F385E02D41E08A0F9B1FE0
:1012300009942F923F924F925F926F927F928F927A
:101240009F92AF92BF92CF92DF92EF92FF920F9355
:101250001F93CF93DF9300D000D0CDB7DEB78C01C2
:101260008DB69EB6DC0116964D915C911797189637
:10127000ED91FC91199760E08D919C9109956C011D
:101280007C01FF24BDE9EB16F10409F483C19CF550
:10129000FFE8EF16F104B4F42CE8E216F1040CF0C8
:1012A00076C030E8E316F1040CF06CC0BC016F733B
:1012B000772780E2C822DD2490E4E916F1040CF0DF
:1012C00051C048C0A9E9EA16F10409F408C15CF468
:1012D000E0E9EE16F1040CF4A4C4F8E9EF16F10409
:1012E0000CF4DFC0EAC02BE9E216F10409F42AC1CC
:1012F0000CF02DC10FC18FEAE816F10409F416C2F3
:10130000CCF4A8EAEA16F10484F4B0EAEB16F1048E
:101310000CF084C1EEE9EE16F10409F43FC1FFE9D7
:10132000EF16F10409F07DC474C12EEAE216F1044F
:101330004CF1F8C130EFE316F10434F480ECE81618
:10134000F1040CF03FC2F9C198EFE916F1040CF476
:1013500034C447C4CD2811F0606C7F6FC8010E946F
:10136000E7083CC07B01CD2821F0B0ECEB2AFF243C
:10137000FA94C8010E94C608AC016E2DC8010E94F3
:10138000FF0849C4C8010E94C6086C0102C0C12CF4
:10139000D12CC8010E94C608F701E058F109EE32CD
:1013A000F10508F016C4EC5CFF4F0C945513BC011A
:1013B0006C0D7D1DBEC1BC016C197D09BAC18C9D2F
:1013C000B0018D9D700D9C9D700D1124B2C1B601B0
:1013D0000E941F13AEC1B6010E941F13BC01A9C118
:1013E000BC0102C0660F771FCA94E2F7A2C1BC011C
:1013F00002C075956795CA94E2F79BC1BC016C2148
:101400007D2197C1BC016C297D2993C1BC016C254C
:101410007D258FC1892B39F061E003C061E0892B04
:1014200019F4CD2809F460E070E083C1BC01609537
:1014300070957FC166277727681B790B7AC161E0B9
:1014400070E0892B09F475C129C061E070E08C154A
:101450009D050CF46EC122C061E070E0C816D9068B
:101460000CF067C11BC061E070E08C159D0509F4AC
:1014700060C114C061E070E08C159D0509F059C190
:101480000DC061E070E08C159D050CF052C106C0E6
:1014900061E070E0C816D9060CF44BC160E070E062
:1014A00048C1BC016770772782FF02C0686F7F6FF9
:1014B00062FFAEC3686F7F6FABC3D80116964D91C4
:1014C0005C9117978D919C9111971896ED91FC91D5
:1014D000199760E0019609959927BC0113C0D801BE
:1014E00016964D915C9117978D919C911197189636
:1014F000ED91FC91199760E001960995BC01772761
:1015000087FD7F6FC8010E94DA08F8018081918110
:10151000029685C3D80116964D915C9117978D91CF
:101520009C9111971896ED91FC91199761E00196A5
:101530000995BC01C8010E94DA08F80180819181F7
:1015400003966DC3C8010E94C6087C0102C0E12C4D
:10155000F12CD80114968D919C91159713969C931C
:101560008E931297C8010E94C608F8019183808368
:10157000C8010E94C608D80115969C938E931497B3
:1015800080FF06C08E7F15969C938E93149749C357
:10159000B701A6C2C8010E94C6083DC3C8010E9487
:1015A000C6087C01D80116964D915C9117978D91D4
:1015B0009C9111971896ED91FC91199760E0019616
:1015C0000995F801648175818D39910551F4616047
:1015D000C8010E94DA08D8016D917C916E5F7F4F3F
:1015E00008C0C8010E94DA08F801608171816F5F4C
:1015F0007F4FC8010E94DA08D80112968D919C9104
:10160000139715969C938E931497EC921196FC92D7
:1016100008C3C8010E94C608F80101C3D801169684
:101620004D915C911797AD90BC9011971896ED91E4
:10163000FC911997C0FC13C060E0C50101960995A3
:101640006C01DD2487FF02C0DD24DA94CA0CDB1CA8
:10165000F801808191810296918380830EC061E0C0
:10166000C501019609956C01CA0CDB1CD8018D914E
:101670009C91119703968D939C93B6EAEB16F10417
:1016800054F4E4EAEE16F104CCF5F2EAEF16F104B4
:101690000CF444C005C028EAE216F104CCF13EC0C7
:1016A000F801468157810084F185E02D60E0D80182
:1016B0008D919C910995F801648175818D39910511
:1016C00051F46160C8010E94DA08D8016D917C91E3
:1016D0006F5F7F4F06C0C8010E94DA08F801608181
:1016E0007181C8010E94DA08D80112968D919C91EF
:1016F000139715969C938E93149711C0C8010E945E
:10170000C608892B09F48DC2F801D182C08289C232
:10171000C8010E94C608892B09F083C2D801CD9266
:10172000DC927FC2F8016281738103C0F801648199
:101730007581C8010E94DA084CC24DB65EB6C80178
:101740000E94C608682F3C017724C301880F991FA7
:10175000EDB7FEB7E81BF90B0FB6F894FEBF0FBE4E
:10176000EDBF2DB73EB72F5F3F4FA9017901A12CE7
:10177000B12C10C0C8014B835C836A830E94C608E9
:10178000D7018D939D937D01BFEFAB1ABB0A6A8190
:101790005C814B81A614B7046CF3F8012681378174
:1017A0000484F585E02D8C2D805B0995BC01C80172
:1017B0000E94DA08842D952D0FB6F8949EBF0FBEB7
:1017C0008DBF07C2B7E0CB22DD2463E0F594E79438
:1017D0006A95E1F7E5E0CE16D10409F056C03DB6B2
:1017E0002EB6F7E0EF22FF24C7010196880F991F5C
:1017F0002DB73EB7281B390B0FB6F8943EBF0FBE6E
:101800002DBFCDB6DEB68FEFC81AD80A5601612CAF
:10181000712C0AC0C8010E94C608D5018D939D9302
:101820005D01BFEF6B1A7B0AE614F7049CF7F60123
:10183000A080B180B501C8010E94DA086E2C660C48
:1018400077086C0C7D1C412C512CC12CD12C0EC066
:10185000F301E40DF51D60817181C8010E94DA0871
:10186000FFEFCF1ADF0A22E0421A5108EC10F0CF46
:10187000B501C8010E94DA08D8018D919C91119799
:1018800001968D939C93910166C0B6E0CB16D1046E
:1018900009F069C02DB6EEB7E983F7E0EF22FF2427
:1018A0003E2C2FEFE21AF20AC7010196880F991F0A
:1018B000ADB7BEB7A81BB90B0FB6F894BEBF0FBE2D
:1018C000ADBFADB6BEB6EFEFAE1ABE0A6501612C74
:1018D000712C0AC0C8010E94C608D6018D939D9341
:1018E0006D01BFEF6B1A7B0AE614F7049CF7832D9A
:1018F0008F5F6501C80ED11CC80ED11C412C512C24
:10190000612C712C21E0F601E40DF51D3297608108
:101910007181C8012A830E94DA08EFEF6E1A7E0AED
:10192000F2E04F1A51082A81822F8619830D59F748
:10193000F701EE0FFF1FEA0DFB1D60817181C801E9
:101940000E94DA08D8018D919C91119701968D9390
:101950009C93322D2981832F922F0FB6F8949EBF2E
:101960000FBE8DBF5EC1B7E0EB22FF24C701049715
:10197000BB24B394029708F0B12CE2E0CE16D10458
:1019800009F440C044F4C114D10479F0CA94CD28BC
:1019900009F07CC020C033E0C316D104E9F184E033
:1019A000C816D10409F072C053C0D80116964D91E3
:1019B0005C9117978D919C9111971896ED91FC91E0
:1019C000199760E0019609956C01DD24F80180818A
:1019D0009181029614C0D80116964D915C9117978B
:1019E0008D919C9111971896ED91FC91199761E05A
:1019F000019609956C01F80180819181039691838C
:101A0000808346C0C8010E94C6086C01D8018D9130
:101A10009C911197019637C0C8010E94C6086C01BD
:101A200002C0CC0CDD1CBA94E2F7F8014681578164
:101A3000808191810084F185E02D60E00196099517
:101A4000C80ED11CD8018D919C91119702961BC094
:101A5000C8010E94C6086C0102C0CC0CDD1CBA94FF
:101A6000E2F7F80146815781808191810084F185F8
:101A7000E02D61E001960995C80ED91ED8018D911F
:101A80009C91119703968D939C9302C0C12CD12CED
:101A9000B2E0EB16F104E9F144F4E114F10491F041
:101AA000EA94EF2809F0BDC046C024E0E216F10434
:101AB00009F44CC00CF43FC085E0E816F10409F0CD
:101AC000B0C051C0D80116964D915C9117971896E9
:101AD000ED91FC91199760E0C60109959927BC0129
:101AE000C8010F900F900F900F90DF91CF911F9131
:101AF0000F91FF90EF90DF90CF90BF90AF909F90AD
:101B00008F907F906F905F904F903F902F900C94AC
:101B1000DA08D80116964D915C9117971896ED91B9
:101B2000FC91199760E0C6010995BC01772787FFF2
:101B3000D7CF7F6FD5CFF801E284F384A680B7803A
:101B4000C8010E94C608950140E017C0D80116964A
:101B50004D915C9117971896ED91FC91199761E062
:101B6000C6010995BCCFF801E284F384A680B78052
:101B7000C8010E94C608950141E0BC01C601F701F9
:101B80000F900F900F900F90DF91CF911F910F91B9
:101B9000FF90EF90DF90CF90BF90AF909F908F908D
:101BA0007F906F905F904F903F902F90099460E0EE
:101BB00070E0C8010E94DA0805C0E12CF12CF7E0C2
:101BC000CF22DD24C7012FEFE21AF20AC816D90688
:101BD00074F7D8018D919C91119701968D939C93E8
:101BE00020C0C8010E94C608B7E0CB22DD24EFEF79
:101BF000CE1ADE0ACC0CDD1CD80112962D913C9138
:101C000013972C0D3D1D13963C932E931297BC01F8
:101C1000C8010E94DA08F8018081918101969183C0
:101C200080830FB6F8949EBE0FBE8DBE0F900F90AE
:101C30000F900F90DF91CF911F910F91FF90EF9038
:101C4000DF90CF90BF90AF909F908F907F906F90DC
:101C50005F904F903F902F9008951F920F920FB674
:101C60000F9211242F933F938F939F93AF93BF9322
:101C70008091210490912204A0912304B091240426
:101C800030912904232F2D5F2D3720F40196A11DBB
:101C9000B11D05C0232F2A570296A11DB11D209307
:101CA00029048093210490932204A0932304B093E9
:101CB00024048091250490912604A0912704B091DA
:101CC00028040196A11DB11D80932504909326043C
:101CD000A0932704B0932804BF91AF919F918F9157
:101CE0003F912F910F900FBE0F901F9018950F935B
:101CF0001F939FB7F894009125041091260420911A
:101D000027043091280486B5A89B06C08F3F21F098
:101D10000F5F1F4F2F4F3F4F9FBF322F212F102F8D
:101D20000027080F111D211D311D42E0000F111F5A
:101D3000221F331F4A95D1F7B801C9011F910F9196
:101D40000895CF92DF92EF92FF92CF93DF936B01D2
:101D50007C010E94770EEB010EC00E94770E6C1B77
:101D60007D0B683E734038F081E0C81AD108E10865
:101D7000F108C851DC4FC114D104E104F10469F742
:101D8000DF91CF91FF90EF90DF90CF9008957894FE
:101D900084B5826084BD84B5816084BD85B5826070
:101DA00085BD85B5816085BDEEE6F0E0808181600E
:101DB0008083E1E8F0E0108280818260808380810E
:101DC00081608083E0E8F0E0808181608083E1EBE6
:101DD000F0E0808184608083E0EBF0E080818160CE
:101DE0008083EAE7F0E08081846080838081826084
:101DF000808380818160808380818068808310926D
:101E0000C1000895833069F028F48130A1F0823058
:101E100011F514C08630B1F08730C1F08430D9F4A8
:101E200004C0809180008F7703C0809180008F7DF7
:101E300080938000089584B58F7702C084B58F7D2C
:101E400084BD08958091B0008F7703C08091B00069
:101E50008F7D8093B0000895CF93DF9390E0FC01D5
:101E6000EE56FE4F4491FC01EA55FE4F84918823C3
:101E700041F190E0880F991FFC01EC53FE4F259132
:101E80003491D90186549E4FFC0185919491C82FBD
:101E9000D92F9FB7F8948C91611106C04095842387
:101EA0008C938881842308C0623041F4242F2095CC
:101EB00082238C938881842B888302C0842B8C930B
:101EC0009FBFDF91CF9108950F931F93CF93DF931F
:101ED0001F92CDB7DEB7282F30E0F901E258FE4F50
:101EE0008491F901EE56FE4F1491F901EA55FE4F27
:101EF00004910023D1F0882321F069830E94020F0E
:101F00006981E02FF0E0EE0FFF1FE654FE4F859150
:101F10009491DC019FB7F8948C91611103C01095E6
:101F2000812301C0812B8C939FBF0F90DF91CF91B4
:101F30001F910F910895FC0184859585FC01E05C5B
:101F4000FF4F20813181FC01EE5BFF4F8081918149
:101F5000281B390B2F733327C9010895FC01848591
:101F60009585FC01E05CFF4F40815181FC01EE5BF7
:101F7000FF4F208131814217530741F00190F081DA
:101F8000E02DE80FF91F208130E002C02FEF3FEF76
:101F9000C9010895FC0184859585FC01E05CFF4F33
:101FA00040815181FC01EE5BFF4F2081318142175E
:101FB000530781F0A081B181A80FB91F8C912081B6
:101FC00031812F5F3F4F2F73332731832083282F99
:101FD00030E002C02FEF3FEFC9010895FC01868574
:101FE0009785FC01E05CFF4FDC01AE5BBF4F408199
:101FF00051812D913C91119742175307C1F70895D4
:10200000CF93DF93FC0186859785DC01A05CBF4FF1
:102010002D913C9111972F5F3F4F2F733327EC0188
:10202000CE5BDF4F4881598124173507D9F30D90D6
:10203000BC91A02DA80FB91F6C93A685B785A05C95
:10204000BF4F11963C932E93A689B7892C9181E0BE
:1020500090E0058C02C0880F991F0A94E2F7282BA4
:102060002C9381E090E0DF91CF91089508951F9225
:102070000F920FB60F9211242F933F934F938F938C
:102080009F93EF93FF934091C6008091CD04909170
:10209000CE0401968F7399272091CF043091D004FC
:1020A0008217930759F0E091CD04F091CE04E357E5
:1020B000FB4F40839093CE048093CD04FF91EF912A
:1020C0009F918F914F913F912F910F900FBE0F9045
:1020D0001F9018958AE294E00E949B0F892B11F0C3
:1020E0000C94361008951F920F920FB60F92112480
:1020F0002F933F938F939F93EF93FF9320918904A6
:1021000030918A0480918B0490918C0428173907B0
:1021100031F48091C1008F7D8093C10014C0E091A3
:102120008B04F0918C04E75BFB4F208180918B0442
:1021300090918C0401968F73992790938C048093CF
:102140008B042093C600FF91EF919F918F913F9157
:102150002F910F900FBE0F901F901895CF92DF9286
:10216000EF92FF92CF93DF93EC016A017B0141155F
:1021700081EE580761057105F9F0EC89FD8981E070
:1021800090E00E8C02C0880F991F0A94E2F78083BA
:1021900060E079E08DE390E0A70196010E9433139F
:1021A0002150310941095109569547953795279591
:1021B000211580E1380798F0EC89FD89108260E8EC
:1021C00074E88EE190E0A70196010E94331321503C
:1021D0003109410951095695479537952795E88961
:1021E000F9893083EA89FB892083EE89FF89408160
:1021F00081E090E09C010A8C02C0220F331F0A94F8
:10220000E2F7422B4083EE89FF8940819C010B8CD1
:1022100002C0220F331F0A94E2F7422B4083EE895B
:10222000FF8940819C010C8C02C0220F331F0A944D
:10223000E2F7422B4083EE89FF8920810D8C02C09A
:10224000880F991F0A94E2F7809582238083DF919B
:10225000CF91FF90EF90DF90CF90089510922D04D2
:1022600010922C0488EE93E0A0E0B0E080932E045E
:1022700090932F04A0933004B09331048AE491E04A
:1022800090932B0480932A048DE894E09093370474
:102290008093360489E494E0909339048093380461
:1022A00085EC90E090933B0480933A0484EC90E0BA
:1022B00090933D0480933C0480EC90E090933F0425
:1022C00080933E0481EC90E090934104809340041D
:1022D00086EC90E0909343048093420484E08093E2
:1022E000440483E08093450487E08093460485E0BE
:1022F0008093470481E08093480408950E94C70EAC
:102300000E94EB07CAE6D0E10E94C2082097E1F3E1
:102310000E946A10F9CFCF92DF92EF92FF920F9353
:102320001F93CF93DF936C01EB017A01E60EF71E4A
:1023300000E010E00BC06991D601ED91FC91019095
:10234000F081E02DC6010995080F191FCE15DF0594
:1023500091F7C801DF91CF911F910F91FF90EF90FE
:10236000DF90CF900895DB010D900020E9F7AD01DB
:1023700041505109461B570BDC01ED91FC91028045
:10238000F381E02D0994EF92FF920F931F93CF9367
:10239000DF937C01EB0100E010E0FE0121966491E7
:1023A000662351F0F701A081B181ED91FC91C70145
:1023B0000995080F191FF1CFC801DF91CF911F9127
:1023C0000F91FF90EF900895DC01ED91FC91019049
:1023D000F081E02D09940F931F93CF93DF93EC01CD
:1023E0006DE00E94E4118C016AE0CE010E94E411CC
:1023F0009C01200F311FC901DF91CF911F910F91D7
:1024000008950F931F93CF93DF93EC010E94C311A4
:102410008C01CE010E94EB119C01200F311FC901DC
:10242000DF91CF911F910F9108950F931F93CF9339
:10243000DF93EC010E94B3118C01CE010E94EB11DD
:102440009801280F391FC901DF91CF911F910F917A
:1024500008954F925F926F927F929F92AF92BF9238
:10246000CF92DF92EF92FF920F931F93CF93DF9360
:10247000CDB7DEB7A1970FB6F894DEBF0FBECDBFC4
:102480005C016A017B01922E19A281E0821710F093
:102490008AE0982E8E010F5D1F4F492C512C612C24
:1024A000712CC701B601A30192010E9433138C2D38
:1024B000929E80191124015011098A3014F4805D14
:1024C00001C0895CF801808369017A01C114D104DB
:1024D000E104F10431F7B801C5010E94B311A196DE
:1024E0000FB6F894DEBF0FBECDBFDF91CF911F9125
:1024F0000F91FF90EF90DF90CF90BF90AF909F90A3
:102500007F906F905F904F9008952115310541F4B1
:10251000DC01ED91FC910190F081E02D642F099494
:102520000C9429129A01462F50E060E070E00C9460
:1025300085120F931F93CF93DF93EC019A01462FDF
:1025400050E060E070E00E9485128C01CE010E9494
:10255000EB119801280F391FC901DF91CF911F910D
:102560000F910895CF92DF92EF92FF920F931F93F6
:10257000CF93DF93EC016A017B012115310579F4DA
:10258000E881F9810190F081E02D642FDF91CF91F6
:102590001F910F91FF90EF90DF90CF9009942A3018
:1025A000310519F477FD0EC02AE0B701A601CE016E
:1025B000DF91CF911F910F91FF90EF90DF90CF901F
:1025C0000C9429126DE20E94E4118C0144275527D6
:1025D000BA014C195D096E097F092AE0CE010E94FB
:1025E0002912080F191FC801DF91CF911F910F9178
:1025F000FF90EF90DF90CF9008959A01AB0166278E
:1026000057FD6095762F0C94B2120F931F93CF93C2
:10261000DF93EC019A01AB01662757FD6095762F99
:102620000E94B2128C01CE010E94EB119801280F7A
:10263000391FC901DF91CF911F910F91089597FB29
:10264000072E16F4009407D077FD09D00E945B1383
:1026500007FC05D03EF4909581959F4F08957095A5
:1026600061957F4F0895A1E21A2EAA1BBB1BFD01A5
:102670000DC0AA1FBB1FEE1FFF1FA217B307E40761
:10268000F50720F0A21BB30BE40BF50B661F771FB9
:10269000881F991F1A9469F7609570958095909599
:1026A0009B01AC01BD01CF010895EE0FFF1F059006
:1026B000F491E02D0994AA1BBB1B51E107C0AA1F8E
:1026C000BB1FA617B70710F0A61BB70B881F991FD3
:1026D0005A95A9F780959095BC01CD0108952F9248
:1026E0003F924F925F926F927F928F929F92AF92A2
:1026F000BF92CF92DF92EF92FF920F931F93CF93EF
:10270000DF93CDB7DEB7CA1BDB0B0FB6F894DEBF85
:102710000FBECDBF09942A88398848885F846E84AB
:102720007D848C849B84AA84B984C884DF80EE80F5
:10273000FD800C811B81AA81B981CE0FD11D0FB6FE
:10274000F894DEBF0FBECDBFED010895911106C014
:1027500080538A5010F0865C06C008959927882718
:10276000089585FDFBCF80629111F8CF81568A5183
:10277000E0F708959111F2CF803219F08950855019
:10278000D0F70895FB01DC014150504030F08D91AD
:102790000190801919F40020B9F7881B990B08954E
:1027A000FB01DC014150504048F001900D920020A7
:1027B000C9F701C01D9241505040E0F70895FC0157
:1027C0006150704001900110D8F7809590958E0F60
:1027D0009F1F08950F931F93CF93DF938C01E09178
:1027E000D704F091D804838181FF1BC0C0E0D0E002
:1027F00005C00995892B11F0CFEFDFEFF80181912A
:102800008F016091D7047091D804DB011896ED9187
:10281000FC9119978111EDCF8AE00995892B09F474
:1028200002C0CFEFDFEFCE01DF91CF911F910F916B
:102830000895AEE0B0E0EFE1F4E10C947F1385E0A1
:102840008C838B899C899A838983CE014796AC01BE
:102850006D897E89CE0101960E94E0152E96E2E0F8
:102860000C949B1320FD09C0FC0123FD05C022FF31
:1028700002C073836283518340830895CF92DF92B5
:10288000EF92FF920F931F9344FD10C046FD10C0BE
:10289000DB01FC01AA0FBB1FEE1FFF1F1094D1F735
:1028A0006A0F7B1F8E1F9F1F31E003C033E001C002
:1028B00034E0660F771F881F991F3150D1F76B01E5
:1028C0007C01C20ED11CE11CF11C97018601B601EE
:1028D000C9011F910F91FF90EF90DF90CF90089565
:1028E0000F931F93CF93DF938C01C8010E94191798
:1028F000EC0197FD08C00E94BA13892BB1F7B8010B
:10290000CE010E945917CE01DF91CF911F910F91F7
:1029100008958F929F92AF92CF92DF92EF92FF92A3
:102920000F931F93CF93DF93EC01A62E4A01022F42
:102930000E941917AC0155274B32510521F04D3239
:10294000510551F40068AA9411F480E063C0CE01EF
:102950000E94191797FDF9CF102F1D7F302F30736C
:10296000E1F48033D1F4AA9409F440C0CE010E946E
:10297000191797FD3BC0883711F0883549F4126468
:10298000AA94A1F1CE010E94191797FF06C02EC08C
:1029900006FF02C0126001C01261C12CD12C760169
:1029A000282F2053283080F014FF04C0BE010E945D
:1029B000591719C02A3040F016FFF8CF2F7D322F5B
:1029C0003151363098F72750412FC701B6010E9488
:1029D0003E146B017C011260AA9459F0CE010E9452
:1029E000191797FFDDCF11FD04C0AFCFC12CD12C3B
:1029F000760117FF08C0F094E094D094C094C11CF5
:102A0000D11CE11CF11C212FB701A601C4010E94B9
:102A1000321481E0DF91CF911F910F91FF90EF90E1
:102A2000DF90CF90AF909F908F9008956F927F929C
:102A30009F92AF92BF92CF92DF92EF92FF920F934D
:102A40001F93CF93DF93CDB7DEB7A1970FB6F8945E
:102A5000DEBF0FBECDBF6C017A018901FE01319648
:102A600080E2DF011D928A95E9F7D60113969C90CA
:102A700020E030E0A12CA0E0B12CCF0141E050E0FB
:102A8000F80193FC759193FE71918F01711103C050
:102A900000E010E080C07E3519F42115310559F1B0
:102AA000EB2DF0E0E217F3073CF47D3569F17D3260
:102AB00019F4AA2319F103C0A11101C0A72EE72F11
:102AC000E695E695E6953C016E0E711CF301A72F85
:102AD000A7703A0102C0660C771CAA95E2F7D301F1
:102AE000B081BA2BB0837A1559F07A1510F47F5F54
:102AF000E6CF7150E4CFBB24B39403C0A1E001C082
:102B0000A0E02F5F3F4FBCCFAA2319F08E818062D7
:102B10008E83B11003C0BB24B3940BC0FE01319669
:102B2000CE018196208120952193E817F907D1F7EE
:102B3000F2CFC60169A30E94191769A197FD24C0AD
:102B4000282F269526952695E1E0F0E0EC0FFD1F55
:102B5000E20FF11D208130E0AC014770552702C023
:102B6000359527954A95E2F720FD04C0B6010E94ED
:102B700059170AC0E114F10419F0D7018D937D01B2
:102B80006150B12CB1F602C0B11082CFE114F10452
:102B900011F0F7011082C801A1960FB6F894DEBFBC
:102BA0000FBECDBFDF91CF911F910F91FF90EF909E
:102BB000DF90CF90BF90AF909F907F906F900895DF
:102BC0004F925F927F928F929F92AF92BF92CF92DD
:102BD000DF92EF92FF920F931F93CF93DF931F9299
:102BE000CDB7DEB78C012B017A01FC01178216826A
:102BF000A12CF0C08C2D90E00E94BA13892B21F0FB
:102C0000C8010E947014E6C0F5E2CF120AC0F201BA
:102C1000D3FC3591D3FE31912F01353271F455E259
:102C2000C52EC8010E94191797FDDFC0C81609F408
:102C3000D1C0B8010E945917DAC03A3241F4D3FC2E
:102C40003591D3FE31912F01BB24B39401C0B12C37
:102C5000712C10C0F2E0BF2A672D70E080E090E098
:102C600040E20E943E14762EF201D3FC3591D3FE51
:102C700031912F01232F20532A3060F3B1FE03C07E
:102C8000711003C0B4C077247A94383619F03C36FA
:102C900099F40AC0F201D3FC3591D3FE31912F0192
:102CA000383651F4F8E0BF2A84E0B82AF201D3FCA8
:102CB0003591D3FE31912F01332309F498C0632F4E
:102CC00070E08EEC91E039830E940E173981892BD8
:102CD00009F48DC0B0FC07C0F701C080D18082E04C
:102CE000E80EF11C02C0C12CD12C3E3651F4F80183
:102CF0004681578160E070E02B2DC6010E9432149E
:102D000069C0333691F4B1FC02C077247394C801D2
:102D10000E94191797FD69C0C114D10419F0F6017A
:102D200081936F017A9499F753C03B3559F492011E
:102D3000A601672DC8010E9416152C01009709F005
:102D400047C041C0C80139830E947014398197FD82
:102D50004CC03F3659F128F4343629F1393649F55B
:102D60002AC0333719F0353721F51DC0C8010E943C
:102D700019174C0197FD11C00E94BA13892B29F035
:102D8000B801C4010E94591708C0C114D10419F038
:102D9000F60181926F017A9449F7C114D104C1F010
:102DA000F601108215C0F0E2BF2A05C080E1B82A02
:102DB00002C090E4B92A2B2DA601672DC8010E94FC
:102DC0008914811105C0F8018381807371F40FC0EB
:102DD000B0FEA394F801D380F201D3FCC590D3FEDA
:102DE000C1902F01C11006CF02C0AA2019F02A2DD0
:102DF00030E002C02FEF3FEFC9010F90DF91CF917C
:102E00001F910F91FF90EF90DF90CF90BF90AF9008
:102E10009F908F907F905F904F900895FC01059058
:102E2000061621F00020D9F7C00108953197CF018F
:102E30000895CF93DF93EC013B8130FF34C036FF20
:102E40000AC03F7B3B838E819F8101969F838E8347
:102E50002A8130E02AC032FF0FC0E881F9818081E9
:102E6000992787FD9095009719F430623B831BC02A
:102E70003196F983E8830EC0EA85FB85099597FFB3
:102E800009C02B81019611F480E101C080E2822B00
:102E90008B8309C02E813F812F5F3F4F3F832E835D
:102EA0009C01332702C02FEF3FEFC901DF91CF9183
:102EB0000895FB01238120FF13C026FD11C08F3F21
:102EC0003FEF930769F082832F7D2064238326815F
:102ED000378121503109378326839C01332702C073
:0C2EE0002FEF3FEFC9010895F894FFCFD9
:102EEC000000DB042000747275650024756625688B
:102EFC0068750066616C736500256864256E004614
:102F0C0061696C656420636F6E646974696F6E2EA1
:102F1C00006C6F63616C007768696C650066756E38
:102F2C006374696F6E000000000000108B119B0F22
:062F3C00CA0FAE0FEE0FFC
:00000001FF
